:020000040000fa
:0400080004240000cc
:020000040000fa
:04000c0004240000c8
:020000040000fa
:0400100004240000c4
:020000040000fa
:0400140004240000c0
:020000040000fa
:0400180004240000bc
:020000040000fa
:04001c0004240000b8
:020000040000fa
:0400200004240000b4
:020000040000fa
:0400240004240000b0
:020000040000fa
:0400280004240000ac
:020000040000fa
:04002c0004240000a8
:020000040000fa
:0400300004240000a4
:020000040000fa
:04003400fc210000ab
:020000040000fa
:04003800042400009c
:020000040000fa
:04003c000424000098
:020000040000fa
:040040000424000094
:020000040000fa
:040044000424000090
:020000040000fa
:04004800042400008c
:020000040000fa
:04004c000424000088
:020000040000fa
:040050000424000084
:020000040000fa
:04005400aa210000dd
:020000040000fa
:040058004e21000035
:020000040000fa
:04005c000424000078
:020000040000fa
:040060000424000074
:020000040000fa
:040064000424000070
:020000040000fa
:04006800042400006c
:020000040000fa
:04006c001e22000050
:020000040000fa
:040070000424000064
:020000040000fa
:040074000424000060
:020000040000fa
:04007800042400005c
:020000040000fa
:04007c000424000058
:020000040000fa
:040080000424000054
:020000040000fa
:040084000424000050
:020000040000fa
:04008800042400004c
:020000040000fa
:04008c000424000048
:020000040000fa
:040090000424000044
:020000040000fa
:040094000424000040
:020000040000fa
:04009800042400003c
:020000040000fa
:04009c000424000038
:020000040000fa
:0400a0000424000034
:020000040000fa
:0400a4000424000030
:020000040000fa
:0400a800042400002c
:020000040000fa
:0400ac000424000028
:020000040000fa
:0400b0000424000024
:020000040000fa
:0400b4000424000020
:020000040000fa
:0400b800042400001c
:020000040000fa
:0400bc000424000018
:020000040000fa
:0400c0000424000014
:020000040000fa
:0400c4000424000010
:020000040000fa
:0400c800042400000c
:020000040000fa
:0400cc000424000008
:020000040000fa
:0400d0000424000004
:020000040000fa
:0400d4000424000000
:020000040000fa
:0400d80004240000fc
:020000040000fa
:0400dc0004240000f8
:020000040000fa
:0400e00004240000f4
:020000040000fa
:0400e40004240000f0
:020000040000fa
:0400e80004240000ec
:020000040000fa
:0400ec0004240000e8
:020000040000fa
:0400f00004240000e4
:020000040000fa
:0400f40004240000e0
:020000040000fa
:0400f80004240000dc
:020000040000fa
:0400fc0004240000d8
:020000040000fa
:0401000004240000d3
:020000040000fa
:0401040004240000cf
:020000040000fa
:0401080004240000cb
:020000040000fa
:04010c0004240000c7
:020000040000fa
:0401100004240000c3
:020000040000fa
:0401140004240000bf
:020000040000fa
:0401180004240000bb
:020000040000fa
:04011c0004240000b7
:020000040000fa
:0401200004240000b3
:020000040000fa
:0401240004240000af
:020000040000fa
:0401280004240000ab
:020000040000fa
:04012c0004240000a7
:020000040000fa
:0401300004240000a3
:020000040000fa
:04013400042400009f
:020000040000fa
:04013800042400009b
:020000040000fa
:04013c000424000097
:020000040000fa
:040140000424000093
:020000040000fa
:04014400042400008f
:020000040000fa
:04014800042400008b
:020000040000fa
:04014c000424000087
:020000040000fa
:040150000424000083
:020000040000fa
:04015400042400007f
:020000040000fa
:04015800042400007b
:020000040000fa
:04015c000424000077
:020000040000fa
:040160000424000073
:020000040000fa
:04016400042400006f
:020000040000fa
:04016800042400006b
:020000040000fa
:04016c000424000067
:020000040000fa
:040170000424000063
:020000040000fa
:04017400042400005f
:020000040000fa
:04017800042400005b
:020000040000fa
:04017c000424000057
:020000040000fa
:040180000424000053
:020000040000fa
:04018400042400004f
:020000040000fa
:04018800042400004b
:020000040000fa
:04018c000424000047
:020000040000fa
:040190000424000043
:020000040000fa
:04019400042400003f
:020000040000fa
:04019800042400003b
:020000040000fa
:04019c000424000037
:020000040000fa
:0401a0000424000033
:020000040000fa
:0401a400042400002f
:020000040000fa
:0401a800042400002b
:020000040000fa
:0401ac000424000027
:020000040000fa
:0401b0000424000023
:020000040000fa
:0401b400042400001f
:020000040000fa
:0401b800042400001b
:020000040000fa
:0401bc000424000017
:020000040000fa
:0401c0000424000013
:020000040000fa
:0401c400042400000f
:020000040000fa
:0401c800042400000b
:020000040000fa
:0401cc000424000007
:020000040000fa
:0401d0000424000003
:020000040000fa
:0401d40004240000ff
:020000040000fa
:0401d80004240000fb
:020000040000fa
:0401dc0004240000f7
:020000040000fa
:0401e00004240000f3
:020000040000fa
:0401e40004240000ef
:020000040000fa
:0401e80004240000eb
:020000040000fa
:0401ec0004240000e7
:020000040000fa
:0401f00004240000e3
:020000040000fa
:0401f40004240000df
:020000040000fa
:0401f80004240000db
:020000040000fa
:0401fc0004240000d7
:020000040000fa
:0840080042200400000000004a
:020000040000fa
:104034000000fa00fc210400000000000080fa00e7
:044044000000060072
:020000040000fa
:104048000000fa00aa210400000000000080fa0025
:04405800000006005e
:020000040000fa
:10405c000000fa004e210400000000000080fa006d
:04406c00000006004a
:020000040000fa
:104070000000fa001e220400000000000080fa0088
:044080000000060036
:020000040000fa
:10408400af1921000e7f24000e01880000000000fb
:10409400000020000000e0000200320000012000c7
:1040a4002002880014000700d80107000000e00087
:1040b40003003a00a0b924000100200002003700e8
:1040c4000000200001002000810f70000100320078
:1040d40014000700000020000000e000020032008d
:1040e4000000020000000000324b0200000000004b
:1040f4000040da000000fe004440a90080222000b5
:104104000000e0000300320000202000900188003d
:104114004440a800000006008a1f78008b1f780026
:1041240000000600a1028800800478000000eb0073
:104134001f003700e284440054a0b4009905ba007b
:10414400e284440054a0b4009906ba00e284440016
:1041540054a0b4000006eb00476fde00fd07b20078
:10416400ae018800636ce10003003a00eaff070037
:104174000000eb000e003700606ce10008003a001c
:10418400004deb000a05e800020039003420ec0081
:104194000af0a0008b05e900f9ff3e000400370097
:1041a4006168e100010032000086eb000b000700ab
:1041b40019c7ba001905ba000e04e00003003a005a
:1041c4000a00e000dbff3a0000000600fe07b20030
:1041d400ae0288008a047800f5ff37000cd0a300f3
:1041e400e20f4d001c00390089027800354dba00f9
:1041f4000a05e800020039003420ec000af0a000af
:104204008b05e9000f003200254dba000a05e800cd
:10421400020039003420ec000af0a0008b05e9000c
:10422400080032000c00e0000600320015cdba0090
:104234000a05e800020039003420ec000af0a0006e
:104244008b05e9008984e80054a0b4000b00e00069
:10425400e2ff3a00000006009902ba00055d78000a
:104264008b05e900f7ff3200c82ade00055d7800ff
:104274008b05e900f3ff32000c00e000f1ff32008f
:1042840019ddba00eeff3700000000000000000056
:104294000000000000000000809fbe00821f780024
:1042a4000000fa00c10480000000210000806000ca
:1042b4000000e000220032004104800000002100e0
:1042c400008060000000e0001d0032008980a90029
:1042d400b00e210090407800a00e2100104078001c
:1042e40080cf50000b0039007a06a9009980a900fc
:1042f40071878000f0fd2f000080600070878800c7
:1043040071878000d0ff2f000080600070878800d4
:104314000b003700b00e2100104078000081fb0034
:10432400e10a210081004100914078008180fb0076
:10433400e11c88008040e800b00e210001487800ac
:104344000080fa004f0178004f00be0000400600d4
:104354003600f800809fbe00829fbe00849fbe008e
:10436400869fbe000000fa00c10480000080200087
:10437400008060000000e00017003200410480006b
:1043840000802000008060000000e0001200320085
:104394008960a900d01c8000620060000000e00079
:1043a400030032009a23a900c0062100e80a07008e
:1043b400d01c8000640060000000e00003003200b4
:1043c400f01c8000c0062100e10a0700f01c8000f8
:1043d40000407800f10a07000080fa004f03be0095
:1043e4004f02be004f01be004f00be003600f90070
:1043f40000400600801f78003200f8003400f80006
:1044040010002000a00188000020200090018800f6
:104414000000fa008860a900308380000000e800f2
:10442400308388000080fa003400f9003200f9007b
:104434004f007800004006003600f800809fbe0060
:10444400829fbe00849fbe00869fbe000000fa00cb
:104454008a20a900f1248000000820000080600068
:104464000000e000080032009ee4a9000a30ef00da
:1044740080808000200090008000eb00010878001c
:104484001030ef00d800370050808000e40f500057
:10449400c8003200e40f500009003e00e10f500054
:1044a40040003200e10f50000e003900e20f5000ce
:1044b40040003200e30f500066003200c0003700b5
:1044c400e60f5000a3003200e60f50008f003900c1
:1044d400e70f5000b7003200e80f5000a10032008f
:1044e400b700370020002100200090006200600027
:1044f4000000e000bb003a00200021001000900002
:104504008080880020002100100090001040780076
:104514000cf0b70020002100100090001000900063
:10452400708088002000210010009000e600400008
:10453400200021001100980020002100900090002c
:1045440040182100808f500003003a002000210011
:10455400e1172100110098002000210020019000a3
:10456400e1ff2f008100610021009800200021005c
:10457400900090002000210010007800808f5000ef
:1045840004003a0020002100a00090000110a000c7
:10459400210098009a04a800200020005080880080
:1045a400910037009a24a800200020005080880041
:1045b4008d00370020d0bf00e14f50000a003200c8
:1045c4007080800010007800108188007080800066
:1045d400200090002081880070808000204090009e
:1045e40026f0b700010037002070ef001181800031
:1045f400f00f2000808f50000900360010818000e9
:104604004800de00e6006000000f2000010070009a
:10461400b0248800a0002000508088007200370079
:1046240010818000b0248800108180006100600047
:10463400004078000004e000030032005000200035
:1046440050808800680037003000200050808800c7
:1046540065003700f124800000002800008060001d
:104664000000e000090032002000210060409000ba
:104674008040e80020002100614098009fe4a900e8
:10468400500020007d0e07005700370026d0bf00e1
:104694008080fb008100e900cf08de0081407800c3
:1046a4000040e90026f0b7000104e00010003200e9
:1046b4007080800066004000708088000cd0bf00cd
:1046c4000040e9000cf0b7000cd0bf000004e0008b
:1046d40003003a0020002000680e07004200370063
:1046e4009a24a80020002000508088003e00370053
:1046f40020818000904078008180fb00b1248800f4
:104704000000e8002081880037003700f124800091
:1047140000002800008060000000e0000900320072
:1047240020002100604090008040e800200021002b
:104734006140980040002000500e07009fe4a9004b
:10474400290037009a64a800800020005080880067
:104754002500370080002000508088009a64a8005b
:104764002100370020818000a1248000814078004e
:10477400014878000000e8002081880026d0bf00ae
:104784000040e90026f0b70026d0bf000004e00096
:10479400040032009aa4a900600020005080880020
:1047a400020037009aa4a800230e07009a84a800e8
:1047b4000d00370020002000300e07000a003700eb
:1047c40020002100604090008040e800200021008b
:1047d4006140980060002000280e070000000000df
:1047e40001003700000000000080fa004f03be0003
:1047f4004f02be004f01be004f00be003600f9005c
:10480400004006000040da000000fe000000050041
:1048140003f0a200889fbe008a9fbe008c1f780010
:10482400fa000700010133006450e1004f00320038
:104834006420e1005200320003826c0007003b0058
:104844000905d0000306d000820f54000c065d0059
:104854000200390002003200890178000306780062
:104864008582550004003d000003fd008103fd0026
:104874008502ea008b854200840f720002003b002f
:1048840060001000e08018006011b8000005eb0023
:104894007a28e1000a00390006007800c75ddd00cf
:1048a400f707b200878075002d0037008281710000
:1048b4000a017800610560008180d1000080d30086
:1048c4008502e900f9ff3b000604400087844800a4
:1048d40002003b0060041400e0841c000988a3006b
:1048e400070032008a8171008281710061016400d5
:1048f4008904d1000884d3008b05e8001700370031
:104904000978a30013003a000b00e0001300340000
:104914008b05e9000804440089844c000a447400af
:104924000978a3000d003a000b00e00007003400f2
:104934008b05e9000804440089844c0001003a0016
:104944000b0020000978a300f7ff32000001eb0000
:1049540002003700828171000a01780070000700ac
:104964000cf0a70001f0a000b90037006420e100ba
:1049740002003a00838f6c00b90033000801be00c6
:104984000200be00b2003700889fbe008a9fbe00ae
:104994008c1f78009d000700a400330003866c0080
:1049a4006450e1002e0032006420e1003300320044
:1049b4006150e1002f0032006120e100310032003b
:1049c40085855500eb07b00009002000080420008d
:1049d400050037000804440089844c000a003100b3
:1049e4000603430087834b000001530081815b0071
:1049f400f8ff33000203be000800a00008044400ce
:104a040089844c00f6ff3900c639dd008301730048
:104a140001003200130020008904d1000884d3006f
:104a24000998a300050032000800a7000300a000b5
:104a34008904d1000884d3008b05e8008904d100df
:104a44000884d3000001eb000281d2003400070087
:104a540001f0a1000cf0a70001f0a0007c003700d9
:104a64006420e1007e0032000801be000200be00a6
:104a7400f7ff37006120e100790032006000b800e0
:104a8400f3ff37000000200001f82700f0ff370093
:104a940014002000b9003700f4ff2f00b7003700de
:104aa4000001be00440007000470a70003f0a10049
:104ab40003f8a30013003a006509b10010003200a6
:104ac400090035006928e1000200350001002800d2
:104ad4000000050000004000818048008502e900d4
:104ae400fcff3a0000000600f88f42000500350084
:104af4008100d1000080d3008502e800fcff3a0069
:104b0400000006008000eb00000005004f89de0075
:104b140082017800b40037006011b800c200370089
:104b240081002000618055000b003d000b00200037
:104b340061fe2f000100e1001d003400828171003c
:104b4400610164008904d1000884d3000000e800f6
:104b5400faff3a0071002000610064000300700055
:104b6400020060000900320061044400e0844c004b
:104b74000988a500050032008b05e8006808e100fb
:104b840002003a008904d1000884d300f20f200007
:104b94000258e10005003d00c75ddd00f907b200e1
:104ba4008980750008007800000006000bf82700d3
:104bb4008b00780000000500c70ade00f107b20090
:104bc400f50fb20008003200e1cf420002003200cb
:104bd4000170a00024000500810f70000100320064
:104be4000408050044000500810f700002003a002b
:104bf400140005008502e9000000400081c048005f
:104c0400fcff3b000170a000240005000004be006e
:104c1400e9ff07000003be000405be000200be0059
:104c2400e5ff0700844f7500000006000200be0087
:104c34006450e100050036006420e1000200360003
:104c44000968a30001003a000800be000160a0004a
:104c54004f0678004f05be004f04be00000006005a
:104c6400f0ff2f00f1ff2700f9ff3700889fbe00f7
:104c74008a9fbe008c1f7800e4ff0700ebff33001f
:104c840003866c006450e100240032006420e100db
:104c9400270032006150e100220032006120e1006f
:104ca400210032008b854200eb07b1000134b800cb
:104cb400003ab8000804420089844a00013ab80066
:104cc4000030b8008880400009014a000400330025
:104cd4000000400081804800020149008b05e90082
:104ce400c909dd00830170000100320013002000b7
:104cf400c814de004814dd004709de001200b200cb
:104d0400c808de000884700085ff070001f0a100d8
:104d14000cf0a70001f0a000cdff37006120e100f6
:104d2400cfff32000801be000200be00f7ff3700cb
:104d34006150e100fcff3a00c9ff37006022b8006f
:104d4400060220000000d0008180d2000482d2003c
:104d54008582d2000000a0000202520083825a0021
:104d6400030031000202420083824a000000a100d5
:104d74000603e900f3ff3a0000000600889fbe0026
:104d84008a9fbe00841f7800a0ff07004f007800b0
:104d940011003300f0ff2f00838f6c0006003b00ee
:104da400040565000a00a7000800370009f0a60002
:104db4001000200008003700820f5400838f5c002d
:104dc400030039001000200001003e000000200014
:104dd40009f0a7000000ea004f05be004f04be0022
:104de4000000e00000000600881f7800030478003b
:104df4000300e00007003d0060001000e0801800a0
:104e040060011900e081190002003b0001f02d004f
:104e1400030037000400070008f0a70001f0a00019
:104e24004f04780000000600889fbe008a9fbe00e1
:104e340000827000040271000482710026003200b6
:104e44000004be000200be006011b8006b0920001f
:104e5400950220000182cf000a0039000541b1000b
:104e64000082cf00070039000541b1000982cf005c
:104e7400040039000541b1000882cf000100390067
:104e84000541b10005425200120032000a003b0005
:104e940082817100610164008100d1000080d3002f
:104ea4008984d3000884d3008b05e8000442e80019
:104eb400f7ff3a00070037000804440089844c00d7
:104ec40000004800818048008b05e9000442e900a5
:104ed400f9ff3a0012ff07004f05be004f04be0061
:104ee4000000060080017800020037008159780034
:104ef4000201e9000200e000fcff3a0000000600a5
:020000040000fa
:104f040000000000c1c0000081c100004001000099
:104f140001c30000c00300008002000041c2000081
:104f240001c60000c00600008007000041c7000061
:104f340000050000c1c5000081c400004004000059
:104f440001cc0000c00c0000800d000041cd000029
:104f5400000f0000c1cf000081ce0000400e000011
:104f6400000a0000c1ca000081cb0000400b000011
:104f740001c90000c00900008008000041c8000009
:104f840001d80000c01800008019000041d90000b9
:104f9400001b0000c1db000081da0000401a0000a1
:104fa400001e0000c1de000081df0000401f000081
:104fb40001dd0000c01d0000801c000041dc000079
:104fc40000140000c1d4000081d500004015000089
:104fd40001d70000c01700008016000041d6000071
:104fe40001d20000c01200008013000041d3000071
:104ff40000110000c1d1000081d000004010000069
:1050040001f00000c03000008031000041f10000d8
:1050140000330000c1f3000081f2000040320000c0
:1050240000360000c1f6000081f7000040370000a0
:1050340001f50000c03500008034000041f4000098
:10504400003c0000c1fc000081fd0000403d000068
:1050540001ff0000c03f0000803e000041fe000050
:1050640001fa0000c03a0000803b000041fb000050
:1050740000390000c1f9000081f800004038000048
:1050840000280000c1e8000081e900004029000078
:1050940001eb0000c02b0000802a000041ea000060
:1050a40001ee0000c02e0000802f000041ef000040
:1050b400002d0000c1ed000081ec0000402c000038
:1050c40001e40000c02400008025000041e5000048
:1050d40000270000c1e7000081e600004026000030
:1050e40000220000c1e2000081e300004023000030
:1050f40001e10000c02100008020000041e0000028
:1051040001a00000c06000008061000041a1000017
:1051140000630000c1a3000081a2000040620000ff
:1051240000660000c1a6000081a7000040670000df
:1051340001a50000c06500008064000041a40000d7
:10514400006c0000c1ac000081ad0000406d0000a7
:1051540001af0000c06f0000806e000041ae00008f
:1051640001aa0000c06a0000806b000041ab00008f
:1051740000690000c1a9000081a800004068000087
:1051840000780000c1b8000081b900004079000037
:1051940001bb0000c07b0000807a000041ba00001f
:1051a40001be0000c07e0000807f000041bf0000ff
:1051b400007d0000c1bd000081bc0000407c0000f7
:1051c40001b40000c07400008075000041b5000007
:1051d40000770000c1b7000081b6000040760000ef
:1051e40000720000c1b2000081b3000040730000ef
:1051f40001b10000c07100008070000041b00000e7
:1052040000500000c1900000819100004051000056
:1052140001930000c053000080520000419200003e
:1052240001960000c056000080570000419700001e
:1052340000550000c1950000819400004054000016
:10524400019c0000c05c0000805d0000419d0000e6
:10525400005f0000c19f0000819e0000405e0000ce
:10526400005a0000c19a0000819b0000405b0000ce
:1052740001990000c05900008058000041980000c6
:1052840001880000c04800008049000041890000f6
:10529400004b0000c18b0000818a0000404a0000de
:1052a400004e0000c18e0000818f0000404f0000be
:1052b400018d0000c04d0000804c0000418c0000b6
:1052c40000440000c18400008185000040450000c6
:1052d40001870000c04700008046000041860000ae
:1052e40001820000c04200008043000041830000ae
:1052f40000410000c18100008180000040400000a6
:10530400010200000408000010200000408000009a
:10531400010000000200000004000000080000007a
:105324001000000020000000400000008000000089
:10533400000100000002000000040000000800005a
:105344000010000000200000004000000080000069
:020000040000fa
:105354000000fa00600f21008040eb000148780053
:105364000080fa00000006000000fa00701021001e
:105374008040eb0001487800801021008040eb0061
:1053840001487800c01220000100200050888800e5
:105394006188880040062000010020007088880091
:1053a40081888800a00020000100200090888800e7
:1053b400a1888800e001200001002000b088880056
:1053c400c1888800a01121008040eb0001487800ca
:1053d400b01121008040eb0001487800c012200089
:1053e40001002000e0888800f18888000012210074
:1053f400a1c0b300014878001012210041c1b300dc
:1054040001487800e01221008040eb000148780058
:10541400f01221008040eb00014878004870ef0052
:105424004970ef000080fa00000006000000fa0056
:105434007886a9007866a9000080fa0000000600ba
:105444000000fa0070102100104078000004e00011
:10545400060032007010210010407800e14f500027
:10546400020032000000eb004c00370080102100e5
:10547400104078000004e000020032000000eb005d
:10548400460037007288800083888000803e2000b8
:1054940001002000800f5100818f59000200360066
:1054a4000000eb003d00370092888000a388800054
:1054b4008007200001002000800f5100818f5900d7
:1054c400020036000000eb003400370092888000b0
:1054d400a3888000b0888000c1888000800f5100bc
:1054e400818f5900020036000000eb002b003700ca
:1054f400a0112100104078000004e00006003200f2
:10550400a011210010407800e14f50000200320049
:105514000000eb0021003700b0112100104078009a
:105524000004e000020032000000eb001b00370022
:10553400e2888000f38880009000200001002000b1
:10554400800f5100818f590002003e000000eb00e3
:105554001200370090888000a188800080007800c5
:10556400401f20000088b90000007800608b88008c
:105574005088800061888000a20020000300200081
:10558400eefd070080007800401f20000088b9006d
:1055940000007800808b8800100020000080fa0052
:1055a400000006000000fa00f00f2100104078000f
:1055b4000004e00006003200f00f210010407800e3
:1055c400e14f5000020032000000eb000b003700f6
:1055d400e00f2100104078000004e00006003200d3
:1055e400e00f210010407800e14f5000020032002b
:1055f4000000eb0001003700100020000080fa00da
:10560400000006000c00fa00889fbe00600f210015
:10561400104078000080fb00cf80de00c200200034
:1056240003002000820f5000838f580017043e00af
:10563400006001000c0037001b0037008f003700aa
:1056440064023700b90237000e0337006f033700d6
:105654000e04370003043700700337000b043700cf
:1056640000043700ff033700600f210011c0b300ae
:105674000148780040c0b300ca0f070050c0b3000f
:10568400c80f070060c0b300c60f070070c0b300a6
:10569400c40f070080c0b300c20f07002870ef00da
:1056a4002970ef00fe03370060ff0700e0122100bd
:1056b4008040eb0001487800f01221008040eb00ac
:1056c400014878007010210010407800e14f50002c
:1056d4000c003a0010c0b30028f0b700800f21007e
:1056e4008040eb00014878002a30ef002c30ef00b6
:1056f4002e30ef003030ef00600f210021c0b300e6
:1057040001487800a011210010407800e14f5000ba
:1057140009003a0010c0b30029f0b7003230ef009e
:105724003430ef0080c0b3008f0f0700600f2100fa
:1057340021c0b30001487800018880000080200067
:10574400008060000000e0000500320037ff070021
:10575400600f210011c0b3000148780043003700f6
:105764000188800000202000008060000000e0002c
:105774000b00320032ff0700e10f500004003a0032
:10578400600f210061c0b300014878003700370082
:10579400600f210081c0b300014878003300370056
:1057a4000188800000402000008060000000e000cc
:1057b4002e0032007bff07000000e00004003a00e6
:1057c400600f210081c0b300014878002700370032
:1057d400f00f2100104078000004e00010003a00af
:1057e40012ff0700e00f210010407800e14f500045
:1057f40004003a00e012210011c0b300014878000f
:1058040003003700e01221008040eb0001487800db
:10581400600f210031c0b300014878001300370045
:10582400f00f210010407800e14f50000f003a00c3
:10583400fefe0700e00f210010407800e14f500009
:1058440004003a00f012210011c0b30001487800ae
:1058540003003700f01221008040eb00014878007b
:10586400600f210041c0b3000148780010102100ee
:105874008040eb00014878008903370028d0bf003e
:10588400e14f500048013a00780e07000004e000a0
:1058940021003a00e5fe070040c0b300410f0700b5
:1058a40050c0b3003f0f070060c0b3003d0f0700b6
:1058b40070c0b3003b0f070080c0b300390f07006e
:1058c400a011210010407800e14f500002003a007e
:1058d40080c0b300240f0700e01221008040eb00d9
:1058e40001487800f01221008040eb000148780064
:1058f4003230ef003430ef002a30ef002c30ef006c
:105904002e30ef003030ef00600f210091c0b30063
:10591400014878005e013700728880008388800027
:10592400803e200001002000800f5100818f59002b
:1059340009003a00e012210011c0b30001487800c8
:105944007886a800f012210011c0b3000148780045
:105954007866a8004e013700708880008188800036
:10596400e00f5000e08f580009003a00e0122100d7
:105974008040eb00014878007886a900f0122100ed
:105984008040eb00014878007866a90040013700a8
:1059940060102100104078000080fb00e10f5000ef
:1059a40086003200e20f5000f30032000000e000f5
:1059b40028013a00800f2100104078000004e00024
:1059c40004003200800f210010407800e14f5000a5
:1059d40016003a0060c0b300f20e070070c0b300b6
:1059e400f00e070060c0b300df0e070070c0b30004
:1059f400dd0e07002e30ef003030ef00e012210002
:105a040011c0b300014878007886a800f012210084
:105a140011c0b300014878007866a800800f210007
:105a240021c0b3000148780019013700800f21001c
:105a340010407800e24f500008013a0060c0b30003
:105a4400f90e0700e14f40000a003a0060c0b300bd
:105a5400d40e0700e01221008040eb0001487800da
:105a64007886a900f01221008040eb0001487800fc
:105a74007866a90070c0b300eb0e0700e14f400048
:105a8400f8003a007081800081818000610040004c
:105a9400e0804800708188008181880070c0b30074
:105aa400c00e070070c0b300af0e07007081800005
:105ab400818180000001be00b0818000c18180002e
:105ac400800f5100818f5900e8003a0080102100b6
:105ad4001040780068014700e40047000203070013
:105ae400e10f50002f003a002e009000be009000fd
:105af40010898800218988002e009000be00900043
:105b040050898800618988004e009000de00900072
:105b140030898800418988001289800023898000a7
:105b240030898000418980007888800089888000dd
:105b3400e4032100841f7800a703210066032100e9
:105b44000202be000001be000800be0004030700fc
:105b54008f87e900d0818000e18180008000780097
:105b6400401f20000088b90000007800808b880066
:105b740060c0b3007c0e07002e30ef003030ef0021
:105b8400e012210011c0b300014878007886a80013
:105b9400f012210011c0b300014878007866a80013
:105ba400bb00370070c0b3007e0e0700600f2100f9
:105bb400b1c0b30001487800b5003700b088800058
:105bc400c1888000e00f5000e08f580009003a00bf
:105bd400e012210011c0b300014878007886a800c3
:105be400f012210011c0b300014878007866a800c3
:105bf400a700370090888000a1888000e00f500043
:105c0400e08f580009003a00e01221008040eb00c8
:105c1400014878007886a900f01221008040eb004a
:105c2400014878007866a90099003700800f2100a8
:105c3400104078000004e00004003200800f2100ce
:105c440010407800e24f500016003a0040c0b30004
:105c5400540e070050c0b300520e070040c0b300fa
:105c6400410e070050c0b3003f0e07002a30ef007a
:105c74002c30ef00e012210011c0b300014878007d
:105c84007886a800f012210011c0b3000148780002
:105c94007866a800800f210011c0b3000148780085
:105ca4007b003700800f210010407800e14f500046
:105cb40070003a0040c0b3005b0e0700e14f4000a3
:105cc4000a003a0040c0b300360e0700e01221007b
:105cd4008040eb00014878007886a900f01221008a
:105ce4008040eb00014878007866a90050c0b300fa
:105cf4004d0e0700e14f400060003a0050818000e3
:105d04006181800061004000e0804800508188008b
:105d14006181880050c0b300220e070050c0b30058
:105d2400110e070050818000618180000001be00d7
:105d3400b0888000c1888000800f5100818f590095
:105d440050003a0040c0b300070e07002a30ef00ad
:105d54002c30ef00e012210011c0b300014878009c
:105d64007886a800f012210011c0b3000148780021
:105d74007866a80046003700acfd07002870ef00e5
:105d840029d0bf00e14f500040003a003230ef000c
:105d94003430ef0080c0b300020e070080c0b300af
:105da400f10d07003a00370029d0bf00e14f500041
:105db40037003a0080c0b3001b0e0700e14f4000db
:105dc40033003a0090818000a1818000610040008e
:105dd400e080480090818800a181880080c0b300e1
:105de400f00d070080c0b300df0d07009081800034
:105df400a18180000001be00e0888000f18880005d
:105e0400800f5100818f590021003a003230ef0099
:105e14003430ef00b0112100104078008e0078007b
:105e240022020700e10f500004003a001e00be00e9
:105e340050898800618988001500370080c0b3004c
:105e4400d80d0700600f2100c1c0b30001487800dd
:105e54000f003700000000000d00370000000000b4
:105e64000b003700000000000900370000000000ac
:105e740007003700000000000500370000000000a4
:105e8400030037000000000001003700000000009c
:105e94000188800000802000008060000000e00095
:105ea4000500320061fd0700600f210011c0b3003e
:105eb400014878004300370001888000002020005a
:105ec400008060000000e0000b0032005cfd070071
:105ed400e10f500004003a00600f210061c0b300dc
:105ee4000148780037003700600f210081c0b300fb
:105ef400014878003300370001888000004020000a
:105f0400008060000000e0002e003200a5fd0700c4
:105f14000000e00004003a00600f210081c0b300db
:105f24000148780027003700f00f21001040780066
:105f34000004e00010003a003cfd0700e00f2100df
:105f440010407800e14f500004003a00e0122100b4
:105f540011c0b3000148780003003700e0122100ab
:105f64008040eb0001487800600f210031c0b3008d
:105f74000148780013003700f00f2100104078002a
:105f8400e14f50000f003a0028fd0700e00f210008
:105f940010407800e14f500004003a00f012210054
:105fa40011c0b3000148780003003700f01221004b
:105fb4008040eb0001487800600f210041c0b3002d
:105fc40001487800101021008040eb00014878005f
:105fd400b3013700e012210010407800e14f500077
:105fe40002003a007886a80004003700600f210000
:105ff40011c0b300014878007886a90001888000a8
:1060040000802000008060000000e00005003200f5
:1060140006fd0700600f210011c0b300014878009d
:106024003e003700018880000020200000806000ce
:106034000000e0000b00320001fd0700e10f5000fa
:1060440004003a00600f210061c0b30001487800e9
:1060540032003700600f210081c0b300014878008e
:106064002e0037000188800000402000008060007e
:106074000000e000290032004afd07000000e000b3
:1060840004003a00600f210081c0b3000148780089
:1060940022003700f00f2100104078000004e000d7
:1060a4000c003a00e00f210010407800e14f50004e
:1060b40004003a00e012210011c0b3000148780046
:1060c40016003700e01221008040eb000148780000
:1060d40012003700f00f210010407800e14f50000b
:1060e4000e003a00e00f210010407800e14f50000c
:1060f40004003a00f012210011c0b30001487800f6
:1061040003003700f01221008040eb0001487800c2
:10611400600f210051c0b300014878001010210025
:106124008040eb00014878005d013700f012210047
:1061340010407800e14f500002003a007866a80051
:1061440004003700600f210011c0b300014878003b
:106154007866a9000188800000802000008060002b
:106164000000e00005003200b0fc0700600f2100d1
:1061740011c0b300014878003e0037000188800058
:1061840000202000008060000000e0000b003200ce
:10619400abfc0700e10f500004003a00600f21003f
:1061a40061c0b3000148780032003700600f21005d
:1061b40081c0b300014878002e00370001888000b8
:1061c40000402000008060000000e0002900320050
:1061d400f4fc07000000e00004003a00600f210016
:1061e40081c0b3000148780022003700f00f21007d
:1061f400104078000004e0000f003a00e00f210096
:1062040010407800e14f500004003a00e0122100f1
:1062140011c0b3000148780003003700e0122100e8
:106224008040eb0001487800600f210051c0b300aa
:10623400014878000f003700f00f2100104078006b
:10624400e14f50000b003a00e00f210010407800ad
:10625400e14f500004003a00f012210011c0b300d5
:106264000148780003003700f01221008040eb0061
:1062740001487800101021008040eb0001487800ac
:1062840007013700f012210010407800e14f500060
:1062940002003a007866a800010037007866a90079
:1062a400e012210010407800e14f500002003a0053
:1062b4007886a800010037007886a900f012210032
:1062c400104078000004e00007003a00e0122100ca
:1062d400104078000004e00003003a00600f210041
:1062e40011c0b300014878000188800000802000bc
:1062f400008060000000e000050032004bfc070055
:10630400600f210011c0b300014878003b00370042
:106314000188800000202000008060000000e00070
:106324000b00320046fc0700e10f500004003a0065
:10633400600f210061c0b300014878002f003700ce
:10634400600f210081c0b300014878002b003700a2
:106354000188800000402000008060000000e00010
:10636400260032008ffc07000000e00004003a0021
:10637400600f210081c0b300014878001f0037007e
:10638400f00f2100104078000004e0000c003a00f7
:10639400e00f210010407800e14f500004003a0063
:1063a400e012210011c0b300014878001300370047
:1063b400e01221008040eb00014878000f00370014
:1063c400f00f210010407800e14f50000b003a001c
:1063d400e00f210010407800e14f500004003a0023
:1063e400f012210011c0b300014878000300370007
:1063f400f01221008040eb000148780010102100c9
:106404008040eb0001487800a5003700600f2100b0
:1064140011c0b30001487800a1003700930b0700b6
:10642400e14f500007003a0080c0b3005d0c070044
:106434003230ef003430ef00600f210011c0b300a0
:1064440001487800a011210010407800e14f50006d
:1064540027003a0080c0b300730c0700e14f4000ee
:1064640023003a0090818000a181800061004000f7
:10647400e080480090818800a181880080c0b3003a
:10648400480c070080c0b300370c070090818000df
:10649400a18180000001be00e0888000f1888000b6
:1064a400800f5100818f590011003a003230ef0003
:1064b4003430ef00b0112100104078008e007800d5
:1064c4007a000700e10f500004003a001e00be00ed
:1064d40050898800618988000500370080c0b300b6
:1064e400300c0700600f2100c1c0b30001487800e0
:1064f4000188800000802000008060000000e0002f
:106504000900320080c0b300260c07003230ef00cf
:106514003430ef00c5fb0700600f210011c0b30049
:10652400014878004b0037000188800000202000db
:10653400008060000000e0000f00320080c0b30063
:10654400180c07003230ef003430ef00bcfb0700ba
:10655400e10f500004003a00600f210061c0b30055
:10656400014878003b003700600f210081c0b30070
:10657400014878003700370001888000004020007f
:10658400008060000000e0003200320080c0b300f0
:10659400040c07003230ef003430ef0001fc070038
:1065a4000000e00004003a00600f210081c0b30045
:1065b4000148780027003700f00f210010407800d0
:1065c4000004e00010003a0098fb0700e00f2100ef
:1065d40010407800e14f500004003a00e01221001e
:1065e40011c0b3000148780003003700e012210015
:1065f4008040eb0001487800600f210031c0b300f7
:106604000148780013003700f00f21001040780093
:10661400e14f50000f003a0084fb0700e00f210017
:1066240010407800e14f500004003a00f0122100bd
:1066340011c0b3000148780003003700f0122100b4
:106644008040eb0001487800600f210041c0b30096
:1066540001487800101021008040eb0001487800c8
:106664000f00370071fb07000188800000802000c4
:10667400008060000000e00008003200600f21008c
:1066840011c0b3000148780005003700600f2100f5
:106694008040eb0001487800010037000000000052
:1066a4004f04be000080fa00000006000400fa0057
:1066b400004f7800110798001e80fb000000e000e6
:1066c40006003a001e019000700d20000100200019
:1066d4000089be0010002000010037000000eb001c
:1066e4000080fa00000006000600fa00004f78005f
:1066f40011079800220798001e80fb000000e000ac
:1067040014003a0048d0bf000004e00002003a0040
:1067140010c0b30048f0b70049d0bf000004e00047
:106724000a003a0050828000618280001e019000bd
:106734000089be0070828000818280002e0190005a
:106744000089be0010002000030037000000eb00a9
:10675400010037000000eb000080fa000000060092
:106764004000fa00889fbe00001f9800111f980087
:10677400221f9800331f9800441f9800551f98004b
:10678400661f9800771f98004e189000de1890003e
:10679400e1f8070002002000031224007af8070041
:1067a40000179800111798002e189000be1890003a
:1067b400d9f8070002002000a347240072f807005c
:1067c40020179800311798000e1890009e1890001a
:1067d400d1f8070002002000832c24006af8070087
:1067e400401798005117980018c0b3000200200009
:1067f400031224000e1090009e109000a4f80700cd
:106804000000e000010035000044eb000804e00053
:10681400040032000000200001f42300008fbe00b9
:106824001b00370018c0b30002002000031f24001f
:106834000e1090009e10900097f807000000e000f2
:1068440001003c000044eb000804e00004003200b6
:106854000000200001e82300008fbe000c00370078
:106864000e1190009e11900000002000011a2400d7
:10687400e7f70700d2cc2c00c3cc2300fbf80700b9
:106884000200200003f02300e2f70700008fbe009f
:1068940018c0b300d2cc2c00c3ec23002e109000ff
:1068a400be1090007af807000000e00001003500f7
:1068b4000044eb000804e000050032000000200062
:1068c40001e82300200798003107980021003700d1
:1068d40018c0b300d2cc2c00c3f423002e109000b7
:1068e400be1090006cf807000000e00001003c00be
:1068f4000044eb000804e000050032000000200022
:1069040001f4230020079800310798001100370094
:106914002e119000be119000a099290091f123003e
:10692400bbf7070002002000030a2400cff8070089
:10693400020020000308240013f807000001be0031
:106944000000200001f02300b1f7070020079800a1
:10695400310798002e019000be0190001e00be0079
:10696400acf7070002002000031f2400bff8070053
:106974004bf807006e1990000089be0018c0b300e0
:1069840002002000031224000e1090009e109000bc
:106994003ff807000000e000010035000044eb0070
:1069a4000804e000050032000000200001f023008c
:1069b40040079800510798001d00370018c0b30025
:1069c40002002000031f24000e1090009e1090006f
:1069d40031f807000000e00001003c000044eb0037
:1069e4000804e000050032000000200001fc230040
:1069f40040079800510798000d003700020020005e
:106a0400031224000e1090009e10900080f70700df
:106a140002002000031a2400dbf707000200200014
:106a240003f023007bf70700400798005107980004
:106a340018c0b300d2cc2c00c3ec23002e1090005d
:106a4400be10900012f807000000e00001003500bd
:106a54000044eb000804e00005003200a09929007e
:106a640091f1230060079800710798001700370020
:106a740018c0b300d2cc2c00c3f423002e10900015
:106a8400be10900004f807000000e00001003c0084
:106a94000044eb000804e00005003200d0cc2c00d8
:106aa400c1e42300600798007107980007003700cd
:106ab4002e119000be1190000000200001f8230068
:106ac40053f70700600798007107980018c0b300d7
:106ad40002002000031f24000e1090009e1090005e
:106ae400ebf707000000e000010035000044eb0074
:106af4000804e000050032000000200001e8230043
:106b0400000f9800110f98001d00370018c0b30043
:106b140002002000032224000e1090009e1090001a
:106b2400ddf707000000e00001003c000044eb003a
:106b34000804e000050032000000200001f02300fa
:106b4400000f9800110f98000d003700020020007c
:106b5400031f24000e1090009e1090002cf70700d5
:106b6400020020000322240087f70700020020000f
:106b740003e8230027f70700000f9800110f98007f
:106b840018c0b300d2cc2c00c3e423002e10900014
:106b9400be109000bef707000000e00001003500c1
:106ba4000044eb000804e00005003200000020006f
:106bb40001f42300200f9800310f98001d003700c6
:106bc40018c0b300d2cc2c00c3ec23002e109000cc
:106bd400be109000b0f707000000e00001003c0088
:106be4000044eb000804e00005003200000020002f
:106bf40001e82300200f9800310f98000d003700a2
:106c04002e119000be119000d0cc2c00c1ec2300ba
:106c1400fff60700020020000302240013f8070017
:106c24000200200003e82300faf60700200f980072
:106c3400310f98002e099000be0990000e089000b4
:106c44009e089000f3f607006017980071179800eb
:106c540018c0b30002002000031f24000e1090008f
:106c64009e1090008af707000000e0000100350044
:106c74000044eb000804e000040032006000b800a7
:106c8400400f9800510f98001d00370018c0b30042
:106c940002002000032224000e1090009e10900099
:106ca4007df707000000e00001003c000044eb0019
:106cb4000804e000050032006066260061ee23004f
:106cc400400f9800510f98000d003700020020007b
:106cd400031f24000e1090009e109000ccf60700b5
:106ce4000200200003092400e0f70700020020004e
:106cf400832c240024f70700400f9800510f9800bc
:106d040018c0b300d2cc2c00c3e423002e10900092
:106d1400be1090005ef707000000e000010035009f
:106d24000044eb000804e000050032006066260021
:106d340061ee2300600f9800710f9800190037006e
:106d440018c0b3000200200003f023002e109000ae
:106d5400be10900050f707000000e00001003c0066
:106d64000044eb000804e000040032006000b800b6
:106d7400600f9800710f98000a0037002e119000e0
:106d8400be1190000000200001f02300a0f60700cf
:106d94000200200003fc2300b4f70700600f9800f2
:106da400710f98006e1890001000be005af707008b
:106db4004e019000de019000acf707006e019000d8
:106dc400fe019000a9f707006e119000fe119000db
:106dd400a6f707004e119000de119000a3f70700fc
:106de4002ff707007e1990000089be007e189000de
:106df4001001be006e1890001000be00800f5100fc
:106e0400818f5900040036006e1890001000be00f7
:106e14007e1990000089be007e1890001000be000c
:106e24003df707000004be00d2cc2c00c3dc2300d5
:106e34004e089000de08900076f607006e09900078
:106e4400fe09900073f607000001be000800be00b2
:106e540086f7070012f707004eb997000089be00b5
:106e64004f04be000080fa00000006000000fa0093
:106e7400a13d800000fc2f0000806000f000b30002
:106e8400a03d8800113f800000f82f0000806000c2
:106e94003000b300103f880020022000001d88004d
:106ea40080002000c01c88009a23ef0099e3a8000a
:106eb4009be3a9009ba3a8009b43a8008960a900a9
:106ec4008980a9009960a8007a06a900c00621005b
:106ed40008000700e00a21000600070020a923009b
:106ee4008087880020c82300908788000080fa00eb
:106ef400000006000200fa00000f78001e0078006f
:106f0400c20320008000eb00f6f707001e007800a3
:106f14008040eb0001c098001e0078008040eb0028
:106f2400617898001e0078008040eb00517898004a
:106f34001e0078008040eb00417898001e00780025
:106f44008040eb00717898000080fa000000060091
:106f54000200fa00000f78001e0078008040eb0069
:106f640001c098001e0078008040eb006178980012
:106f74001e0078008040eb00517898001e007800d5
:106f84008040eb00417898001e0078008040eb00c0
:106f9400717898000080fa00000006000200fa00f0
:106fa400004f7800c00a2100104078007040600053
:106fb4000004e000af003a00a00a2100104078006d
:106fc4000080fb00e20f500029003200e20f500065
:106fd40005003c000000e0000a003200e10f500010
:106fe4001200320099003700e40f500064003200b0
:106ff400e40f500039003500e50f500070003200f6
:10700400920037001e407800e24f500092003a0090
:107014009e407800c006210098000700a00a2100c5
:1070240011c0b30001487800920037009e407800f8
:10703400c00621009100070000ceb3001e404000ae
:107044006af0b7006ad0bf00a10007000004e000a6
:1070540003003a00c0062100bdff07008500370089
:10706400a00a210021c0b300014878008100370044
:107074009e407800c00621008000070080c2b30053
:107084009e40780080cf500004003600c0c5b30095
:107094009e40780080cf500003003600c0062100d7
:1070a400abff07007300370000ceb3009e404000e2
:1070b400800a210001487800800a210010407800ed
:1070c400e5405000800a210001487800a00a210010
:1070d40031c0b3000148780066003700b00a2100cf
:1070e400104078000004e0001200320000c3b30036
:1070f4009e40780080cf50000a00320020c3b300c5
:107104009e40780080cf50000600320030c3b300a8
:107114009e40780080cf500002003200c00621005b
:107124008bff0700b00a21008040eb000148780083
:10713400060037001e407800fb4f500003003a0061
:10714400b00a210011c0b300014878009e407800c5
:10715400c006210049000700900a210090407800f1
:10716400800a21001040780080cf50003c003a0093
:10717400a00a210041c0b300014878003d00370057
:107184009e407800c00621003c000700900a2100c0
:10719400104078008080fb00800a210010407800b5
:1071a4000080fb0064004000808f50002e003a00f5
:1071b400a00a210051c0b300014878002d00370017
:1071c4001e407800e34f500004003a00c00621003e
:1071d400550007000004e00003003a00c006210047
:1071e4005bff0700230037009e407800c0062100a3
:1071f40022000700800a210010407800e34050007c
:10720400800a210001487800a106210091407800fd
:1072140042d0bf0080cf500003003a006085800058
:107224000030a000608588007d000700c00a2100ae
:1072340010407800684060000004e0000c003a0050
:10724400c006210042ff07000a003700c0062100e3
:107254003fff07000700370000000000050037006b
:1072640000000000030037000000000001003700a8
:10727400000000000080fa00000006000400fa008c
:10728400000f7800214798001e0078005078900085
:107294008080fb001e017800ae41900003f178006d
:1072a4008040e8001e007800517898001e007800a5
:1072b400d0789000b0c3b30080cf500002003600f5
:1072c4001e00780022ff07000080fa00000006007c
:1072d4000200fa00004f78001e4078000004e0002d
:1072e4000400320010c3b3009e40780080cf5000e9
:1072f4000800360040c6b3009e40780080cf50009e
:107304000600360050c9b3009e40780080cf50007c
:1073140002003e0010c0b300010037000040eb0043
:107324000080fa00000006000600fa00200798001a
:107334002e009000407890008080fb002e0090008a
:107344000001eb0072020700000f78002e0090008d
:10735400507890000080fb0064005000ae00900064
:10736400614078000080fb000002b1004c00dd00a9
:10737400100798002e009000507890000080fb00c9
:1073840063005000ae009000614078000080fb0074
:107394000002b1004800dd009e0090000100700072
:1073a400100798002e009000507890000080fb0099
:1073b4000080e900ae009000614078000080fb008e
:1073c4000002b1004400dd009e0090000100700046
:1073d400100798002e009000507890000080fb0069
:1073e4000000e900ae009000614078000080fb00de
:1073f4000002b1009e009000010070001007980088
:107404001e0090009e0f500002003a0010c0b3000e
:10741400010037000040eb000080fa000000060085
:107424000600fa00f0062100100798000040eb0067
:10743400104798009e409000014f78002b003700c1
:107444001e80fb009e009000008040009040780069
:10745400414798001e4fe8004e409000fb4f5000fb
:1074640019003a001e80fb009e009000008040003e
:107474009040780000cdb30000c040004047980021
:107484001e4fe8004e4090000004e00007003a0060
:107494001e4090000080fb009e0090000080400091
:1074a400b1c1b300014878000d0037001e409000c0
:1074b4000080fb009e00900000804000ce409000c1
:1074c40001487800060037001e4090000080fb0051
:1074d4009e00900000804000ce409000014878005b
:1074e4001e4090000040e80010479800800a2100e8
:1074f400104078009e4f5000d1ff3e00800a2100ca
:10750400904078001e4090001e40500080c0400013
:10751400800a2100014878000080fa00000006007b
:107524000800fa0020079800614798000040eb002b
:10753400004f78001e4078008080fb002e019000f0
:1075440023c0b30003f178000040e800004f780046
:107554001e4078008080fb00ee41900042c8b300da
:1075640082c141002e01900003f178000040e80040
:10757400004f78001e4078000040e800004f78007b
:107584000010210010407800804078002e00900008
:10759400014178008e007800a9010700600f2100e6
:1075a40010407800804078002e009000014178005f
:1075b4008e007800a2010700900f2100104078008f
:1075c400804078002e009000014178008e00780001
:1075d4009b0107002e0090000041eb008e00780014
:1075e400970107002e00900012c0b3008e007800af
:1075f400930107002e00900032c0b3008e00780083
:107604008f01070010898000218980008040780064
:107614002e009000014178008e0078008801070058
:10762400128980002389800000f02f0001002000cf
:1076340002027800030178008001780001007800dc
:1076440003026200000061008000eb00c000dd0066
:10765400000020000001be006120b800000171009c
:1076640081817100481add004810de0000007200bc
:10767400c818de00804078002e0090000141780098
:107684008e0078006e0107003089800041898000f7
:10769400804078002e009000014178008e00780030
:1076a40067010700328980004389800000f02f00c1
:1076b40001002000020278000301780080017800b4
:1076c4000100780003026200000061008000eb000a
:1076d400c000dd00000020000001be006120b800f1
:1076e4000001710081817100481add004810de003c
:1076f40000007200c818de00804078002e00900060
:10770400014178008e0078004d0107005089800007
:1077140061898000804078002e009000014178004b
:107724008e0078004601070052898000638980003a
:1077340000f02f000100200002027800030178000d
:1077440080017800010078000302620000006100fb
:107754008000eb00c000dd00000020000001be003e
:107764006120b8000001710081817100481add00b8
:107774004810de0000007200c818de008040780067
:107784002e009000014178008e0078002c01070043
:10779400e012210010407800804078002e00900014
:1077a400014178008e00780025010700f0122100c5
:1077b40010407800804078002e009000014178004d
:1077c4008e0078001e0107001e40780052c2b300ec
:1077d400824040002e009000214098001e40780016
:1077e400e54040002e009000417898001e4078004b
:1077f4008080fb002e0090000001eb004401070094
:10780400f10f2000810060001e4190006041610082
:1078140081407100114798004800de00ae4090009e
:10782400e0c0600000c07000204798001e4078004f
:107834008080fb002e4190000281fb004411de0099
:107844000241780004c2b300844141002e0190003b
:1078540003f178000040e800004f78001e407800f3
:107864008080fb002e4190006f41610004c2b30090
:10787400844141002e01900003f178000040e800ab
:10788400004f78001e4078008080fb001e4190006d
:107894000281fb004411de000241780004c2b300ff
:1078a400844141002e01900003f178000040e8007b
:1078b400004f78001e4078008080fb001e4190003d
:1078c4006f41610004c2b300844141002e01900065
:1078d40003f178000040e800004f78001e40780073
:1078e4008080fb002e01900033c0b30003f17800c8
:1078f4000040e800004f78000080fa000000060015
:107904000c00fa0040079800214f980030c0b300e3
:10791400004f78001e80fb00ce009000e14078000c
:1079240000102100014878001e4fe8001e80fb0073
:10793400ce009000e140780010102100014878004a
:107944001e4fe80000102100104078000080fb006a
:10795400f30f50000b003200f40f5000a700320068
:10796400e10f5000b3003a001e80fb00ce009000ef
:10797400e140780060102100014878001e4fe800c3
:10798400ad0037001e80fb00ce009000e14078007f
:1079940070102100014878001e4fe8001e80fb0093
:1079a400ce009000e140780080102100014878006a
:1079b4001e4fe8001e80fb00ce009000614078005e
:1079c400104798001e4fe8001e80fb00ce00900078
:1079d40061407800204798001e4fe8001e40900048
:1079e4000080fb00ae4090008180fb00c808dd00f1
:1079f40001007000cf80de00508888006188880014
:107a04001e80fb00ce009000614078001047980073
:107a14001e4fe8001e80fb00ce00900061407800fd
:107a2400204798001e4fe8001e4090000080fb0095
:107a3400ae4090008180fb00c808dd0001007000aa
:107a4400cf80de0070888800818888001e80fb005b
:107a5400ce00900061407800104798001e4fe80067
:107a64001e80fb00ce009000614078002047980003
:107a74001e4fe8001e4090000080fb00ae409000c6
:107a84008180fb00c808dd0001007000cf80de00ab
:107a940090888800a18888001e80fb00ce0090009a
:107aa40061407800104798001e4fe8001e80fb00dc
:107ab400ce00900061407800204798001e4fe800f7
:107ac4001e4090000080fb00ae4090008180fb00cf
:107ad400c808dd0001007000cf80de00b088880097
:107ae400c18888001e80fb00ce009000e140780031
:107af400a0112100014878001e4fe8001e80fb0001
:107b0400ce009000e1407800b011210001487800d7
:107b14001e4fe8001e80fb00ce00900061407800fc
:107b2400104798001e4fe8001e80fb00ce00900016
:107b340061407800204798001e4fe8001e409000e6
:107b44000080fb00ae4090008180fb00c808dd008f
:107b540001007000cf80de00e0888800f188880092
:107b64001e80fb00ce009000614078001047980012
:107b74001e4fe8001e80fb00ce009000614078009c
:107b8400204798001e4fe8001e4090000080fb0034
:107b9400ae4090008180fb00c808dd000100700049
:107ba4008040780000122100014878001e80fb000c
:107bb400ce00900061407800104798001e4fe80006
:107bc4001e80fb00ce0090006140780020479800a2
:107bd4001e4fe8001e4090000080fb00ae40900065
:107be4008180fb00c808dd0001007000804078003f
:107bf40010122100014878000f0037001e80fb009e
:107c0400ce009000e1407800f00f21000148780098
:107c14001e4fe8001e80fb00ce009000e14078007b
:107c2400e00f2100014878001e4fe800000000002a
:107c340001003700000000000080fa000000060088
:107c44000800fa001007980021079800624798007e
:107c54002e009000104f78006e409000e24f5000cc
:107c6400030032006e409000e34f50000e003a00d3
:107c74001e80fb009e00900000804000b1c1b30054
:107c8400014878001e4fe8001e80fb009e00900013
:107c940000804000ee4090000143b00001487800ad
:107ca4001e4fe800160037006e409000fb4f500056
:107cb4000d003a001e80fb009e00900000804000f2
:107cc400b1c1b300014878001e4fe8001e80fb00dc
:107cd4009e0090000080400001c3b300014878007a
:107ce4001e4fe800060037001e80fb009e00900037
:107cf40000804000ee409000014878001e4fe800ec
:107d04002e0090001e4878000080fa000000060053
:107d14000c00fa00300798004107980052079800b9
:107d24006000b800008fbe00180037003e009000cd
:107d3400104078008080fb005e0090008080680026
:107d4400f00f200000806000200798005e00900083
:107d5400c800de002e0090000001400020782a00b8
:107d6400000041001000780000806800500798006f
:107d74003e0090000000e800300798001200200048
:107d8400030020001e0f41005e9749004e00900042
:107d94008000eb00be0f5000ae8f5800e3ff3e00a2
:107da4005e0090000080fa00000006000000fa0067
:107db40004000700220007004c0007000080fa00be
:107dc400000006000000fa00c00a210010407800fc
:107dd400684060000004e0001700320010c0b300e7
:107de400110607000004e00003003a0010c0b300cd
:107df400dd0507001000370010c0b3000a060700b5
:107e0400e14f40000c003a009287800042d0bf004e
:107e140080407800c006210002000100c006210055
:107e240034fc0700608580000020a0006085880085
:107e340010c0b300db0507000080fa000000060054
:107e44000000fa00c00a210010407800644060007d
:107e54000004e00018003200e00e21001040780019
:107e64000042b2000004e00013003a006185800083
:107e7400b0ff2f000080600060858800e00a2100c8
:107e84001cfc07008287800042d0bf00804078003d
:107e9400e00a210002000100708780000010a000a9
:107ea4007087880020c0b300af05070030c0b3005e
:107eb400bc0507000b003700c00a21001040780001
:107ec400644060000004e00006003a0020c0b300f3
:107ed400d50507000004e00002003a0020c0b3000a
:107ee400a10507000080fa00000006000000fa0067
:107ef400e00e210010407800624060000004e000c1
:107f040025003200e00e2100104078000042b2004b
:107f14000004e0001d003a00a00e2100904078000b
:107f2400c0c3b30080cf50001a003e007a06a800f8
:107f34008980a9009980a800708780000050a00063
:107f44007087880000000000d11c80000010200011
:107f5400008060000000e000fbff3200b00e210052
:107f6400104078000081fb00e10a210081004100fb
:107f7400914078008180fb00e11c88008040e8008b
:107f8400b00e210001487800030037000000000013
:107f940001003700000000000080fa000000060025
:107fa4000000fa0020002100e117210011009800d0
:107fb40020002100e11721000108780020002100a1
:107fc400a00090000110a0002100980020002100d2
:107fd40020019000e1ff2f00810061002100980042
:107fe400200021008040eb00614098002001200027
:107ff400c024880000002800d02488009e24ef00bc
:108004008a20a9009a20a8007826a800400420000d
:10801400908288000080fa00000006000200fa0046
:1080240020002100e0409000014f78001e407800bd
:108034000080fa00000006000000fa007080800052
:1080440066004000708088000cd0bf000040e9004a
:108054000cf0b7000cd0bf000004e00003003a00ad
:1080640040002000508088000200370010002000eb
:10807400508088000080fa00000006000200fa0028
:10808400000f78009a44a8008080800020009000af
:108094000000e00003003200808080002000900097
:1080a4001e0878000a30ef000080fa000000060085
:1080b4000800fa00000f7800214798002207980072
:1080c4003307980020002100200090006100600028
:1080d4000000e0000a003a00ae0190002e4190003a
:1080e4009e007800a0182100780007003e0190004f
:1080f400a118210010c0b3001f00070003003700bf
:108104003e0090008000eb00010878000080fa0037
:10811400000006000800fa00000f780021479800cc
:1081240022079800330798002000210020009000c7
:10813400610060000000e0000a003a00ae01900017
:108144002e4190009e00780040182100470007004f
:108154003e0190004118210010c0b3000600070042
:10816400030037003e0090008000eb000108780017
:108174000080fa00000006000600fa00004f7800b4
:108184001107980022079800200021002000900089
:10819400610060000000e0002f003a002e00900013
:1081a4001100200001087800200021001000780050
:1081b4009e0090001100980020002100100078001b
:1081c4001e4878002000210010007800ae009000c6
:1081d400210098002000210010007800e6004000f3
:1081e4002000210001087800200021009000780080
:1081f40040182100808f500003003a002000210025
:10820400e1172100010878002000210020019000de
:10821400d1ff2f008100610021009800200021007f
:10822400900090002000210010007800808f500002
:1082340004003a0020002100a00090000100a000ea
:1082440021009800508080000000e00005003a0002
:108254008a20a800030037002e0090008000eb0065
:10826400010878000080fa00000006000800fa0007
:10827400000f7800110798004247980033079800d0
:108284003e00900000004000800078001e0078004e
:10829400010878001e007800100078008000780043
:1082a4000100a0001e007800010878001e0078007c
:1082b400ce409000214098001e0078009e0090005f
:1082c400210098000080fa00000006000800fa006f
:1082d400000f780011079800424798003307980070
:1082e4003e00900000004000800078001e007800ee
:1082f400010878001e007800ce40900021409800cc
:108304001e0078009e009000210098000080fa0072
:10831400000006000000fa00200021002000900068
:108324000000d100614060000080fb0000f0a70065
:108334000000ea000000ea004f00de000040780080
:108344000080fa00000006000000fa00200021006e
:1083540020009000614060000080fb0000f0a70056
:108364000000ea000000ea004f00de000040780050
:108374000080fa00000006000800fa0030079800a8
:108384000000eb00000f78000000eb0010079800dd
:10839400b0c0b30083040700b0c0b3007204070088
:1083a40010002000200798001e00370090828000f3
:1083b400e4004700810178000001780021c0b30087
:1083c4003e0090003aff070009003700b0c0b30038
:1083d40095040700e14f400005003a00100020001a
:1083e40010079800b0c0b3006e0407000300370004
:1083f4002e009000e10f5000f4ff32001e009000a8
:10840400e10f50000c0032002e009000e20f5000eb
:10841400090032001e007800e50f5000050032000c
:108424001e0fe8002e0090000000e000dfff3a007d
:108434000100370000000000b0c0b3005904070079
:108444002e009000e20f50000200320010c0b30072
:10845400010037000040eb000080fa000000060035
:108464000a00fa0030079800014f98000000eb0062
:10847400000f78000000eb0010079800b0c0b300b4
:1084840048040700b0c0b300370407001000200000
:10849400200798001e00370090828000e400470007
:1084a40081017800000178008e4890003e00900021
:1084b40018ff070009003700b0c0b3005a040700d2
:1084c400e14f400005003a0010002000100798001a
:1084d400b0c0b30033040700030037002e0090003f
:1084e400e10f5000f4ff32001e009000e10f500035
:1084f4000c0032002e009000e20f50000900320000
:108504001e007800e50f5000050032001e0fe80041
:108514002e0090000000e000dfff3a000100370069
:1085240000000000b0c0b3001e0407002e0090003d
:10853400e20f50000200320010c0b3000100370007
:108544000040eb000080fa00000006000c00fa0076
:1085540014d0bf000080fb00cf80de002201200089
:1085640003002000820f5000838f58008f013e00cb
:108574000060010012003700190037002c0037009a
:1085840034003700540037007d0037009000370076
:1085940098003700c1003700c700370027013700b3
:1085a400d9003700e1003700fd00370037013700fc
:1085b4003f013700520137005a013700ef003700fe
:1085c4000040eb008c01070048d0bf00e14f500091
:1085d40078013a0010c0b30014f0b70084013700ea
:1085e40040c2b30040479800b0c0b3005047980061
:1085f4006400470060ff0700004f78001e407800c9
:108604000004e00005003a00a0c0b300d603070050
:1086140020c0b30014f0b7007501370010c0b300d8
:1086240049f0b70080c0b30014f0b7007001370000
:10863400a0c0b300fc030700e14f40005f013a0013
:10864400a0c0b300d703070030c0b30014f0b700d4
:10865400670137006600470061c0b30080ff070070
:10866400004f78001e407800e24f500005003200b1
:1086740010c0b30049f0b70080c0b30014f0b700d5
:108684005b0137006e4090000080fb00c800dd00f5
:108694007e4090000080fb0000804000b080880095
:1086a4008e489000114798001e4890000080fb00ff
:1086b400c800dd002e4890000080fb0000804000d0
:1086c400c0808800be4890002147980040c0b30095
:1086d40014f0b70046013700c1808000100020006c
:1086e400e18f4000010031000000eb008000eb004e
:1086f40006f1070002002000a34724005bf10700f5
:10870400e7f0070000007800d0808800b180800086
:1087140010002000e18f4000010031000000eb0058
:108724008000eb00f20a20000289b90002017800ff
:108734006002b9008401780003014100f30a2000bb
:108744000300b8000101410082007800eff0070047
:1087540002002000432324002df007000200200023
:108764000312240041f10700cdf007000000780057
:10877400e080880050c0b30014f0b7001c0137003b
:1087840030cfb30040479800d0c2b30050479800a0
:1087940064004700f8fe0700004f78001e40780090
:1087a4000004e00005003a00a0c0b3006e03070017
:1087b40060c0b30014f0b7000d01370010c0b3005f
:1087c40049f0b70080c0b30014f0b70008013700c7
:1087d400a0c0b30094030700e14f4000f9003a0041
:1087e400a0c0b3006f03070070c0b30014f0b7005b
:1087f400ff0037006600470031c0b30018ff0700d0
:10880400004f78001e407800e24f5000050032000f
:1088140010c0b30049f0b70080c0b30014f0b70033
:10882400f30037006e4090000080fb00c800dd00bc
:108834007e4090000080fb0000804000f0808800b3
:108844008e48900031479800f080800063006000fb
:108854000000e0000500320010c0b30049f0b7008a
:1088640080c0b30014f0b700e1003700d08080006e
:108874008000eb007082880081828800e0808000a4
:108884008000eb0050828800618288004970ef000c
:108894004870ef001470ef00d500370010c0b3002b
:1088a400d5000700e10f5000c8003a004870ef00ff
:1088b4001470ef00ce00370000c3b30040479800a7
:1088c400d0c6b3005047980064004700aafe0700d2
:1088d400004f78001e4078000004e00005003a00d4
:1088e400c0c0b30020030700b0c0b30014f0b70049
:1088f400bf00370010c0b30049f0b70080c0b30018
:1089040014f0b700ba003700c0c0b3004603070034
:10891400e14f4000af003a00c0c0b300210307009c
:10892400c0c0b30014f0b700b100370030cfb300bb
:1089340040479800d0c2b3005047980064004700f5
:108944008dfe0700004f78001e4078000004e00010
:1089540005003a00a0c0b3000303070020c1b30020
:1089640014f0b700a200370010c0b30049f0b700fc
:1089740080c0b30014f0b7009d003700a0c0b3005e
:1089840029030700e14f400094003a00a0c0b3005f
:1089940004030700d0c0b30014f0b70094003700fc
:1089a4006600470031c0b300adfe0700004f7800f9
:1089b4001e407800e24f50000500320010c0b300a2
:1089c40049f0b70080c0b30014f0b7008800370046
:1089d4006e4090000080fb00c800dd007e409000e7
:1089e4000080fb0000804000f08088008e489000ea
:1089f40031479800f0808000630060000000e000d0
:108a040005003a00f1808000000022000080600030
:108a14000000e00005003a0010c0b30049f0b700c0
:108a240080c0b30014f0b700710037004970ef0044
:108a3400a0c0b30014f0b7006d00370000c3b3004a
:108a44004047980060c6b300504798006400470050
:108a540049fe0700004f78001e4078000004e00043
:108a640005003a00a0c0b300bf020700e0c0b30095
:108a740014f0b7005e00370010c0b30049f0b7002f
:108a840080c0b30014f0b70059003700a0c0b30091
:108a9400e5020700e14f400052003a00a0c0b300d5
:108aa400c0020700f0c0b30014f0b7005000370054
:108ab40030cfb30040479800d0c2b300504798006d
:108ac400640047002cfe0700004f78001e40780029
:108ad4000004e00005003a00a0c0b300a2020700b1
:108ae40000c1b30014f0b7004100370010c0b30058
:108af40049f0b70080c0b30014f0b7003c00370061
:108b0400a0c0b300c8020700e14f400037003a009c
:108b1400a0c0b300a302070010c1b30014f0b70053
:108b2400330037006600470031c0b3004cfe070035
:108b3400004f78001e407800e24f500005003200dc
:108b440010c0b30049f0b70080c0b30014f0b70000
:108b5400270037006e4090000080fb00c800dd0055
:108b64007e4090000080fb0000804000f080880080
:108b74008e48900031479800f18080003000220038
:108b8400008060000000e0000500320010c0b30067
:108b940049f0b70080c0b30014f0b70014003700e8
:108ba4004970ef001470ef0011003700000000005e
:108bb4000f003700000000000d0037000000000027
:108bc4000b0037000000000009003700000000001f
:108bd4000700370000000000050037000000000017
:108be400030037000000000001003700000000000f
:108bf4000080fa00000006000200fa00004f78002e
:108c04001e4078000004e00005003a0090c0b30064
:108c1400640207007826a800100020001a0037001c
:108c2400908080000000e00003003200e10f50005b
:108c34000a0032001300370090c0b3005902070045
:108c440090c0b300480207007826a9001000200055
:108c5400908088000000eb000b00370090c0b30048
:108c640071020700e14f400004003a007826a80092
:108c74001230ef0010002000030037000000eb006a
:108c8400010037000000eb000080fa00000006003d
:108c94000000fa006626ef007a26ef008e26ef0029
:108ca4007426ef008826ef009c26ef007226ef0062
:108cb4008626ef009a26ef006826ef007c26ef0058
:108cc4009026ef0030002000503388007e26ef000d
:108cd4009226ef007e46a9007e66a9009206a900ae
:108ce4009226a9009246a9007606a9007626a90034
:108cf4007646a8007666a9007686a90076e6a800de
:108d04007706a9007726a8007746a9007766a90008
:108d14007786a90077a6a80077c6a90077e6a800f9
:108d24008a06a8008a26a8008a46a8008a66a8009f
:108d34008a86a8008aa6a8006206a8006226a8005f
:108d44006246a8006266a8006306a9000080fa00d3
:108d5400000006000000fa0081e0a90081058000ff
:108d6400f0f82f00008060000040a000800588001b
:108d740041058000f0ff28000080600000c0a000d2
:108d8400400588000080fa00000006000000fa0098
:108d94000040eb00240207000004e00002003a0057
:108da4000040eb00f00107000040eb001e0207004a
:108db400e14f400006003a000040eb00ea010700e2
:108dc4002f010700b082800003000700a082880002
:108dd4000080fa00000006000400fa001007980062
:108de40058d0bf00e34f500004003e0058d0bf00ed
:108df4000040e80058f0b700010037005870ef0059
:108e040058d0bf000080fb002e41900001192100c2
:108e14008270780058d0bf000080fb003e41900073
:108e240051192100827078000040eb00004f780057
:108e3400040137001e80fb00110020000008dd0043
:108e44000040780061f0b70030c0b30010479800cc
:108e54004b00370081052100914078001e409000ae
:108e640000c050005df0b7005dd0bf000004e0001a
:108e740003003d005dd0bf00654040005df0b700d9
:108e840081052100914078001e40900000c05000f0
:108e94000040e9005ef0b7005ed0bf000004e000cf
:108ea40003003d005ed0bf00654040005ef0b700a7
:108eb4005dd0bf000000fb0001192100e1407800f3
:108ec4005ed0bf000000fb00021921006240780060
:108ed40080c0680061d0bf0000c060000004e000f2
:108ee400030032005bd0bf000040e8005bf0b70035
:108ef4005dd0bf000000fb0001192100e1407800b3
:108f040061d0bf0000c060000004e0000400320033
:108f14005ad0bf000040e8005af0b7000300370001
:108f240059d0bf000040e80059f0b7001e4090003f
:108f34000004e0000f003a005ed0bf000000fb0018
:108f440001192100e140780061d0bf0000c0600039
:108f54000004e000040032005ad0bf000040e800e2
:108f64005af0b7000300370059d0bf000040e800b2
:108f740059f0b7001e4090000040e90010479800e7
:108f84001e4090000004e000b2ff3d005bd0bf0033
:108f9400e24f50000e00360059d0bf00e24f50009f
:108fa400020036005c70ef00120037005ad0bf0098
:108fb400e24f50000300360010c0b3005cf0b7006d
:108fc4000c00370020c0b3005cf0b7000900370084
:108fd40091052100914078005ad0bf0080cf500005
:108fe400020036005c70ef000200370010c0b300ce
:108ff4005cf0b7005970ef005a70ef005b70ef003f
:109004005cd0bf00e24f50000e0032001e407800da
:109014000004e00003003a005cd0bf005ff0b7003a
:10902400080037005cd0bf008080fb001e80fb007e
:109034000008dd00804078005fd0bf0000c07000f1
:109044005ff0b70030c0b300104798004b00370002
:1090540081052100914078001e40900000c050001e
:109064005df0b7005dd0bf000004e00003003d00e8
:109074005dd0bf00654040005df0b7008105210070
:10908400914078001e40900000c050000040e9006c
:109094005ef0b7005ed0bf000004e00003003d00b6
:1090a4005ed0bf00654040005ef0b7005dd0bf00f9
:1090b4000000fb0051192100e14078005ed0bf00a0
:1090c4000000fb00521921006240780080c0680053
:1090d40061d0bf0000c060000004e0000300320063
:1090e4005bd0bf000040e8005bf0b7005dd0bf007c
:1090f4000000fb0051192100e140780061d0bf005d
:1091040000c060000004e000040032005ad0bf0038
:109114000040e8005af0b7000300370059d0bf0000
:109124000040e80059f0b7001e4090000004e00041
:109134000f003a005ed0bf000000fb00511921006f
:10914400e140780061d0bf0000c060000004e0008e
:10915400040032005ad0bf000040e8005af0b700c3
:109164000300370059d0bf000040e80059f0b700b1
:109174001e4090000040e900104798001e409000f7
:109184000004e000b2ff3d005bd0bf00e24f50009e
:109194000e00360059d0bf00e24f500002003600e6
:1091a4005c70ef00120037005ad0bf00e24f50004d
:1091b4000300360010c0b3005cf0b7000c003700a9
:1091c40020c0b3005cf0b70009003700910521000e
:1091d400914078005ad0bf0080cf50000200360082
:1091e4005c70ef000200370010c0b3005cf0b70001
:1091f4005970ef005a70ef005b70ef005cd0bf0055
:10920400e24f50000e0032001e4078000004e000df
:1092140003003a005cd0bf0060f0b70008003700dc
:109224005cd0bf008080fb001e80fb000008dd00d6
:109234008040780060d0bf0000c0700060f0b700cc
:109244001e4fe8001e407800e74f5000f9fe36003c
:109254005fd0bf0062f0b70060d0bf0063f0b7001a
:10926400108380000080fa00000006000000fa006d
:10927400a0828000614060000080fa0000000600c7
:109284000000fa00c03380004700de006140600047
:109294000080fb0061006000b2828000e1ff2f00cb
:1092a4008100610001007000b08288006034800099
:1092b40000407800614060000080fb0061006000b5
:1092c40000004000b2828000d1ff2f0081006100c5
:1092d40001007000b0828800603480000000d1007a
:1092e400614060000080fb00610060004200dd001e
:1092f400b2828000b1ff2f00810061000100700084
:10930400b0828800603480004200de00614060006a
:109314000080fb00610060004300dd00b282800039
:1093240071ff2f008100610001007000b08288008d
:10933400603480004300de00614060000080fb0078
:10934400610060004400dd00b2828000f1fe2f0065
:109354008100610001007000b082880060348000e8
:109364004400de00614060000080fb00610060009a
:109374004500dd00b2828000f1fd2f008100610014
:1093840001007000b0828800603480004500de0077
:10939400614060000080fb00610060004600dd0069
:1093a400b2828000f1fb2f00810061000100700097
:1093b400b08288000080fa00000006000200fa0073
:1093c4009021ef00007d2000900c88009421ef0094
:1093d400a10c8000f0fc2f00008060000040a00081
:1093e400a00c880041058000f0ff28008080600008
:1093f4000000230001007000400588008860a90077
:109404009860a80095e1a8000040eb00004f7800a8
:10941400070037001e80fb00c200dd00001321009e
:10942400008040008040eb00014878001e4fe800b7
:109434001e407800ec4f5000f6ff36000080fa0022
:10944400000006000200fa003083800020838800b8
:109454000040eb00004f7800300037001e80fb0016
