:020000040000fa
:080000000002040000000000f2
:020000040000fa
:04000800c20500002d
:020000040000fa
:04000c00c205000029
:020000040000fa
:04001000c205000025
:020000040000fa
:04001400c205000021
:020000040000fa
:04001800c20500001d
:020000040000fa
:04001c00c205000019
:020000040000fa
:04002000c205000015
:020000040000fa
:04002400c205000011
:020000040000fa
:04002800c20500000d
:020000040000fa
:04002c00c205000009
:020000040000fa
:04003000c205000005
:020000040000fa
:04003400ba0300000b
:020000040000fa
:04003800c2050000fd
:020000040000fa
:04003c00c2050000f9
:020000040000fa
:04004000c2050000f5
:020000040000fa
:04004400c2050000f1
:020000040000fa
:04004800c2050000ed
:020000040000fa
:04004c00c2050000e9
:020000040000fa
:04005000c2050000e5
:020000040000fa
:04005400680300003d
:020000040000fa
:040058000c03000095
:020000040000fa
:04005c00c2050000d9
:020000040000fa
:04006000c2050000d5
:020000040000fa
:04006400c2050000d1
:020000040000fa
:04006800c2050000cd
:020000040000fa
:04006c00dc030000b1
:020000040000fa
:04007000c2050000c5
:020000040000fa
:04007400c2050000c1
:020000040000fa
:04007800c2050000bd
:020000040000fa
:04007c00c2050000b9
:020000040000fa
:04008000c2050000b5
:020000040000fa
:04008400c2050000b1
:020000040000fa
:04008800c2050000ad
:020000040000fa
:04008c00c2050000a9
:020000040000fa
:04009000c2050000a5
:020000040000fa
:04009400c2050000a1
:020000040000fa
:04009800c20500009d
:020000040000fa
:04009c00c205000099
:020000040000fa
:0400a000c205000095
:020000040000fa
:0400a400c205000091
:020000040000fa
:0400a800c20500008d
:020000040000fa
:0400ac00c205000089
:020000040000fa
:0400b000c205000085
:020000040000fa
:0400b400c205000081
:020000040000fa
:0400b800c20500007d
:020000040000fa
:0400bc00c205000079
:020000040000fa
:0400c000c205000075
:020000040000fa
:0400c400c205000071
:020000040000fa
:0400c800c20500006d
:020000040000fa
:0400cc00c205000069
:020000040000fa
:0400d000c205000065
:020000040000fa
:0400d400c205000061
:020000040000fa
:0400d800c20500005d
:020000040000fa
:0400dc00c205000059
:020000040000fa
:0400e000c205000055
:020000040000fa
:0400e400c205000051
:020000040000fa
:0400e800c20500004d
:020000040000fa
:0400ec00c205000049
:020000040000fa
:0400f000c205000045
:020000040000fa
:0400f400c205000041
:020000040000fa
:0400f800c20500003d
:020000040000fa
:0400fc00c205000039
:020000040000fa
:04010000c205000034
:020000040000fa
:04010400c205000030
:020000040000fa
:04010800c20500002c
:020000040000fa
:04010c00c205000028
:020000040000fa
:04011000c205000024
:020000040000fa
:04011400c205000020
:020000040000fa
:04011800c20500001c
:020000040000fa
:04011c00c205000018
:020000040000fa
:04012000c205000014
:020000040000fa
:04012400c205000010
:020000040000fa
:04012800c20500000c
:020000040000fa
:04012c00c205000008
:020000040000fa
:04013000c205000004
:020000040000fa
:04013400c205000000
:020000040000fa
:04013800c2050000fc
:020000040000fa
:04013c00c2050000f8
:020000040000fa
:04014000c2050000f4
:020000040000fa
:04014400c2050000f0
:020000040000fa
:04014800c2050000ec
:020000040000fa
:04014c00c2050000e8
:020000040000fa
:04015000c2050000e4
:020000040000fa
:04015400c2050000e0
:020000040000fa
:04015800c2050000dc
:020000040000fa
:04015c00c2050000d8
:020000040000fa
:04016000c2050000d4
:020000040000fa
:04016400c2050000d0
:020000040000fa
:04016800c2050000cc
:020000040000fa
:04016c00c2050000c8
:020000040000fa
:04017000c2050000c4
:020000040000fa
:04017400c2050000c0
:020000040000fa
:04017800c2050000bc
:020000040000fa
:04017c00c2050000b8
:020000040000fa
:04018000c2050000b4
:020000040000fa
:04018400c2050000b0
:020000040000fa
:04018800c2050000ac
:020000040000fa
:04018c00c2050000a8
:020000040000fa
:04019000c2050000a4
:020000040000fa
:04019400c2050000a0
:020000040000fa
:04019800c20500009c
:020000040000fa
:04019c00c205000098
:020000040000fa
:0401a000c205000094
:020000040000fa
:0401a400c205000090
:020000040000fa
:0401a800c20500008c
:020000040000fa
:0401ac00c205000088
:020000040000fa
:0401b000c205000084
:020000040000fa
:0401b400c205000080
:020000040000fa
:0401b800c20500007c
:020000040000fa
:0401bc00c205000078
:020000040000fa
:0401c000c205000074
:020000040000fa
:0401c400c205000070
:020000040000fa
:0401c800c20500006c
:020000040000fa
:0401cc00c205000068
:020000040000fa
:0401d000c205000064
:020000040000fa
:0401d400c205000060
:020000040000fa
:0401d800c20500005c
:020000040000fa
:0401dc00c205000058
:020000040000fa
:0401e000c205000054
:020000040000fa
:0401e400c205000050
:020000040000fa
:0401e800c20500004c
:020000040000fa
:0401ec00c205000048
:020000040000fa
:0401f000c205000044
:020000040000fa
:0401f400c205000040
:020000040000fa
:0401f800c20500003c
:020000040000fa
:0401fc00c205000038
:020000040000fa
:100400008f9a20000e7f24000e018800000000005b
:10041000000020000000e000020032000001200087
:100420002002880014000700d80107000000e00047
:1004300003003a00c0f7210001002000020037004d
:100440000000200001002000810f70000100320038
:1004500014000700000020000000e000020032004d
:100460000000020000000000da2d02000000000081
:100470000040da000000fe004440a9008022200075
:100480000000e000030032000020200090018800fe
:100490004440a800000006008a1f78008b1f7800e7
:1004a00000000600a1028800800478000000eb0034
:1004b0001f003700e284440054a0b4009905ba003c
:1004c000e284440054a0b4009906ba00e2844400d7
:1004d00054a0b4000006eb00476fde00fd07b20039
:1004e000ae018800636ce10003003a00eaff0700f8
:1004f0000000eb000e003700606ce10008003a00dd
:10050000004deb000a05e800020039003420ec0041
:100510000af0a0008b05e900f9ff3e000400370057
:100520006168e100010032000086eb000b0007006b
:1005300019c7ba001905ba000e04e00003003a001a
:100540000a00e000dbff3a0000000600fe07b200f0
:10055000ae0288008a047800f5ff37000cd0a300b3
:10056000e20f4d001c00390089027800354dba00b9
:100570000a05e800020039003420ec000af0a0006f
:100580008b05e9000f003200254dba000a05e8008e
:10059000020039003420ec000af0a0008b05e900cd
:1005a000080032000c00e0000600320015cdba0051
:1005b0000a05e800020039003420ec000af0a0002f
:1005c0008b05e9008984e80054a0b4000b00e0002a
:1005d000e2ff3a00000006009902ba00055d7800cb
:1005e0008b05e900f7ff3200c82ade00055d7800c0
:1005f0008b05e900f3ff32000c00e000f1ff320050
:1006000019ddba00eeff3700000000000000000016
:100610000000000000000000809fbe00821f7800e4
:100620000000fa00c104800000002100008060008a
:100630000000e000220032004104800000002100a0
:10064000008060000000e0001d0032008980a900e9
:10065000108f200090407800008f2000104078001c
:1006600080cf50000b0039007a06a9009980a900bc
:10067000a1478000f0fd2f0000806000a0478800a7
:10068000a1478000d0ff2f0000806000a0478800b5
:100690000b003700108f2000104078000081fb0015
:1006a000418b200081004100914078008180fb0057
:1006b000e11c88008040e800108f2000014878008d
:1006c0000080fa004f0178004f00be000040060095
:1006d0003600f800809fbe00829fbe00849fbe004f
:1006e000869fbe000000fa00c10480000080200048
:1006f000008060000000e00017003200410480002c
:1007000000802000008060000000e0001200320045
:100710008960a900d01c8000620060000000e00039
:10072000030032009a23a900208720008e0e0700c4
:10073000d01c8000640060000000e0000300320074
:10074000f01c800020872000870e0700f01c80002e
:1007500000407800970e07000080fa004f03be00ab
:100760004f02be004f01be004f00be003600f90030
:1007700000400600801f78003200f8003400f800c6
:1007800010002000a00188000020200090018800b7
:100790000000fa008860a900604380000000e800c3
:1007a000604388000080fa003400f9003200f9004c
:1007b0004f007800004006003600f800809fbe0021
:1007c000829fbe00849fbe00869fbe000000fa008c
:1007d0008a20a900f1248000000820000080600029
:1007e0000000e000080032009ee4a9000828ef00a5
:1007f00070408000200090008000eb00010878002d
:100800000e28ef00d800370040408000e40f500071
:10081000c8003200e40f500009003e00e10f500014
:1008200040003200e10f50000e003900e20f50008e
:1008300040003200e30f500066003200c000370075
:10084000e60f5000a3003200e60f50008f00390081
:10085000e70f5000b7003200e80f5000a10032004f
:10086000b700370000802000200090006200600088
:100870000000e000bb003a00008020001000900063
:100880007040880000802000100090001040780028
:100890000ae8b700008020001000900010009000cf
:1008a000604088000080200010009000e6004000ba
:1008b000008020001100980000802000900090002f
:1008c00020992000808f500003003a000080200013
:1008d000c1982000110098000080200020019000a5
:1008e000e1ff2f00810061002100980000802000be
:1008f000900090000080200010007800808f500051
:1009000004003a0000802000a00090000110a00028
:10091000210098009a04a800200020004040880090
:10092000910037009a24a800200020004040880051
:100930008d0037001ec8bf00e14f50000a00320092
:100940006040800010007800004188006040800016
:1009500020009000104188006040800020409000fe
:1009600024e8b700010037001e68ef000141800055
:10097000f00f2000808f50000900360000418000f9
:100980004800de00e6006000000f2000010070005b
:10099000b0248800a000200040408800720037008a
:1009a00000418000b02488000041800061006000a8
:1009b000004078000004e0000300320050002000f6
:1009c0004040880068003700300020004040880028
:1009d00065003700f12480000000280000806000de
:1009e0000000e0000900320000802000604090001c
:1009f0008040e80000802000614098009fe4a9004a
:100a000050002000370a07005700370024c8bf00f5
:100a10008080fb008100e900cf08de008140780083
:100a20000040e90024e8b7000104e00010003200b3
:100a30006040800066004000604088000ac8bf0037
:100a40000040e9000ae8b7000ac8bf000004e0005f
:100a500003003a0020002000220a0700420037006d
:100a60009a24a80020002000404088003e00370063
:100a700010418000904078008180fb00b124880004
:100a80000000e8001041880037003700f1248000a2
:100a900000002800008060000000e0000900320033
:100aa00000802000604090008040e800008020002e
:100ab00061409800400020000a0a07009fe4a90056
:100ac000290037009a64a800800020004040880078
:100ad0002500370080002000404088009a64a8006c
:100ae0002100370010418000a1248000814078005f
:100af000014878000000e8001041880024c8bf00c9
:100b00000040e90024e8b70024c8bf000004e0006a
:100b1000040032009aa4a900600020004040880030
:100b2000020037009aa4a800dd0907009a84a800f3
:100b30000d00370020002000ea0907000a003700f6
:100b400000802000604090008040e800008020008d
:100b50006140980060002000e209070000000000ea
:100b600001003700000000000080fa004f03be00c3
:100b70004f02be004f01be004f00be003600f9001c
:100b8000004006000040da000000fe000000050002
:100b900003f0a200889fbe008a9fbe008c1f7800d1
:100ba000fa000700010133006450e1004f003200f9
:100bb0006420e1005200320003826c0007003b0019
:100bc0000905d0000306d000820f54000c065d001a
:100bd0000200390002003200890178000306780023
:100be0008582550004003d000003fd008103fd00e7
:100bf0008502ea008b854200840f720002003b00f0
:100c000060001000e08018006011b8000005eb00e3
:100c10007a28e1000a00390006007800c75ddd008f
:100c2000f707b200878075002d00370082817100c0
:100c30000a017800610560008180d1000080d30046
:100c40008502e900f9ff3b00060440008784480064
:100c500002003b0060041400e0841c000988a3002b
:100c6000070032008a817100828171006101640095
:100c70008904d1000884d3008b05e80017003700f1
:100c80000978a30013003a000b00e00013003400c1
:100c90008b05e9000804440089844c000a44740070
:100ca0000978a3000d003a000b00e00007003400b3
:100cb0008b05e9000804440089844c0001003a00d7
:100cc0000b0020000978a300f7ff32000001eb00c1
:100cd00002003700828171000a017800700007006d
:100ce0000cf0a70001f0a000b90037006420e1007b
:100cf00002003a00838f6c00b90033000801be0087
:100d00000200be00b2003700889fbe008a9fbe006e
:100d10008c1f78009d000700a400330003866c0040
:100d20006450e1002e0032006420e1003300320004
:100d30006150e1002f0032006120e10031003200fb
:100d400085855500eb07b00009002000080420004d
:100d5000050037000804440089844c000a00310073
:100d60000603430087834b000001530081815b0031
:100d7000f8ff33000203be000800a000080444008e
:100d800089844c00f6ff3900c639dd008301730009
:100d900001003200130020008904d1000884d30030
:100da0000998a300050032000800a7000300a00076
:100db0008904d1000884d3008b05e8008904d100a0
:100dc0000884d3000001eb000281d2003400070048
:100dd00001f0a1000cf0a70001f0a0007c0037009a
:100de0006420e1007e0032000801be000200be0067
:100df000f7ff37006120e100790032006000b800a1
:100e0000f3ff37000000200001f82700f0ff370053
:100e100014002000b9003700f4ff2f00b70037009e
:100e20000001be00440007000470a70003f0a10009
:100e300003f8a30013003a006509b1001000320066
:100e4000090035006928e100020035000100280092
:100e50000000050000004000818048008502e90094
:100e6000fcff3a0000000600f88f42000500350044
:100e70008100d1000080d3008502e800fcff3a0029
:100e8000000006008000eb00000005004f89de0036
:100e900082017800b40037006011b800c20037004a
:100ea00081002000618055000b003d000b002000f8
:100eb00061fe2f000100e1001d00340082817100fd
:100ec000610164008904d1000884d3000000e800b7
:100ed000faff3a0071002000610064000300700016
:100ee000020060000900320061044400e0844c000c
:100ef0000988a500050032008b05e8006808e100bc
:100f000002003a008904d1000884d300f20f2000c7
:100f10000258e10005003d00c75ddd00f907b200a1
:100f20008980750008007800000006000bf8270093
:100f30008b00780000000500c70ade00f107b20050
:100f4000f50fb20008003200e1cf4200020032008b
:100f50000170a00024000500810f70000100320024
:100f60000408050044000500810f700002003a00eb
:100f7000140005008502e9000000400081c048001f
:100f8000fcff3b000170a000240005000004be002f
:100f9000e9ff07000003be000405be000200be001a
:100fa000e5ff0700844f7500000006000200be0048
:100fb0006450e100050036006420e10002003600c4
:100fc0000968a30001003a000800be000160a0000b
:100fd0004f0678004f05be004f04be00000006001b
:100fe000f0ff2f00f1ff2700f9ff3700889fbe00b8
:100ff0008a9fbe008c1f7800e4ff0700ebff3300e0
:1010000003866c006450e100240032006420e1009b
:10101000270032006150e100220032006120e1002f
:10102000210032008b854200eb07b1000134b8008b
:10103000003ab8000804420089844a00013ab80026
:101040000030b8008880400009014a0004003300e5
:101050000000400081804800020149008b05e90042
:10106000c909dd0083017000010032001300200077
:10107000c814de004814dd004709de001200b2008b
:10108000c808de000884700085ff070001f0a10099
:101090000cf0a70001f0a000cdff37006120e100b7
:1010a000cfff32000801be000200be00f7ff37008c
:1010b0006150e100fcff3a00c9ff37006022b80030
:1010c000060220000000d0008180d2000482d200fd
:1010d0008582d2000000a0000202520083825a00e2
:1010e000030031000202420083824a000000a10096
:1010f0000603e900f3ff3a0000000600889fbe00e7
:101100008a9fbe00841f7800a0ff07004f00780070
:1011100011003300f0ff2f00838f6c0006003b00ae
:10112000040565000a00a7000800370009f0a600c2
:101130001000200008003700820f5400838f5c00ed
:10114000030039001000200001003e0000002000d4
:1011500009f0a7000000ea004f05be004f04be00e2
:101160000000e00000000600881f780003047800fb
:101170000300e00007003d0060001000e080180060
:1011800060011900e081190002003b0001f02d0010
:10119000030037000400070008f0a70001f0a000da
:1011a0004f04780000000600889fbe008a9fbe00a2
:1011b0000082700004027100048271002600320077
:1011c0000004be000200be006011b8006b092000e0
:1011d000950220000182cf000a0039000541b100cc
:1011e0000082cf00070039000541b1000982cf001d
:1011f000040039000541b1000882cf000100390028
:101200000541b10005425200120032000a003b00c5
:1012100082817100610164008100d1000080d300ef
:101220008984d3000884d3008b05e8000442e800d9
:10123000f7ff3a00070037000804440089844c0097
:1012400000004800818048008b05e9000442e90065
:10125000f9ff3a0012ff07004f05be004f04be0021
:1012600000000600800178000200370081597800f4
:101270000201e9000200e000fcff3a000000060065
:020000040000fa
:1012800000000000c1c0000081c10000400100005a
:1012900001c30000c00300008002000041c2000042
:1012a00001c60000c00600008007000041c7000022
:1012b00000050000c1c5000081c40000400400001a
:1012c00001cc0000c00c0000800d000041cd0000ea
:1012d000000f0000c1cf000081ce0000400e0000d2
:1012e000000a0000c1ca000081cb0000400b0000d2
:1012f00001c90000c00900008008000041c80000ca
:1013000001d80000c01800008019000041d9000079
:10131000001b0000c1db000081da0000401a000061
:10132000001e0000c1de000081df0000401f000041
:1013300001dd0000c01d0000801c000041dc000039
:1013400000140000c1d4000081d500004015000049
:1013500001d70000c01700008016000041d6000031
:1013600001d20000c01200008013000041d3000031
:1013700000110000c1d1000081d000004010000029
:1013800001f00000c03000008031000041f1000099
:1013900000330000c1f3000081f200004032000081
:1013a00000360000c1f6000081f700004037000061
:1013b00001f50000c03500008034000041f4000059
:1013c000003c0000c1fc000081fd0000403d000029
:1013d00001ff0000c03f0000803e000041fe000011
:1013e00001fa0000c03a0000803b000041fb000011
:1013f00000390000c1f9000081f800004038000009
:1014000000280000c1e8000081e900004029000038
:1014100001eb0000c02b0000802a000041ea000020
:1014200001ee0000c02e0000802f000041ef000000
:10143000002d0000c1ed000081ec0000402c0000f8
:1014400001e40000c02400008025000041e5000008
:1014500000270000c1e7000081e6000040260000f0
:1014600000220000c1e2000081e3000040230000f0
:1014700001e10000c02100008020000041e00000e8
:1014800001a00000c06000008061000041a10000d8
:1014900000630000c1a3000081a2000040620000c0
:1014a00000660000c1a6000081a7000040670000a0
:1014b00001a50000c06500008064000041a4000098
:1014c000006c0000c1ac000081ad0000406d000068
:1014d00001af0000c06f0000806e000041ae000050
:1014e00001aa0000c06a0000806b000041ab000050
:1014f00000690000c1a9000081a800004068000048
:1015000000780000c1b8000081b9000040790000f7
:1015100001bb0000c07b0000807a000041ba0000df
:1015200001be0000c07e0000807f000041bf0000bf
:10153000007d0000c1bd000081bc0000407c0000b7
:1015400001b40000c07400008075000041b50000c7
:1015500000770000c1b7000081b6000040760000af
:1015600000720000c1b2000081b3000040730000af
:1015700001b10000c07100008070000041b00000a7
:1015800000500000c1900000819100004051000017
:1015900001930000c05300008052000041920000ff
:1015a00001960000c05600008057000041970000df
:1015b00000550000c19500008194000040540000d7
:1015c000019c0000c05c0000805d0000419d0000a7
:1015d000005f0000c19f0000819e0000405e00008f
:1015e000005a0000c19a0000819b0000405b00008f
:1015f00001990000c0590000805800004198000087
:1016000001880000c04800008049000041890000b6
:10161000004b0000c18b0000818a0000404a00009e
:10162000004e0000c18e0000818f0000404f00007e
:10163000018d0000c04d0000804c0000418c000076
:1016400000440000c1840000818500004045000086
:1016500001870000c047000080460000418600006e
:1016600001820000c042000080430000418300006e
:1016700000410000c1810000818000004040000066
:10168000010200000408000010200000408000005b
:10169000010000000200000004000000080000003b
:1016a000100000002000000040000000800000004a
:1016b000000100000002000000040000000800001b
:1016c000001000000020000000400000008000002a
:020000040000fa
:1016d0000000fa00c08f20008040eb000148780035
:1016e0000080fa00000006000000fa00d090200000
:1016f0008040eb0001487800e09020008040eb0043
:1017000001487800c01220000100200080488800b5
:10171000914888004006200001002000a048880071
:10172000b1488800a000200001002000c0488800c7
:10173000d1488800e001200001002000e048880036
:10174000f1488800009220008040eb0001487800ba
:10175000109220008040eb0001487800c012200069
:101760000100200010498800214988006092200073
:10177000a1c0b300014878007092200041c1b300bd
:10178000014878008092200041c1b30001487800f0
:101790009092200011c0b3000148780060932000af
:1017a0008040eb0001487800709320008040eb00ff
:1017b000014878002c68ef002d68ef000080fa00e7
:1017c000000006000000fa007886a9007866a900eb
:1017d0000080fa00000006000000fa00d09020000f
:1017e000104078000004e00006003200d090200095
:1017f00010407800e14f5000020032000000eb0082
:101800006d003700e0902000104078000004e000f8
:1018100006003200d090200010407800e14f5000c8
:1018200002003a000000eb0063003700a24880008d
:10183000b3488000803e200001002000800f51004e
:10184000818f590006003600d090200010407800ab
:10185000e14f500002003a000000eb005600370054
:10186000c2488000d348800080072000010020008b
:10187000800f5100818f590006003600d090200063
:1018800010407800e14f500002003a000000eb00e9
:1018900049003700c2488000d3488000e0488000fb
:1018a000f1488000800f5100818f59000b003600f5
:1018b000e0488000f1488000e00f5000e08f5800c1
:1018c00006003200d090200010407800e14f500018
:1018d00002003a000000eb003700370000922000c1
:1018e000104078000004e000060032000092200062
:1018f00010407800e14f5000020032000000eb0081
:101900002d00370010922000104078000004e00005
:10191000060032000092200010407800e14f500095
:1019200002003a000000eb0023003700124980005b
:10193000234980009000200001002000800f51000a
:10194000818f590006003e00009220001040780070
:10195000e14f500002003a000000eb001600370093
:10196000c0488000d148800080007800401f2000df
:101970000088b90000007800c04b880080488000d3
:1019800091488000a200200003002000cbfd07004a
:1019900080007800401f20000088b9000000780017
:1019a000e04b88008048800091488000c04188005a
:1019b000d1418800100020000080fa0000000600dd
:1019c0000000fa005090200010407800e24f5000d4
:1019d0000e0032005090200010407800e14f50007f
:1019e0000a0032005090200010407800e34f500071
:1019f000060032005090200010407800e44f500064
:101a0000020032000000eb000b0037004090200085
:101a1000104078000004e0000600320040902000f2
:101a200010407800e14f5000020032000000eb004f
:101a300001003700100020000080fa0000000600be
:101a40000c00fa00889fbe00c08f20001040780074
:101a50000080fb00e60f50002b033200e60f500021
:101a60000c003c00e10f500025003200e10f500057
:101a700003003c000000e00011003200e8033700e2
:101a8000e20f5000b1003200e50f5000bb023200ff
:101a9000e3033700e90f50002e033200e90f500036
:101aa00003003c00e80f5000d3033200dc03370092
:101ab0006b005000e10f5000d9033e00ce03370009
:101ac000c08f200011c0b3000148780040c0b300af
:101ad0000910070050c0b3000710070060c0b30032
:101ae0000510070070c0b3000310070080c0b300ea
:101af000011007004468ef004568ef00d30337008a
:101b000030ff0700609320008040eb000148780020
:101b1000709320008040eb0001487800d0902000b6
:101b200010407800e14f50000c003a0010c0b300a4
:101b300044e8b700e08f20008040eb0001487800c7
:101b40004628ef004828ef004a28ef004c28ef0015
:101b5000c08f200021c0b30001487800009220000f
:101b600010407800e14f500009003a0010c0b30067
:101b700045e8b7004e28ef005028ef0080c0b300c2
:101b8000ce0f0700c08f200021c0b30001487800ad
:101b90003148800000802000008060000000e000ec
:101ba0000800320007ff0700c08f200011c0b300fb
:101bb00001487800709020008040eb0001487800d8
:101bc000a203370031488000002020000080600020
:101bd0000000e00011003200fffe0700e10f50009e
:101be00007003a000090200011c0b30001487800bf
:101bf000c08f200061c0b3000148780003003700a7
:101c0000c08f200081c0b300014878007090200090
:101c10008040eb00014878008c0337003148800099
:101c200000402000008060000000e00080033200df
:101c300063ff07000000e00004003a00c08f2000ae
:101c400081c0b3000148780080033700c08f2000b6
:101c500061c0b30001487800dafe07000090200060
:101c600051c0b30001487800509020001040780027
:101c7000e24f50000c003a004090200010407800e5
:101c8000e14f500004003a006093200011c0b300ff
:101c90000148780029003700609320008040eb0065
:101ca000014878002500370050902000104078004f
:101cb000e14f50000c003a004090200010407800a6
:101cc000e14f500004003a007093200011c0b300af
:101cd0000148780019003700709320008040eb0025
:101ce000014878001500370050902000104078001f
:101cf000e34f500011003a0040902000104078005f
:101d0000e14f500007003a007093200011c0b3006b
:101d1000014878006093200011c0b30001487800aa
:101d200006003700709320008040eb0001487800e7
:101d3000609320008040eb00014878007090200004
:101d40008040eb00014878004003370044c8bf00e2
:101d5000e14f500060013a00980e07000004e000d7
:101d600021003a0097fe070040c0b300620f070051
:101d700050c0b300600f070060c0b3005e0f0700e3
:101d800070c0b3005c0f070080c0b3005a0f07009b
:101d90000092200010407800e14f500002003a000d
:101da00080c0b300450f0700609320008040eb0027
:101db00001487800709320008040eb0001487800d3
:101dc0004e28ef005028ef004628ef004828ef008b
:101dd0004a28ef004c28ef00c08f200091c0b300cc
:101de0000148780076013700a2488000b34880009f
:101df000803e200001002000800f5100818f59009b
:101e000009003a006093200011c0b3000148780037
:101e10007886a8007093200011c0b30001487800b4
:101e20007866a80066013700a0488000b1488000ad
:101e3000e00f5000e08f580009003a006093200046
:101e40008040eb00014878007886a900709320005c
:101e50008040eb00014878007866a90058013700ff
:101e6000c0902000104078000080fb00e10f50007f
:101e70009e003200e20f50000b0132000000e00033
:101e800040013a00e08f2000104078000004e0009c
:101e900004003200e08f200010407800e14f500035
:101ea00016003a0060c0b300130f070070c0b30003
:101eb000110f070060c0b300000f070070c0b3002f
:101ec000fe0e07004a28ef004c28ef006093200028
:101ed00011c0b300014878007886a80070932000f4
:101ee00011c0b300014878007866a800e08f200098
:101ef00021c0b3000148780031013700e08f200095
:101f000010407800e24f500020013a0060c0b3005a
:101f10001a0f0700e14f40000a003a0060c0b3000a
:101f2000f50e0700609320008040eb000148780028
:101f30007886a900709320008040eb00014878006b
:101f40007866a90070c0b3000c0f0700e14f400095
:101f500010013a0050428000614280006100400060
:101f6000e0804800504288006142880070c0b300a1
:101f7000e10e070070c0b300d00e07005042800091
:101f800061428000e0418800f1418800c04180004a
:101f9000d1418000004288001142880050428000f8
:101fa000614280000001be00c0418000d14180003c
:101fb000800f5100818f5900f8003a00b0072000cf
:101fc000010020002007980031079800801c2000a5
:101fd000010020004007980051079800e090200081
:101fe0001040780068014700e4004700a5020700a0
:101ff000e10f500037003a002e009000be00900024
:1020000050498800614988002e009000be00900071
:1020100090498800a14988004e009000de009000a1
:1020200070498800814988005249800063498000d6
:102030007049800081498000a8488000b94880002c
:1020400064852000841f7800278520008683200077
:102050000202be000001be000800be00a702070089
:102060008f87e90090428000a1428000e041880013
:10207000f1418800c0418000d141800000428800c9
:102080001142880090428000a142800080007800c8
:10209000401f20000088b90000007800e04b880055
:1020a00060c0b300850e07004a28ef004c28ef00ff
:1020b0006093200011c0b300014878007886a80022
:1020c0007093200011c0b300014878007866a80022
:1020d000bb00370070c0b300870e0700c08f200020
:1020e000b1c0b30001487800b5003700e048800077
:1020f000f1488000e00f5000e08f580009003a00de
:102100006093200011c0b300014878007886a800d1
:102110007093200011c0b300014878007866a800d1
:10212000a7003700c0488000d1488000e00f500071
:10213000e08f580009003a00609320008040eb00d7
:10214000014878007886a900709320008040eb0059
:10215000014878007866a90099003700e08f2000d8
:10216000104078000004e00004003200e08f2000fe
:1021700010407800e24f500016003a0040c0b30013
:102180005d0e070050c0b3005b0e070040c0b300f7
:102190004a0e070050c0b300480e07004628ef0063
:1021a0004828ef006093200011c0b3000148780078
:1021b0007886a8007093200011c0b3000148780011
:1021c0007866a800e08f200011c0b30001487800b5
:1021d0007b003700e08f200010407800e14f500076
:1021e00070003a0040c0b300640e0700e14f4000a9
:1021f0000a003a0040c0b3003f0e07006093200081
:102200008040eb00014878007886a9007093200098
:102210008040eb00014878007866a90050c0b30008
:10222000560e0700e14f400060003a003042800047
:102230004142800061004000e08048003042880058
:102240004142880050c0b3002b0e070050c0b300bd
:102250001a0e070030428000414280000001be009b
:10226000e0488000f1488000800f5100818f5900c4
:1022700050003a0040c0b300100e07004628ef009f
:102280004828ef006093200011c0b3000148780097
:102290007886a8007093200011c0b3000148780030
:1022a0007866a8004600370046fd07004468ef0046
:1022b00045c8bf00e14f500040003a004e28ef00f3
:1022c0005028ef0080c0b3000b0e070080c0b300a1
:1022d000fa0d07003a00370045c8bf00e14f500033
:1022e00037003a0080c0b300240e0700e14f4000e1
:1022f00033003a007042800081428000610040005b
:10230000e0804800704288008142880080c0b300ad
:10231000f90d070080c0b300e80d0700704280008f
:10232000814280000001be001049800021498000e8
:10233000800f5100818f590021003a004e28ef0094
:102340005028ef0010922000104078008e00780096
:10235000c1010700e10f500004003a001e00be005a
:1023600090498800a14988001500370080c0b3005b
:10237000e10d0700c08f2000c1c0b3000148780004
:102380000f003700000000000d00370000000000c3
:102390000b003700000000000900370000000000bb
:1023a00007003700000000000500370000000000b3
:1023b00003003700000000000100370000000000ab
:1023c0003148800000802000008060000000e000b4
:1023d00008003200fbfc0700c08f200011c0b300d2
:1023e00001487800709020008040eb0001487800a0
:1023f00096013700314880000020200000806000f6
:102400000000e00011003200f3fc0700e10f500073
:1024100007003a000090200011c0b3000148780086
:10242000c08f200061c0b30001487800030037006e
:10243000c08f200081c0b300014878007090200058
:102440008040eb000148780080013700314880006f
:1024500000402000008060000000e00076013200b3
:1024600057fd07000000e00004003a00c08f200084
:1024700081c0b3000148780074013700c08f20008c
:1024800061c0b30001487800cefc07000090200036
:1024900051c0b300014878005090200010407800ef
:1024a000e24f50000c003a004090200010407800ad
:1024b000e14f500004003a006093200011c0b300c7
:1024c0000148780029003700609320008040eb002d
:1024d0000148780025003700509020001040780017
:1024e000e14f50000c003a0040902000104078006e
:1024f000e14f500004003a007093200011c0b30077
:102500000148780019003700709320008040eb00ec
:1025100001487800150037005090200010407800e6
:10252000e34f500011003a00409020001040780026
:10253000e14f500007003a007093200011c0b30033
:10254000014878006093200011c0b3000148780072
:1025500006003700709320008040eb0001487800af
:10256000609320008040eb000148780070902000cc
:102570008040eb0001487800340137007093200060
:1025800010407800e14f500002003a007866a80041
:10259000010037007866a9006093200010407800a1
:1025a000e14f500002003a007886a8000100370091
:1025b0007886a900314880000080200000806000fb
:1025c0000000e000050032007efc0700c08f200004
:1025d00011c0b3000148780047003700314880003f
:1025e00000402000008060000000e0004200320057
:1025f000f3fc07000000e00004003a00c08f200058
:1026000081c0b300014878003b00370050902000a3
:1026100010407800e24f50000c003a00409020003b
:1026200010407800e14f500004003a006093200011
:1026300011c0b300014878002f00370060932000dc
:102640008040eb00014878002b00370050902000bc
:1026500010407800e14f50000c003a0040902000fc
:1026600010407800e14f500004003a0070932000c1
:1026700011c0b300014878001f003700709320009c
:102680008040eb00014878001b003700509020008c
:1026900010407800e34f500017003a0040902000af
:1026a00010407800e14f500007003a00709320007e
:1026b00011c0b300014878006093200011c0b3003e
:1026c0000148780006003700709320008040eb003e
:1026d00001487800609320008040eb0001487800ba
:1026e000c08f200061c0b300014878000090200036
:1026f00051c0b30001487800709020008040eb008a
:1027000001487800d10037003148800000102000d7
:10271000008060000000e000050032000090200012
:1027200090407800c08f200001487800c700370033
:102730003148800000802000008060000000e00040
:10274000bf003200c08f200011c0b30001487800e4
:10275000be003700190c0700e14f500007003a0097
:1027600080c0b300e40c07004e28ef005028ef00b3
:10277000c08f200011c0b3000148780000922000f3
:1027800010407800e14f500027003a0080c0b300ad
:10279000fa0c0700e14f400023003a00704280002d
:1027a0008142800061004000e08048007042880063
:1027b0008142880080c0b300cf0c070080c0b30006
:1027c000be0c070070428000814280000001be0004
:1027d0001049800021498000800f5100818f5900ed
:1027e00011003a004e28ef005028ef001092200010
:1027f000104078008e00780097000700e10f50002d
:1028000004003a001e00be0090498800a1498800db
:102810000500370080c0b300b70c0700c08f200050
:10282000c1c0b3000148780031488000008020001a
:10283000008060000000e0000900320080c0b300aa
:10284000ad0c07004e28ef005028ef00ddfb07001d
:10285000c08f200011c0b30001487800620037002b
:102860003148800000202000008060000000e0006f
:1028700011003200d8fb0700e10f500007003a00ba
:102880000090200011c0b30001487800c08f2000e4
:1028900061c0b3000148780003003700c08f2000fa
:1028a00081c0b30001487800709020008040eb00a8
:1028b000014878004c00370031488000004020007b
:1028c000008060000000e0004700320080c0b300dc
:1028d000890c07004e28ef005028ef0038fc070055
:1028e0000000e00004003a00c08f200081c0b30067
:1028f000014878003c003700b2fb0700c08f200081
:1029000061c0b300014878000090200051c0b300be
:10291000014878005090200010407800e24f5000ad
:102920000c003a004090200010407800e14f500029
:1029300004003a006093200011c0b3000148780001
:1029400029003700609320008040eb0001487800a8
:10295000250037005090200010407800e14f5000d3
:102960000c003a004090200010407800e14f5000e9
:1029700004003a007093200011c0b30001487800b1
:1029800019003700709320008040eb000148780068
:10299000150037005090200010407800e34f5000a1
:1029a00011003a004090200010407800e14f5000a4
:1029b00007003a007093200011c0b300014878006e
:1029c0006093200011c0b300014878000600370072
:1029d000709320008040eb00014878006093200055
:1029e0008040eb0001487800709020008040eb00b0
:1029f000014878001500370072fb0700314880005d
:102a000000802000008060000000e0000e00320026
:102a1000c08f200011c0b300014878000b003700c0
:102a2000c08f20008040eb0001487800070037008d
:102a30000000000005003700000000000300370020
:102a40000000000001003700000000004f04be003d
:102a50000080fa00000006000400fa00004f780031
:102a6000110798001e80fb000000e00002003a0001
:102a700010002000010037000000eb000080fa0089
:102a8000000006000600fa00004f780011079800c9
:102a9000220798001e80fb000000e00014003a00ae
:102aa0002cc8bf000004e00002003a0010c0b300d0
:102ab0002ce8b7002dc8bf000004e0000a003a006f
:102ac00070418000814180001e0190000089be009d
:102ad00090418000a14180002e0190000089be003d
:102ae00010002000030037000000eb000100370059
:102af0000000eb000080fa00000006004000fa0031
:102b0000889fbe00001f9800111f9800221f980088
:102b1000331f9800441f9800551f9800661f9800a7
:102b2000771f98004e189000de189000daf8070022
:102b3000020020000312240073f807000017980019
:102b4000111798002e189000be189000d2f80700b8
:102b500002002000a34724006bf80700201798000c
:102b6000311798000e1890009e189000caf80700c0
:102b700002002000832c240063f80700401798000f
:102b80005117980018c0b30002002000031224005f
:102b90000e1090009e1090009df807000000e000cd
:102ba000010035000044eb000804e000040032009e
:102bb0000000200001f42300008fbe001b0037003e
:102bc00018c0b30002002000031f24000e10900064
:102bd0009e10900090f807000000e00001003c000b
:102be0000044eb000804e000040032000000200074
:102bf00001e82300008fbe000c0037000e1190008a
:102c00009e11900000002000011a2400e0f7070048
:102c1000d2cc2c00c3cc2300f4f807000200200023
:102c200003f02300dbf70700008fbe0018c0b300dd
:102c3000d2cc2c00c3ec23002e109000be109000cc
:102c400073f807000000e000010035000044eb00cd
:102c50000804e000050032000000200001e8230025
:102c600020079800310798002100370018c0b300f2
:102c7000d2cc2c00c3f423002e109000be10900084
:102c800065f807000000e00001003c000044eb0094
:102c90000804e000050032000000200001f42300d9
:102ca0002007980031079800110037002e1190007e
:102cb000be119000a099290091f12300b4f70700fc
:102cc00002002000030a2400c8f8070002002000c8
:102cd000030824000cf807000001be0000002000db
:102ce00001f02300aaf70700200798003107980099
:102cf0002e019000be0190001e00be00a5f7070047
:102d000002002000031f2400b8f8070044f8070061
:102d10006e1990000089be0018c0b30002002000a8
:102d2000031224000e1090009e10900038f8070047
:102d30000000e000010035000044eb000804e00062
:102d4000050032000000200001f023004007980039
:102d5000510798001d00370018c0b3000200200082
:102d6000031f24000e1090009e1090002af8070008
:102d70000000e00001003c000044eb000804e0001b
:102d8000050032000000200001fc230040079800ed
:102d9000510798000d0037000200200003122400a4
:102da0000e1090009e10900079f70700020020009e
:102db000031a2400d4f707000200200003f02300c8
:102dc00074f70700400798005107980018c0b30037
:102dd000d2cc2c00c3ec23002e109000be1090002b
:102de0000bf807000000e000010035000044eb0094
:102df0000804e00005003200a099290091f12300a9
:102e000060079800710798001700370018c0b300da
:102e1000d2cc2c00c3f423002e109000be109000e2
:102e2000fdf707000000e00001003c000044eb005b
:102e30000804e00005003200d0cc2c00c1e42300df
:102e40006007980071079800070037002e11900066
:102e5000be1190000000200001f823004cf707008d
:102e6000600798007107980018c0b30002002000a6
:102e7000031f24000e1090009e109000e4f707003e
:102e80000000e000010035000044eb000804e00011
:102e9000050032000000200001e82300000f980028
:102ea000110f98001d00370018c0b3000200200069
:102eb000032224000e1090009e109000d6f7070009
:102ec0000000e00001003c000044eb000804e000ca
:102ed000050032000000200001f02300000f9800e0
:102ee000110f98000d00370002002000031f24007e
:102ef0000e1090009e10900025f7070002002000a1
:102f00000322240080f707000200200003e82300ca
:102f100020f70700000f9800110f980018c0b300a9
:102f2000d2cc2c00c3e423002e109000be109000e1
:102f3000b7f707000000e000010035000044eb0097
:102f40000804e000050032000000200001f4230026
:102f5000200f9800310f98001d00370018c0b300f3
:102f6000d2cc2c00c3ec23002e109000be10900099
:102f7000a9f707000000e00001003c000044eb005e
:102f80000804e000050032000000200001e82300f2
:102f9000200f9800310f98000d0037002e1190007f
:102fa000be119000d0cc2c00c1ec2300f8f6070035
:102fb00002002000030224000cf807000200200099
:102fc00003e82300f3f60700200f9800310f980064
:102fd0002e099000be0990000e0890009e089000f7
:102fe000ecf60700601798007117980018c0b3003e
:102ff00002002000031f24000e1090009e1090007d
:1030000083f707000000e000010035000044eb00fa
:103010000804e000040032006000b800400f98008f
:10302000510f98001d00370018c0b30002002000a7
:10303000032224000e1090009e10900076f70700e7
:103040000000e00001003c000044eb000804e00048
:10305000050032006066260061ee2300400f9800f4
:10306000510f98000d00370002002000031f2400bc
:103070000e1090009e109000c5f607000200200080
:1030800003092400d9f7070002002000832c240044
:103090001df70700400f9800510f980018c0b300ab
:1030a000d2cc2c00c3e423002e109000be10900060
:1030b00057f707000000e000010035000044eb0076
:1030c0000804e000050032006066260061ee23007f
:1030d000600f9800710f98001900370018c0b300f6
:1030e0000200200003f023002e109000be1090007c
:1030f00049f707000000e00001003c000044eb003d
:103100000804e000040032006000b800600f98007e
:10311000710f98000a0037002e119000be11900028
:103120000000200001f0230099f6070002002000b3
:1031300003fc2300adf70700600f9800710f9800a3
:103140006e1890001000be0053f707004e0190006b
:10315000de019000a5f707006e019000fe019000cf
:10316000a2f707006e119000fe1190009ff7070074
:103170004e119000de1190009cf7070028f7070021
:103180007e1990000089be007e1890001001be00dc
:103190006e1890001000be00800f5100818f590002
:1031a000040036006e1890001000be007e199000da
:1031b0000089be007e1890001000be0036f70700a0
:1031c0000004be00d2cc2c00c3dc23004e089000cb
:1031d000de0890006ff607006e099000fe0990006f
:1031e0006cf607000001be000800be007ff7070074
:1031f0000bf707004eb997000089be004f04be00d0
:083200000080fa000000060046
:020000040000fa
:103208000000fa0000802000c198200011009800fa
:1032180000802000c198200001087800008020006c
:10322800a00090000110a00021009800008020005c
:1032380020019000e1ff2f0081006100210098002b
:10324800008020008040eb006140980020012000b1
:10325800c024880000002800d02488009e24ef00a5
:103268008a20a9009a20a8007826a80040042000f7
:10327800b04188000080fa00000006000200fa0051
:1032880000802000e0409000014f78001e40780048
:103298000080fa00000006000000fa00604080008c
:1032a80066004000604088000ac8bf000040e9008e
:1032b8000ae8b7000ac8bf000004e00003003a00ab
:1032c8004000200040408800020037001000200025
:1032d800404088000080fa00000006000200fa0062
:1032e800000f78009a44a8007040800020009000e9
:1032f8000000e000030032007040800020009000d1
:103308001e0878000828ef000080fa000000060078
:103318000800fa00000f780021479800220798005b
:1033280033079800008020002000900061006000b2
:103338000000e0000a003a00ae0190002e41900023
:103348009e00780080992000780007003e019000d8
:103358008199200010c0b3001f0007000300370048
:103368003e0090008000eb00010878000080fa0021
:10337800000006000800fa00000f780021479800b6
:103388002207980033079800008020002000900052
:10339800610060000000e0000a003a00ae01900001
:1033a8002e4190009e0078002099200047000700d9
:1033b8003e0190002199200010c0b30006000700cc
:1033c800030037003e0090008000eb000108780001
:1033d8000080fa00000006000600fa00004f78009e
:1033e8001107980022079800008020002000900014
:1033f800610060000000e0002f003a002e009000fd
:1034080011002000010878000080200010007800da
:103418009e009000110098000080200010007800a5
:103428001e4878000080200010007800ae00900050
:10343800210098000080200010007800e60040007d
:1034480000802000010878000080200090007800ab
:1034580020992000808f500003003a00008020004f
:10346800c198200001087800008020002001900009
:10347800d1ff2f008100610021009800008020000a
:10348800900090000080200010007800808f50008d
:1034980004003a0000802000a00090000100a00075
:1034a80021009800404080000000e00005003a003c
:1034b8008a20a800030037002e0090008000eb004f
:1034c800010878000080fa00000006000800fa00f1
:1034d800000f7800110798004247980033079800ba
:1034e8003e00900000004000800078001e00780038
:1034f800010878001e00780010007800800078002d
:103508000100a0001e007800010878001e00780065
:10351800ce409000214098001e0078009e00900048
:10352800210098000080fa00000006000800fa0058
:10353800000f780011079800424798003307980059
:103548003e00900000004000800078001e007800d7
:10355800010878001e007800ce40900021409800b5
:103568001e0078009e009000210098000080fa005c
:10357800000006000000fa000080200020009000f3
:103588000000d100614060000080fb0000f0a7004f
:103598000000ea000000ea004f00de00004078006a
:1035a8000080fa00000006000000fa0000802000f9
:1035b80020009000614060000080fb0000f0a70040
:1035c8000000ea000000ea004f00de00004078003a
:1035d8000080fa00000006000800fa003007980092
:1035e8000000eb00000f78000000eb0010079800c7
:1035f800b0c0b3003e090700b0c0b3002d090700f2
:1036080010002000200798001e003700b0418000fd
:10361800e4004700810178000001780021c0b30070
:103628003e0090003aff070009003700b0c0b30021
:1036380050090700e14f400005003a001000200043
:1036480010079800b0c0b30029090700030037002d
:103658002e009000e10f5000f4ff32001e00900091
:10366800e10f50000c0032002e009000e20f5000d5
:10367800090032001e007800e50f500005003200f6
:103688001e0fe8002e0090000000e000dfff3a0067
:103698000100370000000000b0c0b30014090700a3
:1036a8002e009000e20f50000200320010c0b3005c
:1036b800010037000040eb000080fa00000006001f
:1036c8000a00fa0030079800014f98000000eb004c
:1036d800000f78000000eb0010079800b0c0b3009e
:1036e80003090700b0c0b300f2080700100020006b
:1036f800200798001e003700b0418000e400470012
:1037080081017800000178008e4890003e0090000a
:1037180018ff070009003700b0c0b30015090700fb
:10372800e14f400005003a00100020001007980003
:10373800b0c0b300ee080700030037002e00900069
:10374800e10f5000f4ff32001e009000e10f50001e
:103758000c0032002e009000e20f500009003200e9
:103768001e007800e50f5000050032001e0fe8002b
:103778002e0090000000e000dfff3a000100370053
:1037880000000000b0c0b300d90807002e00900068
:10379800e20f50000200320010c0b30001003700f1
:1037a8000040eb000080fa00000006000c00fa0060
:1037b80012c8bf000080fb00cf80de00220120007d
:1037c80003002000820f5000838f58008f013e00b5
:1037d8000060010012003700190037002c00370084
:1037e80034003700540037007d0037009000370060
:1037f80098003700c1003700c7003700270137009d
:10380800d9003700e1003700fd00370037013700e5
:103818003f013700520137005a013700ef003700e7
:103828000040eb008c0107002cc8bf00e14f50009e
:1038380078013a0010c0b30012e8b70084013700dd
:1038480040c2b30040479800b0c0b300504798004a
:103858006400470060ff0700004f78001e407800b2
:103868000004e00005003a00a0c0b300910807007a
:1038780020c0b30012e8b7007501370010c0b300cc
:103888002de8b70080c0b30012e8b7007001370018
:10389800a0c0b300b7080700e14f40005f013a003d
:1038a800a0c0b3009208070030c0b30012e8b70008
:1038b800670137006600470061c0b30080ff07005a
:1038c800004f78001e407800e24f5000050032009b
:1038d80010c0b3002de8b70080c0b30012e8b700ed
:1038e8005b0137006e4090000080fb00c800dd00df
:1038f8007e4090000080fb0000804000a0408800cf
:103908008e489000114798001e4890000080fb00e8
:10391800c800dd002e4890000080fb0000804000b9
:10392800b0408800be4890002147980040c0b300ce
:1039380012e8b70046013700b140800010002000af
:10394800e18f4000010031000000eb008000eb0037
:103958004cf5070002002000a3472400a1f507004a
:103968002df5070000007800c0408800a1408000c5
:1039780010002000e18f4000010031000000eb0042
:103988008000eb00f20a20000289b90002017800e9
:103998006002b9008401780003014100f30a2000a5
:1039a8000300b800010141008200780035f50700e6
:1039b800020020004323240073f4070002002000c3
:1039c8000312240087f5070013f5070000007800ac
:1039d800d040880050c0b30012e8b7001c0137007f
:1039e80030cfb30040479800d0c2b300504798008a
:1039f80064004700f8fe0700004f78001e4078007a
:103a08000004e00005003a00a0c0b3002908070040
:103a180060c0b30012e8b7000d01370010c0b30052
:103a28002de8b70080c0b30012e8b70008013700de
:103a3800a0c0b3004f080700e14f4000f9003a006a
:103a4800a0c0b3002a08070070c0b30012e8b7008e
:103a5800ff0037006600470031c0b30018ff0700b9
:103a6800004f78001e407800e24f500005003200f9
:103a780010c0b3002de8b70080c0b30012e8b7004b
:103a8800f30037006e4090000080fb00c800dd00a6
:103a98007e4090000080fb0000804000e0408800ed
:103aa8008e48900031479800e04080006300600035
:103ab8000000e0000500320010c0b3002de8b70098
:103ac80080c0b30012e8b700e1003700c0408000b2
:103ad8008000eb0090418800a1418800d040800020
:103ae8008000eb0070418800814188002d68ef005c
:103af8002c68ef001268ef00d500370010c0b30043
:103b0800d5000700e10f5000c8003a002c68ef000c
:103b18001268ef00ce00370000c3b300404798009a
:103b2800d0c6b3005047980064004700aafe0700bb
:103b3800004f78001e4078000004e00005003a00bd
:103b4800c0c0b300db070700b0c0b30012e8b7007d
:103b5800bf00370010c0b3002de8b70080c0b30025
:103b680012e8b700ba003700c0c0b3000108070068
:103b7800e14f4000af003a00c0c0b300dc070700c7
:103b8800c0c0b30012e8b700b100370030cfb300af
:103b980040479800d0c2b3005047980064004700df
:103ba8008dfe0700004f78001e4078000004e000fa
:103bb80005003a00a0c0b300be07070020c1b3004b
:103bc80012e8b700a200370010c0b3002de8b70014
:103bd80080c0b30012e8b7009d003700a0c0b30052
:103be800e4070700e14f400094003a00a0c0b3008a
:103bf800bf070700d0c0b30012e8b7009400370031
:103c08006600470031c0b300adfe0700004f7800e2
:103c18001e407800e24f50000500320010c0b3008b
:103c28002de8b70080c0b30012e8b700880037005d
:103c38006e4090000080fb00c800dd007e409000d0
:103c48000080fb0000804000e04088008e48900023
:103c580031479800e0408000630060000000e00009
:103c680005003a00e140800000002200008060006a
:103c78000000e00005003a0010c0b3002de8b700ce
:103c880080c0b30012e8b700710037002d68ef005c
:103c9800a0c0b30012e8b7006d00370000c3b3003e
:103ca8004047980060c6b30050479800640047003a
:103cb80049fe0700004f78001e4078000004e0002d
:103cc80005003a00a0c0b3007a070700e0c0b300bf
:103cd80012e8b7005e00370010c0b3002de8b70047
:103ce80080c0b30012e8b70059003700a0c0b30085
:103cf800a0070700e14f400052003a00a0c0b300ff
:103d08007b070700f0c0b30012e8b7005000370087
:103d180030cfb30040479800d0c2b3005047980056
:103d2800640047002cfe0700004f78001e40780012
:103d38000004e00005003a00a0c0b3005d070700da
:103d480000c1b30012e8b7004100370010c0b3004b
:103d58002de8b70080c0b30012e8b7003c00370078
:103d6800a0c0b30083070700e14f400037003a00c6
:103d7800a0c0b3005e07070010c1b30012e8b70087
:103d8800330037006600470031c0b3004cfe07001f
:103d9800004f78001e407800e24f500005003200c6
:103da80010c0b3002de8b70080c0b30012e8b70018
:103db800270037006e4090000080fb00c800dd003f
:103dc8007e4090000080fb0000804000e0408800ba
:103dd8008e48900031479800e14080003000220072
:103de800008060000000e0000500320010c0b30051
:103df8002de8b70080c0b30012e8b7001400370000
:103e08002d68ef001268ef00110037000000000075
:103e18000f003700000000000d0037000000000010
:103e28000b00370000000000090037000000000008
:103e38000700370000000000050037000000000000
:103e480003003700000000000100370000000000f8
:103e58000080fa00000006000200fa00004f780017
:103e68001e4078000004e00005003a0090c0b3004e
:103e78001f0707007826a800100020001a00370046
:103e8800804080000000e00003003200e10f500095
:103e98000a0032001300370090c0b300140707006f
:103ea80090c0b300030707007826a900100020007f
:103eb800804088000000eb000b00370090c0b30082
:103ec8002c070700e14f400004003a007826a800bc
:103ed8001028ef0010002000030037000000eb005e
:103ee800010037000000eb000080fa000000060027
:020000040000fa
:103ef8009e0900000a000000800000005a08000027
:103f080010000000800000006e08000002000000a1
:103f180082000000fe0f0000fc0800003c000000ca
:103f280080000000260800001e000000800000003d
:103f3800720800008a00000080000000700800007d
:103f48000200000080000000440800001600000085
:103f580080000000700900001c00000082000000c2
:103f68000a00020000b80b001027100027f4010017
:103f7800c409f40001f4010001000400000200007b
:103f88008813b8000b000000380900003800000052
:103f9800800000006a0800000400000080000000a3
:103fa8008c090000120000008000000000080000da
:0c3fb80026000000800000000000000057
:020000040000fa
:104034000000fa00ba030400000000000080fa0047
:044044000000060072
:020000040000fa
:104048000000fa0068030400000000000080fa0085
:04405800000006005e
:020000040000fa
:10405c000000fa000c030400000000000080fa00cd
:04406c00000006004a
:020000040000fa
:104070000000fa00dc030400000000000080fa00e9
:044080000000060036
:020000040000fa
:104084000000fa00a13d800000fc2f0000806000c9
:10409400f000b300a03d8800113f800000f82f001d
:1040a400008060003000b300103f88002002200030
:1040b400001d880080002000c01c88009a23ef00a7
:1040c40099e3a8009be3a9009ba3a8009b43a80035
:1040d4008960a9008980a9009960a8007a06a900ce
:1040e4002087200008000700408b200006000700fe
:1040f400c0392200b0478800c0582200c047880059
:104104000080fa00000006000200fa00000f7800a8
:104114001e007800c20320008000eb0050f407006a
:104124001e0078008040eb0001c098001e0078005b
:104134008040eb00617898001e0078008040eb001e
:10414400517898001e0078008040eb004178980078
:104154001e0078008040eb00717898000080fa001f
:10416400000006000200fa00000f78001e0078002c
:104174008040eb0001c098001e0078008040eb00f6
:10418400617898001e0078008040eb005178980018
:104194001e0078008040eb00417898001e007800f3
:1041a4008040eb00717898000080fa00000006005f
:1041b4000200fa00004f7800208b200010407800a5
:1041c400704060000004e000af003a00008b200063
:1041d400104078000080fb00e20f500029003200fc
:1041e400e20f500005003c000000e0000a0032002d
:1041f400e10f50001200320099003700e40f500024
:1042040064003200e40f500039003500e50f50001f
:1042140070003200920037001e407800e24f5000d8
:1042240092003a009e407800208720009800070002
:10423400008b200011c0b3000148780092003700c1
:104244009e407800208720009100070000ceb30034
:104254001e40400070e8b70070c8bf00a10007000e
:104264000004e00003003a0020872000bdff07009f
:1042740085003700008b200021c0b300014878007e
:10428400810037009e4078002087200080000700ce
:1042940080c2b3009e40780080cf500004003600f6
:1042a400c0c5b3009e40780080cf500003003600a4
:1042b40020872000abff07007300370000ceb30057
:1042c4009e404000e08a200001487800e08a2000f7
:1042d40010407800e5405000e08a20000148780052
:1042e400008b200031c0b30001487800660037001d
:1042f400108b2000104078000004e000120032000f
:1043040000c3b3009e40780080cf50000a00320002
:1043140020c3b3009e40780080cf500006003200d6
:1043240030c3b3009e40780080cf500002003200ba
:10433400208720008bff0700108b20008040eb00bb
:1043440001487800060037001e407800fb4f5000fb
:1043540003003a00108b200011c0b300014878001c
:104364009e4078002087200049000700f08a200042
:1043740090407800e08a20001040780080cf500000
:104384003c003a00008b200041c0b3000148780093
:104394003d0037009e407800208720003c00070045
:1043a400f08a2000104078008080fb00e08a200022
:1043b400104078000080fb0064004000808f5000b3
:1043c4002e003a00008b200051c0b3000148780051
:1043d4002d0037001e407800e34f500004003a00df
:1043e40020872000550007000004e00003003a0085
:1043f400208720005bff0700230037009e407800e1
:104404002087200022000700e08a20001040780066
:10441400e3405000e08a2000014878000187200032
:104424009140780026c8bf0080cf500003003a00b6
:10443400904580000030a000904588007d00070072
:10444400208b200010407800684060000004e000e9
:104454000c003a002087200042ff07000a003700c2
:10446400208720003fff07000700370000000000fe
:1044740005003700000000000300370000000000c2
:1044840001003700000000000080fa000000060070
:104494000400fa00000f7800214798001e007800fd
:1044a400507890008080fb001e017800ae4190009f
:1044b40003f178008040e8001e00780051789800ed
:1044c4001e007800d0789000b0c3b30080cf5000b5
:1044d400020036001e00780022ff07000080fa0068
:1044e400000006000200fa00004f78001e40780029
:1044f4000004e0000400320010c3b3009e407800c2
:1045040080cf50000800360040c6b3009e407800bb
:1045140080cf50000600360050c9b3009e4078009a
:1045240080cf500002003e0010c0b30001003700ed
:104534000040eb000080fa00000006000600fa00cc
:10454400200798002e009000407890008080fb00a7
:104554002e0090000001eb0081020700000f78009c
:104564002e009000507890000080fb006400500002
:10457400ae009000614078000080fb000002b100b2
:104584004c00dd00100798002e0090005078900039
:104594000080fb0063005000ae0090006140780092
:1045a4000080fb000002b1004800dd009e00900086
:1045b40001007000100798002e00900050789000c1
:1045c4000080fb000080e900ae00900061407800ac
:1045d4000080fb000002b1004400dd009e0090005a
:1045e40001007000100798002e0090005078900091
:1045f4000080fb000000e900ae00900061407800fc
:104604000080fb000002b1009e00900001007000d9
:10461400100798001e0090009e0f500002003a0000
:1046240010c0b300010037000040eb000080fa0026
:10463400000006000600fa005087200010079800ca
:104644000040eb00104798009e409000014f780016
:104654002b0037001e80fb009e009000008040006d
:1046640090407800414798001e4fe8004e4090006b
:10467400fb4f500019003a001e80fb009e00900082
:10468400008040009040780000cdb30000c040009e
:10469400404798001e4fe8004e4090000004e000a0
:1046a40007003a001e4090000080fb009e0090002e
:1046b40000804000b1c1b300014878000d0037000c
:1046c4001e4090000080fb009e009000008040008f
:1046d400ce40900001487800060037001e4090004c
:1046e4000080fb009e00900000804000ce409000bf
:1046f400014878001e4090000040e80010479800f0
:10470400e08a2000104078009e4f5000d1ff3e0008
:10471400e08a2000904078001e4090001e40500027
:1047240080c04000e08a2000014878000080fa0040
:10473400000006000800fa0020079800614798006e
:104744000040eb00004f78001e4078008080fb00a2
:104754002e01900023c0b30003f178000040e8006c
:10476400004f78001e4078008080fb00ee419000ee
:1047740042c8b30082c141002e01900003f17800c9
:104784000040e800004f78001e4078000040e80038
:10479400004f78006090200010407800804078003e
:1047a4002e009000014178008e007800b8010700c7
:1047b400c08f200010407800804078002e009000c8
:1047c400014178008e007800b1010700f08f2000cd
:1047d40010407800804078002e009000014178005d
:1047e4008e007800aa0107002e0090000041eb0023
:1047f4008e007800a60107002e00900012c0b300be
:104804008e007800a20107002e00900032c0b30091
:104814008e0078009e0107005049800061498000a5
:10482400804078002e009000014178008e007800ce
:1048340097010700524980006349800000f02f006f
:104844000100200002027800030178008001780052
:104854000100780003026200000061008000eb00a8
:10486400c000dd00000020000001be006120b8008f
:104874000001710081817100481add004810de00da
:1048840000007200c818de00804078002e009000fe
:10489400014178008e0078007d0107007049800096
:1048a40081498000804078002e009000014178000a
:1048b4008e007800760107007249800083498000e9
:1048c40000f02f00010020000202780003017800ac
:1048d400800178000100780003026200000061009a
:1048e4008000eb00c000dd00000020000001be00dd
:1048f4006120b8000001710081817100481add0057
:104904004810de0000007200c818de008040780005
:104914002e009000014178008e0078005c010700b1
:1049240090498000a1498000804078002e009000ca
:10493400014178008e0078005501070092498000fb
:10494400a349800000f02f0001002000020278003b
:1049540003017800800178000100780003026200fe
:10496400000061008000eb00c000dd0000002000ba
:104974000001be006120b800000171008181710056
:10498400481add004810de0000007200c818de007e
:10499400804078002e009000014178008e0078005d
:1049a4003b010700609320001040780080407800ad
:1049b4002e009000014178008e0078003401070039
:1049c4007093200010407800804078002e00900002
:1049d400014178008e0078002d0107001e40780008
:1049e40052c2b300824040002e0090002140980043
:1049f4001e407800e54040002e0090004178980069
:104a04001e4078008080fb002e0090000001eb0027
:104a140053010700f10f2000810060001e41900047
:104a24006041610081407100114798004800de0038
:104a3400ae409000e0c0600000c0700020479800c5
:104a44001e4078008080fb002e4190000281fb0014
:104a54004411de000241780004c2b30084414100e5
:104a64002e01900003f178000040e800004f780028
:104a74001e4078008080fb002e4190006f41610051
:104a840004c2b300844141002e01900003f1780078
:104a94000040e800004f78001e4078008080fb0052
:104aa4001e4190000281fb004411de0002417800a7
:104ab40004c2b300844141002e01900003f1780048
:104ac4000040e800004f78001e4078008080fb0022
:104ad4001e4190006f41610004c2b3008441410053
:104ae4002e01900003f178000040e800004f7800a8
:104af4001e4078008080fb002e01900033c0b3007c
:104b040003f178000040e800004f78000080fa00cc
:104b1400000006000c00fa0040079800214f98009e
:104b240030c0b300004f78001e80fb00ce00900020
:104b3400e140780060902000014878001e4fe800b2
:104b44001e80fb00ce009000e140780070902000b1
:104b5400014878001e4fe800609020001040780063
:104b64000080fb00f30f50000e003200f40f5000e1
:104b7400b6003200e10f5000c2003a001e80fb0074
:104b8400ce009000e1407800c090200001487800f9
:104b94001e4fe800c09020008040eb0001487800e0
:104ba400b90037001e80fb00ce009000e140780081
:104bb400d0902000014878001e4fe8001e80fb00c2
:104bc400ce009000e1407800e09020000148780099
:104bd4001e4fe8001e80fb00ce009000614078006c
:104be400104798001e4fe8001e80fb00ce00900086
:104bf40061407800204798001e4fe8001e40900056
:104c04000080fb00ae4090008180fb00c808dd00fe
:104c140001007000cf80de00804888009148880041
:104c24001e80fb00ce009000614078001047980081
:104c34001e4fe8001e80fb00ce009000614078000b
:104c4400204798001e4fe8001e4090000080fb00a3
:104c5400ae4090008180fb00c808dd0001007000b8
:104c6400cf80de00a0488800b14888001e80fb0089
:104c7400ce00900061407800104798001e4fe80075
:104c84001e80fb00ce009000614078002047980011
:104c94001e4fe8001e4090000080fb00ae409000d4
:104ca4008180fb00c808dd0001007000cf80de00b9
:104cb400c0488800d14888001e80fb00ce009000c8
:104cc40061407800104798001e4fe8001e80fb00ea
:104cd400ce00900061407800204798001e4fe80005
:104ce4001e4090000080fb00ae4090008180fb00dd
:104cf400c808dd0001007000cf80de00e0488800b5
:104d0400f14888001e80fb00ce009000e14078004e
:104d140000922000014878001e4fe8001e80fb002e
:104d2400ce009000e1407800109220000148780005
:104d34001e4fe8001e80fb00ce009000614078000a
:104d4400104798001e4fe8001e80fb00ce00900024
:104d540061407800204798001e4fe8001e409000f4
:104d64000080fb00ae4090008180fb00c808dd009d
:104d740001007000cf80de001049880021498800be
:104d84001e80fb00ce009000614078001047980020
:104d94001e4fe8001e80fb00ce00900061407800aa
:104da400204798001e4fe8001e4090000080fb0042
:104db400ae4090008180fb00c808dd000100700057
:104dc4008040780060922000014878001e80fb003b
:104dd400ce00900061407800104798001e4fe80014
:104de4001e80fb00ce0090006140780020479800b0
:104df4001e4fe8001e4090000080fb00ae40900073
:104e04008180fb00c808dd0001007000804078004c
:104e140070922000014878001e80fb00ce009000b4
:104e2400e140780080922000014878001e4fe8009d
:104e34001e80fb00ce009000e1407800909220009c
:104e4400014878001e4fe8000f0037001e80fb0069
:104e5400ce009000e1407800509020000148780096
:104e64001e4fe8001e80fb00ce009000e140780059
:104e740040902000014878001e4fe8000000000028
:104e840001003700000000000080fa000000060066
:104e94000800fa001007980021079800624798005c
:104ea4002e009000104f78006e409000e24f5000aa
:104eb400030032006e409000e34f50000e003a00b1
:104ec4001e80fb009e00900000804000b1c1b30032
:104ed400014878001e4fe8001e80fb009e009000f1
:104ee40000804000ee4090000143b000014878008b
:104ef4001e4fe800160037006e409000fb4f500034
:104f04000d003a001e80fb009e00900000804000cf
:104f1400b1c1b300014878001e4fe8001e80fb00b9
:104f24009e0090000080400001c3b3000148780057
:104f34001e4fe800060037001e80fb009e00900014
:104f440000804000ee409000014878001e4fe800c9
:104f54002e0090001e4878000080fa000000060031
:104f64000c00fa0030079800410798005207980097
:104f74006000b800008fbe00180037003e009000ab
:104f8400104078008080fb005e0090008080680004
:104f9400f00f200000806000200798005e00900061
:104fa400c800de002e00900000014000009428009c
:104fb400000041001000780000806800500798004d
:104fc4003e0090000000e800300798001200200026
:104fd400030020001e0f41005e9749004e00900020
:104fe4008000eb00be0f5000ae8f5800e3ff3e0080
:104ff4005e0090000080fa00000006000000fa0045
:1050040004000700220007004c0007000080fa009b
:10501400000006000000fa00208b200010407800f9
:10502400684060000004e0001700320010c0b300c4
:10503400d10207000004e00003003a0010c0b300ee
:105044009d0207001000370010c0b300ca02070019
:10505400e14f40000c003a00c247800026c8bf0060
:105064008040780020872000020001002087200073
:1050740025fc0700904580000020a0009045880092
:1050840010c0b3009b0207000080fa000000060075
:105094000000fa00208b200010407800644060007b
:1050a4000004e00018003200408f20001040780017
:1050b4000042b2000004e00013003a009145800071
:1050c400b0ff2f000080600090458800408b2000d6
:1050d4000dfc0700b247800026c8bf00804078005e
:1050e400408b200002000100a04780000010a000b7
:1050f400a047880020c0b3006f02070030c0b3008f
:105104007c0207000b003700208b20001040780041
:10511400644060000004e00006003a0020c0b300d0
:10512400950207000004e00002003a0020c0b3002a
:10513400610207000080fa00000006000000fa0087
:10514400408f200010407800624060000004e000be
:1051540025003200408f2000104078000042b20049
:105164000004e0001d003a00008f20009040780009
:10517400c0c3b30080cf50001a003e007a06a800d6
:105184008980a9009980a800a04780000050a00051
:10519400a047880000000000d11c800000102000ff
:1051a400008060000000e000fbff3200108f200050
:1051b400104078000081fb00418b200081004100f9
:1051c400914078008180fb00e11c88008040e80069
:1051d400108f200001487800030037000000000011
:1051e40001003700000000000080fa000000060003
:020000040000fa
:1051f4000000fa006626ef007a26ef008e26ef0004
:105204007426ef008826ef009c26ef007226ef003c
:105214008626ef009a26ef006826ef007c26ef0032
:105224009026ef0030002000503388007e26ef00e7
:105234009226ef007e46a9007e66a9009206a90088
:105244009226a9009246a9007606a9007626a9000e
:105254007646a8007666a9007686a90076e6a800b8
:105264007706a9007726a8007746a9007766a900e3
:105274007786a90077a6a80077c6a90077e6a800d4
:105284008a06a8008a26a8008a46a8008a66a8007a
:105294008a86a8008aa6a8006206a8006226a8003a
:1052a4006246a8006266a8006306a9000080fa00ae
:1052b400000006000000fa0081e0a90081058000da
:1052c400f0f82f00008060000040a00080058800f6
:1052d4000080fa00000006000000fa000040eb0025
:1052e400250207000004e00002003a000040eb0041
:1052f400f10107000040eb001f020700e14f4000ee
:1053040006003a000040eb00eb0107003001070003
:10531400e042800003000700d04288000080fa00c9
:10532400000006000400fa00100798005ec8bf00e1
:10533400e34f500004003e005ec8bf000040e80098
:105344005ee8b700010037005e68ef005ec8bf008a
:105354000080fb002e419000e199200082707800cb
:105364005ec8bf000080fb003e419000319a2000df
:10537400827078000040eb00004f78000401370091
:105384001e80fb00110020000008dd0000407800b2
:1053940067e8b70030c0b300104798004b003700ef
:1053a400e1852000914078001e40900000c050002c
:1053b40063e8b70063c8bf000004e00003003d00d9
:1053c40063c8bf006540400063e8b700e185200082
:1053d400914078001e40900000c050000040e90059
:1053e40064e8b70064c8bf000004e00003003d00a7
:1053f40064c8bf006540400064e8b70063c8bf00ec
:105404000000fb00e1992000e140780064c8bf007f
:105414000000fb00e29920006240780080c0680030
:1054240067c8bf0000c060000004e0000300320051
:1054340061c8bf000040e80061e8b70063c8bf006e
:105444000000fb00e1992000e140780067c8bf003c
:1054540000c060000004e0000400320060c8bf0027
:105464000040e80060e8b700030037005fc8bf00f1
:105474000040e8005fe8b7001e4090000004e00030
:105484000f003a0064c8bf000000fb00e19920004f
:10549400e140780067c8bf0000c060000004e0007d
:1054a4000400320060c8bf000040e80060e8b700b4
:1054b400030037005fc8bf000040e8005fe8b700a2
:1054c4001e4090000040e900104798001e409000e4
:1054d4000004e000b2ff3d0061c8bf00e24f50008d
:1054e4000e0036005fc8bf00e24f500002003600d5
:1054f4006268ef001200370060c8bf00e24f50003e
:105504000300360010c0b30062e8b7000c00370097
:1055140020c0b30062e8b70009003700f18520001d
:105524009140780060c8bf0080cf50000200360070
:105534006268ef000200370010c0b30062e8b700f1
:105544005f68ef006068ef006168ef0062c8bf0049
:10555400e24f50000e0032001e4078000004e000cc
:1055640003003a0062c8bf0065e8b70008003700ce
:1055740062c8bf008080fb001e80fb000008dd00c5
:105584008040780065c8bf0000c0700065e8b700bf
:1055940030c0b300104798004b003700e18520006d
:1055a400914078001e40900000c0500063e8b700ae
:1055b40063c8bf000004e00003003d0063c8bf00ef
:1055c4006540400063e8b700e18520009140780021
:1055d4001e40900000c050000040e90064e8b7009d
:1055e40064c8bf000004e00003003d0064c8bf00bd
:1055f4006540400064e8b70063c8bf000000fb00da
:10560400319a2000e140780064c8bf000000fb002c
:10561400329a20006240780080c0680067c8bf00ea
:1056240000c060000004e0000300320061c8bf0055
:105634000040e80061e8b70063c8bf000000fb0059
:10564400319a2000e140780067c8bf0000c06000c4
:105654000004e0000400320060c8bf000040e8001d
:1056640060e8b700030037005fc8bf000040e800ef
:105674005fe8b7001e4090000004e0000f003a000d
:1056840064c8bf000000fb00319a2000e1407800ac
:1056940067c8bf0000c060000004e00004003200de
:1056a40060c8bf000040e80060e8b70003003700ae
:1056b4005fc8bf000040e8005fe8b7001e409000ec
:1056c4000040e900104798001e4090000004e000ec
:1056d400b2ff3d0061c8bf00e24f50000e0036002b
:1056e4005fc8bf00e24f5000020036006268ef005e
:1056f4001200370060c8bf00e24f500003003600bc
:1057040010c0b30062e8b7000c00370020c0b3003b
:1057140062e8b70009003700f18520009140780065
:1057240060c8bf0080cf5000020036006268ef00fe
:105734000200370010c0b30062e8b7005f68ef00f2
:105744006068ef006168ef0062c8bf00e24f50007c
:105754000e0032001e4078000004e00003003a000e
:1057640062c8bf0066e8b7000800370062c8bf001f
:105774008080fb001e80fb000008dd008040780074
:1057840066c8bf0000c0700066e8b7001e4fe8009e
:105794001e407800e74f5000f9fe360065c8bf0090
:1057a40068e8b70066c8bf0069e8b70040438000f6
:1057b4000080fa00000006000000fa00d0428000d9
:1057c4004600de00614060000080fa000000060030
:1057d4000000fa00603480004200de006140600096
:1057e4000080fb0061006000e2428000e1ff2f00c6
:1057f4008100610001007000e04288006034800094
:105804000000d100614060000080fb006100600086
:1058140000004000e2428000d1ff2f0081006100bf
:1058240001007000e042880060348000004078008d
:10583400614060000080fb00610060004200dd0008
:10584400e2428000b1ff2f0081006100010070007e
:10585400e0428800603480004300de006140600064
:105864000080fb00610060004300dd00e242800034
:1058740071ff2f008100610001007000e042880088
