:020000040000fa
:0400080014220000be
:020000040000fa
:04000c0014220000ba
:020000040000fa
:0400100014220000b6
:020000040000fa
:0400140014220000b2
:020000040000fa
:0400180014220000ae
:020000040000fa
:04001c0014220000aa
:020000040000fa
:0400200014220000a6
:020000040000fa
:0400240014220000a2
:020000040000fa
:04002800142200009e
:020000040000fa
:04002c00142200009a
:020000040000fa
:040030001422000096
:020000040000fa
:04003400f2210000b5
:020000040000fa
:04003800142200008e
:020000040000fa
:04003c00142200008a
:020000040000fa
:040040001422000086
:020000040000fa
:040044001422000082
:020000040000fa
:04004800142200007e
:020000040000fa
:04004c00142200007a
:020000040000fa
:040050001422000076
:020000040000fa
:04005400a0210000e7
:020000040000fa
:04005800442100003f
:020000040000fa
:04005c00142200006a
:020000040000fa
:040060001422000066
:020000040000fa
:040064001422000062
:020000040000fa
:04006800142200005e
:020000040000fa
:04006c00142200005a
:020000040000fa
:040070001422000056
:020000040000fa
:040074001422000052
:020000040000fa
:04007800142200004e
:020000040000fa
:04007c00142200004a
:020000040000fa
:040080001422000046
:020000040000fa
:040084001422000042
:020000040000fa
:04008800142200003e
:020000040000fa
:04008c00142200003a
:020000040000fa
:040090001422000036
:020000040000fa
:040094001422000032
:020000040000fa
:04009800142200002e
:020000040000fa
:04009c00142200002a
:020000040000fa
:0400a0001422000026
:020000040000fa
:0400a4001422000022
:020000040000fa
:0400a800142200001e
:020000040000fa
:0400ac00142200001a
:020000040000fa
:0400b0001422000016
:020000040000fa
:0400b4001422000012
:020000040000fa
:0400b800142200000e
:020000040000fa
:0400bc00142200000a
:020000040000fa
:0400c0001422000006
:020000040000fa
:0400c4001422000002
:020000040000fa
:0400c80014220000fe
:020000040000fa
:0400cc0014220000fa
:020000040000fa
:0400d00014220000f6
:020000040000fa
:0400d40014220000f2
:020000040000fa
:0400d80014220000ee
:020000040000fa
:0400dc0014220000ea
:020000040000fa
:0400e00014220000e6
:020000040000fa
:0400e40014220000e2
:020000040000fa
:0400e80014220000de
:020000040000fa
:0400ec0014220000da
:020000040000fa
:0400f00014220000d6
:020000040000fa
:0400f40014220000d2
:020000040000fa
:0400f80014220000ce
:020000040000fa
:0400fc0014220000ca
:020000040000fa
:0401000014220000c5
:020000040000fa
:0401040014220000c1
:020000040000fa
:0401080014220000bd
:020000040000fa
:04010c0014220000b9
:020000040000fa
:0401100014220000b5
:020000040000fa
:0401140014220000b1
:020000040000fa
:0401180014220000ad
:020000040000fa
:04011c0014220000a9
:020000040000fa
:0401200014220000a5
:020000040000fa
:0401240014220000a1
:020000040000fa
:04012800142200009d
:020000040000fa
:04012c001422000099
:020000040000fa
:040130001422000095
:020000040000fa
:040134001422000091
:020000040000fa
:04013800142200008d
:020000040000fa
:04013c001422000089
:020000040000fa
:040140001422000085
:020000040000fa
:040144001422000081
:020000040000fa
:04014800142200007d
:020000040000fa
:04014c001422000079
:020000040000fa
:040150001422000075
:020000040000fa
:040154001422000071
:020000040000fa
:04015800142200006d
:020000040000fa
:04015c001422000069
:020000040000fa
:040160001422000065
:020000040000fa
:040164001422000061
:020000040000fa
:04016800142200005d
:020000040000fa
:04016c001422000059
:020000040000fa
:040170001422000055
:020000040000fa
:040174001422000051
:020000040000fa
:04017800142200004d
:020000040000fa
:04017c001422000049
:020000040000fa
:040180001422000045
:020000040000fa
:040184001422000041
:020000040000fa
:04018800142200003d
:020000040000fa
:04018c001422000039
:020000040000fa
:040190001422000035
:020000040000fa
:040194001422000031
:020000040000fa
:04019800142200002d
:020000040000fa
:04019c001422000029
:020000040000fa
:0401a0001422000025
:020000040000fa
:0401a4001422000021
:020000040000fa
:0401a800142200001d
:020000040000fa
:0401ac001422000019
:020000040000fa
:0401b0001422000015
:020000040000fa
:0401b4001422000011
:020000040000fa
:0401b800142200000d
:020000040000fa
:0401bc001422000009
:020000040000fa
:0401c0001422000005
:020000040000fa
:0401c4001422000001
:020000040000fa
:0401c80014220000fd
:020000040000fa
:0401cc0014220000f9
:020000040000fa
:0401d00014220000f5
:020000040000fa
:0401d40014220000f1
:020000040000fa
:0401d80014220000ed
:020000040000fa
:0401dc0014220000e9
:020000040000fa
:0401e00014220000e5
:020000040000fa
:0401e40014220000e1
:020000040000fa
:0401e80014220000dd
:020000040000fa
:0401ec0014220000d9
:020000040000fa
:0401f00014220000d5
:020000040000fa
:0401f40014220000d1
:020000040000fa
:0401f80014220000cd
:020000040000fa
:0401fc0014220000c9
:020000040000fa
:08400800382004000000000054
:020000040000fa
:104034000000fa00f2210400000000000080fa00f1
:044044000000060072
:020000040000fa
:104048000000fa00a0210400000000000080fa002f
:04405800000006005e
:020000040000fa
:10405c000000fa0044210400000000000080fa0077
:04406c00000006004a
:020000040000fa
:10407000af1321000e7f24000e0188000000000015
:10408000000020000000e0000200320000012000db
:104090002002880014000700e50007000000e0008f
:1040a00003003a00202b240001002000020037000a
:1040b0000000200001002000810f7000010032008c
:1040c00014000700000020000000e00002003200a1
:1040d000000002000000000050420200000000004a
:1040e0000040da000000fe004440a90080222000c9
:1040f0000000e00003003200002020009001880052
:104100004440a800000006008a1f78008b1f78003a
:1041100000000600a1028800800478000000eb0087
:104120001f003700e284440054a0b4009905ba008f
:10413000e284440054a0b4009906ba00e28444002a
:1041400054a0b4000006eb00476fde00fd07b2008c
:10415000ae018800636ce10003003a00eaff07004b
:104160000000eb000e003700606ce10008003a0030
:10417000004deb000a05e800020039003420ec0095
:104180000af0a0008b05e900f9ff3e0004003700ab
:104190006168e100010032000086eb000b000700bf
:1041a00019c7ba001905ba000e04e00003003a006e
:1041b0000a00e000dbff3a0000000600fe07b20044
:1041c000ae0288008a047800f5ff37000cd0a30007
:1041d000e20f4d001c00390089027800354dba000d
:1041e0000a05e800020039003420ec000af0a000c3
:1041f0008b05e9000f003200254dba000a05e800e2
:10420000020039003420ec000af0a0008b05e90020
:10421000080032000c00e0000600320015cdba00a4
:104220000a05e800020039003420ec000af0a00082
:104230008b05e9008984e80054a0b4000b00e0007d
:10424000e2ff3a00000006009902ba00055d78001e
:104250008b05e900f7ff3200c82ade00055d780013
:104260008b05e900f3ff32000c00e000f1ff3200a3
:1042700019ddba00eeff370000000000000000006a
:104280000000000000000000809fbe00821f780038
:104290000000fa00c10480000000210000806000de
:1042a0000000e000220032004104800000002100f4
:1042b000008060000000e0001d0032008980a9003d
:1042c000500b210090407800400b210010407800f6
:1042d00080cf50000b0039007a06a9009980a90010
:1042e000c1858000f0fd2f0000806000c08588003f
:1042f000c1858000d0ff2f0000806000c08588004d
:104300000b003700500b2100104078000081fb00ab
:104310008107210081004100914078008180fb00ed
:10432000e11c88008040e800500b21000148780023
:104330000080fa004f0178004f00be0000400600e8
:104340003600f800809fbe00829fbe00849fbe00a2
:10435000869fbe000000fa00c1048000008020009b
:10436000008060000000e00017003200410480007f
:1043700000802000008060000000e0001200320099
:104380008960a900d01c8000620060000000e0008d
:10439000030032009a23a90060032100d609070018
:1043a000d01c8000640060000000e00003003200c8
:1043b000f01c800060032100cf090700f01c800082
:1043c00000407800df0907000080fa004f03be00bc
:1043d0004f02be004f01be004f00be003600f90084
:1043e00000400600801f78003200f8003400f8001a
:1043f00010002000a001880000202000900188000b
:104400000000fa008860a900708180000000e800c8
:10441000708188000080fa003400f9003200f90051
:104420004f007800004006000040da000000fe0067
:104430000000050003f0a200889fbe008a9fbe0016
:104440008c1f7800f7000700fe0033006450e10085
:104450004f0032006420e1005200320003826c0001
:1044600007003b000905d0000306d000820f54006e
:104470000c065d000200390002003200890178005c
:10448000030678008582550004003d000003fd000e
:104490008103fd008502ea008b854200840f7200d3
:1044a00002003b0060001000e08018006011b800be
:1044b0000005eb007a28e1000a00390006007800c8
:1044c000c75ddd00f707b200878075002d0037005b
:1044d000828171000a017800610560008180d1004d
:1044e0000080d3008502e900f9ff3b00060440008c
:1044f0008784480002003b0060041400e0841c0034
:104500000988a300070032008a817100828171004e
:10451000610164008904d1000884d3008b05e800a0
:10452000170037000978a30013003a000b00e000e1
:10453000130034008b05e9000804440089844c0012
:104540000a4474000978a3000d003a000b00e00053
:10455000070034008b05e9000804440089844c00fe
:1045600001003a000b0020000978a300f7ff320099
:104570000001eb0002003700828171000a0178001f
:104580006d0007000cf0a70001f0a000b600370096
:104590006420e10002003a00838f6c00b600330013
:1045a0000801be000200be00af003700889fbe00b9
:1045b0008a9fbe008c1f78009a000700a10033007c
:1045c00003866c006450e1002e0032006420e1009c
:1045d000330032006150e1002f0032006120e10021
:1045e0003100320085855500eb07b000090020003e
:1045f00008042000050037000804440089844c00aa
:104600000a0031000603430087834b00000153007a
:1046100081815b00f8ff33000203be000800a000a8
:104620000804440089844c00f6ff3900c639dd00d7
:104630008301730001003200130020008904d100bf
:104640000884d3000998a300050032000800a700e1
:104650000300a0008904d1000884d3008b05e80082
:104660008904d1000884d3000001eb000281d2004c
:104670003100070001f0a1000cf0a70001f0a0003c
:10468000790037006420e1007b0032000801be00a1
:104690000200be00f7ff37006120e1007600320023
:1046a0006000b800f3ff37000000200001f8270089
:1046b000f0ff370014002000b6003700f4ff2f0091
:1046c000b40037000001be00410007000470a700dd
:1046d00003f0a10003f8a30013003a006509b1003c
:1046e00010003200090035006928e10002003500a1
:1046f0000100280000000500000040008180480003
:104700008502e900fcff3a0000000600f88f420035
:10471000050035008100d1000080d3008502e8004b
:10472000fcff3a00000006008000eb0000000500de
:104730006011b800b2003700810020006180550090
:104740000b003d000b00200061fe2f000100e10086
:104750001d00340082817100610164008904d10070
:104760000884d3000000e800faff3a00710020003e
:104770006100640003007000020060000900320064
:1047800061044400e0844c000988a5000500320063
:104790008b05e8006808e10002003a008904d100b6
:1047a0000884d300f20f20000258e10005003d000c
:1047b000c75ddd00f907b200898075000800780048
:1047c000000006000bf827008b00780000000500b1
:1047d000c70ade00f107b200f50fb2000800320090
:1047e000e1cf4200020032000170a0002400050069
:1047f000810f70000100320004080500440005002c
:10480000810f700002003a00140005008502e900e3
:104810000000400081c04800fcff3b000170a00088
:10482000240005000004be00e9ff07000003be00ed
:104830000405be000200be00e5ff0700844f7500be
:10484000000006000200be006450e10005003600d2
:104850006420e100020036000968a30001003a006c
:104860000800be000160a0004f0678004f05be00a2
:104870004f04be0000000600f0ff2f00f1ff2700ec
:10488000f9ff3700889fbe008a9fbe008c1f78000a
:10489000e4ff0700ebff330003866c006450e10087
:1048a000240032006420e100270032006150e10062
:1048b000220032006120e100210032008b8542009d
:1048c000eb07b1000134b800003ab8000804420018
:1048d00089844a00013ab8000030b800888040005e
:1048e00009014a00040033000000400081804800b4
:1048f000020149008b05e900c909dd008301700050
:104900000100320013002000c814de004814dd004e
:104910004709de001200b200c808de0008847000fb
:1049200085ff070001f0a1000cf0a70001f0a00036
:10493000cdff37006120e100cfff32000801be004b
:104940000200be00f7ff37006150e100fcff3a00b3
:10495000c9ff37006022b800060220000000d00026
:104960008180d2000482d2008582d2000000a000a3
:104970000202520083825a00030031000202420008
:1049800083824a000000a1000603e900f3ff3a0019
:1049900000000600889fbe008a9fbe00841f78002a
:1049a000a0ff07004f00780011003300f0ff2f0038
:1049b000838f6c0006003b00040565000a00a70019
:1049c0000800370009f0a60010002000080037009a
:1049d000820f5400838f5c00030039001000200018
:1049e00001003e000000200009f0a7000000ea00de
:1049f0004f05be004f04be000000e00000000600ae
:104a0000889fbe008a9fbe00008270000402710071
:104a100004827100260032000004be000200be00c5
:104a20006011b8006b092000950220000182cf00c0
:104a30000a0039000541b1000082cf0007003900ab
:104a40000541b1000982cf00040039000541b100e1
:104a50000882cf00010039000541b1000542520033
:104a6000120032000a003b00828171006101640083
:104a70008100d1000080d3008984d3000884d30052
:104a80008b05e8000442e800f7ff3a000700370012
:104a90000804440089844c000000480081804800dc
:104aa0008b05e9000442e900f9ff3a0022ff070004
:104ab0004f05be004f04be000000060080017800d4
:104ac00002003700815978000201e9000200e0008d
:084ad000fcff3a0000000600a3
:020000040000fa
:104ad80000000000c1c0000081c1000040010000ca
:104ae80001c30000c00300008002000041c20000b2
:104af80001c60000c00600008007000041c7000092
:104b080000050000c1c5000081c400004004000089
:104b180001cc0000c00c0000800d000041cd000059
:104b2800000f0000c1cf000081ce0000400e000041
:104b3800000a0000c1ca000081cb0000400b000041
:104b480001c90000c00900008008000041c8000039
:104b580001d80000c01800008019000041d90000e9
:104b6800001b0000c1db000081da0000401a0000d1
:104b7800001e0000c1de000081df0000401f0000b1
:104b880001dd0000c01d0000801c000041dc0000a9
:104b980000140000c1d4000081d5000040150000b9
:104ba80001d70000c01700008016000041d60000a1
:104bb80001d20000c01200008013000041d30000a1
:104bc80000110000c1d1000081d000004010000099
:104bd80001f00000c03000008031000041f1000009
:104be80000330000c1f3000081f2000040320000f1
:104bf80000360000c1f6000081f7000040370000d1
:104c080001f50000c03500008034000041f40000c8
:104c1800003c0000c1fc000081fd0000403d000098
:104c280001ff0000c03f0000803e000041fe000080
:104c380001fa0000c03a0000803b000041fb000080
:104c480000390000c1f9000081f800004038000078
:104c580000280000c1e8000081e9000040290000a8
:104c680001eb0000c02b0000802a000041ea000090
:104c780001ee0000c02e0000802f000041ef000070
:104c8800002d0000c1ed000081ec0000402c000068
:104c980001e40000c02400008025000041e5000078
:104ca80000270000c1e7000081e600004026000060
:104cb80000220000c1e2000081e300004023000060
:104cc80001e10000c02100008020000041e0000058
:104cd80001a00000c06000008061000041a1000048
:104ce80000630000c1a3000081a200004062000030
:104cf80000660000c1a6000081a700004067000010
:104d080001a50000c06500008064000041a4000007
:104d1800006c0000c1ac000081ad0000406d0000d7
:104d280001af0000c06f0000806e000041ae0000bf
:104d380001aa0000c06a0000806b000041ab0000bf
:104d480000690000c1a9000081a8000040680000b7
:104d580000780000c1b8000081b900004079000067
:104d680001bb0000c07b0000807a000041ba00004f
:104d780001be0000c07e0000807f000041bf00002f
:104d8800007d0000c1bd000081bc0000407c000027
:104d980001b40000c07400008075000041b5000037
:104da80000770000c1b7000081b60000407600001f
:104db80000720000c1b2000081b30000407300001f
:104dc80001b10000c07100008070000041b0000017
:104dd80000500000c1900000819100004051000087
:104de80001930000c053000080520000419200006f
:104df80001960000c056000080570000419700004f
:104e080000550000c1950000819400004054000046
:104e1800019c0000c05c0000805d0000419d000016
:104e2800005f0000c19f0000819e0000405e0000fe
:104e3800005a0000c19a0000819b0000405b0000fe
:104e480001990000c05900008058000041980000f6
:104e580001880000c0480000804900004189000026
:104e6800004b0000c18b0000818a0000404a00000e
:104e7800004e0000c18e0000818f0000404f0000ee
:104e8800018d0000c04d0000804c0000418c0000e6
:104e980000440000c18400008185000040450000f6
:104ea80001870000c04700008046000041860000de
:104eb80001820000c04200008043000041830000de
:104ec80000410000c18100008180000040400000d6
:104ed80001020000040800001020000040800000cb
:104ee80001000000020000000400000008000000ab
:104ef80010000000200000004000000080000000ba
:104f0800000100000002000000040000000800008a
:104f18000010000000200000004000000080000099
:020000040000fa
:104f28000000fa00000c21008040eb0001487800e6
:104f38000080fa00000006000000fa00100d2100b1
:104f48008040eb0001487800200d21008040eb00f4
:104f580001487800c012200001002000a0868800c7
:104f6800b18688004006200001002000c086880025
:104f7800d1868800a000200001002000e08688007b
:104f8800f1868800e00120000100200000878800e9
:104f980011878800400e21008040eb00014878000e
:104fa800500e21008040eb0001487800c01220001c
:104fb800010020003087880041878800a00e21006a
:104fc800a1c0b30001487800b00e210041c1b30070
:104fd80001487800800f21008040eb0001487800ec
:104fe800900f21008040eb00014878000080fa0013
:104ff800000006000000fa007886a9007866a9007b
:105008000080fa00000006000000fa00100d2100e0
:10501800104078000004e00006003200100d210066
:1050280010407800e14f5000020032000000eb0011
:105038004c003700200d2100104078000004e000eb
:10504800020032000000eb0046003700c2868000f4
:10505800d3868000803e200001002000800f510090
:10506800818f5900020036000000eb003d00370038
:10507800e2868000f386800080072000010020007f
:10508800800f5100818f5900020036000000eb00ac
:1050980034003700e2868000f386800000878000b5
:1050a80011878000800f5100818f5900020036005f
:1050b8000000eb002b003700400e21001040780064
:1050c8000004e00006003200400e21001040780085
:1050d800e14f5000020032000000eb0021003700d1
:1050e800500e2100104078000004e0000200320059
:1050f8000000eb001b0037003287800043878000e8
:105108009000200001002000800f5100818f59007d
:1051180002003e000000eb0012003700e08680002d
:10512800f186800080007800401f20000088b900c8
:105138000000780030898800a0868000b186800051
:10514800a20020000300200000fe07008000780075
:10515800401f20000088b9000000780050898800ae
:10516800100020000080fa00000006000000fa008d
:10517800900c2100104078000004e0000600320086
:10518800900c210010407800e14f500002003200de
:105198000000eb000b003700800c21001040780065
:1051a8000004e00006003200800c21001040780066
:1051b800e14f5000020032000000eb000100370010
:1051c800100020000080fa00000006000c00fa0021
:1051d800889fbe00000c2100104078000080fb0072
:1051e800cf80de00c200200003002000820f5000a4
:1051f800838f580017043e00006001000c00370040
:105208001b0037008f00370064023700b9023700ef
:105218000e0337006f0337000e043700030437000e
:10522800700337000b04370000043700ff03370012
:10523800000c210011c0b3000148780040c0b30041
:10524800660c070050c0b300640c070060c0b300d0
:10525800620c070070c0b300600c070080c0b30088
:105268005e0c07000270ef000370ef00fe033700ca
:1052780060ff0700800f21008040eb0001487800a4
:10528800900f21008040eb0001487800100d2100ac
:1052980010407800e14f50000c003a0010c0b300f5
:1052a80002f0b700200c21008040eb000148780094
:1052b8000430ef000630ef000830ef000a30ef004e
:1052c800000c210021c0b30001487800400e2100e5
:1052d80010407800e14f500009003a0010c0b300b8
:1052e80003f0b7000c30ef000e30ef0080c0b300c1
:1052f8002b0c0700000c210021c0b30001487800e6
:105308005186800000802000008060000000e000de
:105318000500320037ff0700000c210011c0b30060
:1053280001487800430037005186800000202000a3
:10533800008060000000e0000b00320032ff070030
:10534800e10f500004003a00000c210061c0b300d6
:105358000148780037003700000c210081c0b300f5
:105368000148780033003700518680000040200053
:10537800008060000000e0002e0032007bff070084
:105388000000e00004003a00000c210081c0b300d6
:105398000148780027003700900c21001040780061
:1053a8000004e00010003a0012ff0700800c210002
:1053b80010407800e14f500004003a00800f2100af
:1053c80011c0b3000148780003003700800f2100a6
:1053d8008040eb0001487800000c210031c0b30088
:1053e8000148780013003700900c21001040780025
:1053f800e14f50000f003a00fefe0700800c21002c
:1054080010407800e14f500004003a00900f21004e
:1054180011c0b3000148780003003700900f210045
:105428008040eb0001487800000c210041c0b30027
:1054380001487800b00c21008040eb00014878005a
:105448008903370002d0bf00e14f500048013a00fd
:10545800140b07000004e00021003a00e5fe0700f5
:1054680040c0b300dd0b070050c0b300db0b0700e2
:1054780060c0b300d90b070070c0b300d70b07009a
:1054880080c0b300d50b0700400e21001040780003
:10549800e14f500002003a0080c0b300c00b070083
:1054a800800f21008040eb0001487800900f210018
:1054b8008040eb00014878000c30ef000e30ef0020
:1054c8000430ef000630ef000830ef000a30ef003c
:1054d800000c210091c0b300014878005e0137003c
:1054e800c2868000d3868000803e20000100200014
:1054f800800f5100818f590009003a00800f210068
:1055080011c0b300014878007886a800900f2100e8
:1055180011c0b300014878007866a8004e01370032
:10552800c0868000d1868000e00f5000e08f5800d0
:1055380009003a00800f21008040eb000148780004
:105548007886a900900f21008040eb000148780080
:105558007866a90040013700000d2100104078004e
:105568000080fb00e10f500086003200e20f50007f
:10557800f30032000000e00028013a00200c21006e
:10558800104078000004e00004003200200c2100e4
:1055980010407800e14f500016003a0060c0b30098
:1055a8008e0b070070c0b3008c0b070060c0b300ff
:1055b8007b0b070070c0b300790b07000830ef00c1
:1055c8000a30ef00800f210011c0b30001487800b5
:1055d8007886a800900f210011c0b3000148780018
:1055e8007866a800200c210021c0b300014878008b
:1055f80019013700200c210010407800e24f5000bc
:1056080008013a0060c0b300950b0700e14f400065
:105618000a003a0060c0b300700b0700800f210039
:105628008040eb00014878007886a900900f21009f
:105638008040eb00014878007866a90070c0b3008c
:10564800870b0700e14f4000f8003a0040808000d7
:105658005180800061004000e08048004080880060
:105668005180880070c0b3005c0b070070c0b300a5
:105678004b0b070040808000518080000001be0075
:105688008080800091808000800f5100818f5900b8
:10569800e8003a00200d210010407800680147001a
:1056a800e400470002030700e10f50002f003a0012
:1056b8002e009000be0090006087880071878800e7
:1056c8002e009000be009000a0878800b187880057
:1056d8004e009000de009000808788009187880047
:1056e80062878000738780008087800091878000b0
:1056f800c8868000d986800084012100841f780034
:1057080047012100060121000202be000001be007f
:105718000800be00fa0207008f87e900a080800019
:10572800b180800080007800401f20000088b90008
:10573800000078005089880060c0b300180b07008b
:105748000830ef000a30ef00800f210011c0b300cd
:10575800014878007886a800900f210011c0b30096
:10576800014878007866a800bb00370070c0b30015
:105778001a0b0700000c2100b1c0b30001487800e3
:10578800b50037000087800011878000e00f5000c7
:10579800e08f580009003a00800f210011c0b300c3
:1057a800014878007886a800900f210011c0b30046
:1057b800014878007866a800a7003700e0868000d6
:1057c800f1868000e00f5000e08f580009003a0091
:1057d800800f21008040eb00014878007886a900fe
:1057e800900f21008040eb00014878007866a900fe
:1057f80099003700200c2100104078000004e000d8
:1058080004003200200c210010407800e24f5000c4
:1058180016003a0040c0b300f00a070050c0b300b9
:10582800ee0a070040c0b300dd0a070050c0b3000d
:10583800db0a07000430ef000630ef00800f21007c
:1058480011c0b300014878007886a800900f2100a5
:1058580011c0b300014878007866a800200c210028
:1058680011c0b300014878007b003700200c2100ec
:1058780010407800e14f500070003a0040c0b3007b
:10588800f70a0700e14f40000a003a0040c0b300a1
:10589800d20a0700800f21008040eb000148780001
:1058a8007886a900900f21008040eb00014878001d
:1058b8007866a90050c0b300e90a0700e14f40002c
:1058c80060003a0020808000318080006100400044
:1058d800e0804800208088003180880050c0b300f4
:1058e800be0a070050c0b300ad0a07002080800040
:1058f800318080000001be00008780001187800091
:10590800800f5100818f590050003a0040c0b30009
:10591800a30a07000430ef000630ef00800f2100d3
:1059280011c0b300014878007886a800900f2100c4
:1059380011c0b300014878007866a8004600370017
:10594800acfd07000270ef0003d0bf00e14f50002c
:1059580040003a000c30ef000e30ef0080c0b3007a
:105968009e0a070080c0b3008d0a07003a0037007e
:1059780003d0bf00e14f500037003a0080c0b300a9
:10598800b70a0700e14f400033003a00608080000a
:105998007180800061004000e080480060808800dd
:1059a8007180880080c0b3008c0a070080c0b300f3
:1059b8007b0a070060808000718080000001be00c3
:1059c8003087800041878000800f5100818f590007
:1059d80021003a000c30ef000e30ef00500e21008d
:1059e800104078008e00780022020700e10f500076
:1059f80004003a001e00be00a0878800b187880016
:105a08001500370080c0b300740a0700000c21009d
:105a1800c1c0b300014878000f0037000000000043
:105a28000d003700000000000b00370000000000e8
:105a380009003700000000000700370000000000e0
:105a480005003700000000000300370000000000d8
:105a5800010037000000000051868000008020000f
:105a6800008060000000e0000500320061fd0700d2
:105a7800000c210011c0b300014878004300370032
:105a88005186800000202000008060000000e000b7
:105a98000b0032005cfd0700e10f500004003a00e3
:105aa800000c210061c0b3000148780037003700be
:105ab800000c210081c0b300014878003300370092
:105ac8005186800000402000008060000000e00057
:105ad8002e003200a5fd07000000e00004003a0097
:105ae800000c210081c0b30001487800270037006e
:105af800900c2100104078000004e00010003a00eb
:105b08003cfd0700800c210010407800e14f500058
:105b180004003a00800f210011c0b300014878004a
:105b280003003700800f21008040eb000148780017
:105b3800000c210031c0b300014878001300370081
:105b4800900c210010407800e14f50000f003a00ff
:105b580028fd0700800c210010407800e14f50001c
:105b680004003a00900f210011c0b30001487800ea
:105b780003003700900f21008040eb0001487800b7
:105b8800000c210041c0b30001487800b00c21008e
:105b98008040eb0001487800b3013700800f2100f6
:105ba80010407800e14f500002003a007886a800c3
:105bb80004003700000c210011c0b3000148780030
:105bc8007886a9005186800000802000008060004f
:105bd8000000e0000500320006fd0700000c21006f
:105be80011c0b300014878003e003700518680009c
:105bf80000202000008060000000e0000b00320060
:105c080001fd0700e10f500004003a00000c2100dc
:105c180061c0b3000148780032003700000c210051
:105c280081c0b300014878002e00370051868000fb
:105c380000402000008060000000e00029003200e1
:105c48004afd07000000e00004003a00000c2100b3
:105c580081c0b3000148780022003700900c210071
:105c6800104078000004e0000c003a00800c21008d
:105c780010407800e14f500004003a00800f2100e6
:105c880011c0b3000148780016003700800f2100ca
:105c98008040eb000148780012003700900c21008a
:105ca80010407800e14f50000e003a00800c2100af
:105cb80010407800e14f500004003a00900f210096
:105cc80011c0b3000148780003003700900f21008d
:105cd8008040eb0001487800000c210051c0b3005f
:105ce80001487800b00c21008040eb0001487800a2
:105cf8005d013700900f210010407800e14f5000ff
:105d080002003a007866a80004003700000c210061
:105d180011c0b300014878007866a9005186800058
:105d280000802000008060000000e00005003200d4
:105d3800b0fc0700000c210011c0b3000148780036
:105d48003e0037005186800000202000008060005f
:105d58000000e0000b003200abfc0700e10f500030
:105d680004003a00000c210061c0b300014878002b
:105d780032003700000c210081c0b30001487800d0
:105d88002e0037005186800000402000008060000f
:105d98000000e00029003200f4fc07000000e000e9
:105da80004003a00000c210081c0b30001487800cb
:105db80022003700900c2100104078000004e00019
:105dc8000f003a00800c210010407800e14f50008d
:105dd80004003a00800f210011c0b3000148780088
:105de80003003700800f21008040eb000148780055
:105df800000c210051c0b300014878000f003700a3
:105e0800900c210010407800e14f50000b003a0040
:105e1800800c210010407800e14f500004003a0047
:105e2800900f210011c0b30001487800030037002b
:105e3800900f21008040eb0001487800b00c210051
:105e48008040eb000148780007013700900f2100df
:105e580010407800e14f500002003a007866a80030
:105e6800010037007866a900800f210010407800f3
:105e7800e14f500002003a007886a8000100370080
:105e88007886a900900f2100104078000004e000f7
:105e980007003a00800f2100104078000004e0005d
:105ea80003003a00000c210011c0b300014878003b
:105eb8005186800000802000008060000000e00023
:105ec800050032004bfc0700000c210011c0b30094
:105ed800014878003b0037005186800000202000f0
:105ee800008060000000e0000b00320046fc070064
:105ef800e10f500004003a00000c210061c0b3001b
:105f0800014878002f003700000c210081c0b30041
:105f1800014878002b00370051868000004020009f
:105f2800008060000000e000260032008ffc0700bf
:105f38000000e00004003a00000c210081c0b3001a
:105f4800014878001f003700900c210010407800ad
:105f58000004e0000c003a00800c2100104078009a
:105f6800e14f500004003a00800f210011c0b30037
:105f78000148780013003700800f21008040eb00b3
:105f8800014878000f003700900c2100104078007d
:105f9800e14f50000b003a00800c210010407800bf
:105fa800e14f500004003a00900f210011c0b300e7
:105fb8000148780003003700900f21008040eb0073
:105fc80001487800b00c21008040eb0001487800bf
:105fd800a5003700000c210011c0b300014878006b
:105fe800a10037002f080700e14f500007003a00d2
:105ff80080c0b300f90807000c30ef000e30ef0046
:10600800000c210011c0b30001487800400e2100a7
:1060180010407800e14f500027003a0080c0b300dc
:106028000f090700e14f400023003a00608080001c
:106038007180800061004000e08048006080880036
:106048007180880080c0b300e408070080c0b300f6
:10605800d308070060808000718080000001be00c6
:106068003087800041878000800f5100818f590060
:1060780011003a000c30ef000e30ef00500e2100f6
:10608800104078008e0078007a000700e10f500079
:1060980004003a001e00be00a0878800b18788006f
:1060a8000500370080c0b300cc080700000c2100b1
:1060b800c1c0b300014878005186800000802000ec
:1060c800008060000000e0000900320080c0b300da
:1060d800c20807000c30ef000e30ef00c5fb0700c8
:1060e800000c210011c0b300014878004b003700b4
:1060f8005186800000202000008060000000e00041
:106108000f00320080c0b300b40807000c30ef0065
:106118000e30ef00bcfb0700e10f500004003a000e
:10612800000c210061c0b300014878003b00370033
:10613800000c210081c0b300014878003700370007
:106148005186800000402000008060000000e000d0
:106158003200320080c0b300a00807000c30ef0006
:106168000e30ef0001fc07000000e00004003a00d8
:10617800000c210081c0b3000148780027003700d7
:10618800900c2100104078000004e00010003a0054
:1061980098fb0700800c210010407800e14f500068
:1061a80004003a00800f210011c0b30001487800b4
:1061b80003003700800f21008040eb000148780081
:1061c800000c210031c0b3000148780013003700eb
:1061d800900c210010407800e14f50000f003a0069
:1061e80084fb0700800c210010407800e14f50002c
:1061f80004003a00900f210011c0b3000148780054
:1062080003003700900f21008040eb000148780020
:10621800000c210041c0b30001487800b00c2100f7
:106228008040eb00014878000f00370071fb070041
:106238005186800000802000008060000000e0009f
:1062480008003200000c210011c0b300014878009a
:1062580005003700000c21008040eb000148780061
:1062680001003700000000004f04be000080fa0063
:10627800000006000400fa00004f7800110798009b
:106288001e80fb000000e00006003a001e0190009e
:10629800700d2000010020000089be0010002000c1
:1062a800010037000000eb000080fa000000060043
:1062b8000600fa00004f780011079800220798009e
:1062c8001e80fb000000e0000a003a001e0190005a
:1062d800700d2000010020000089be002e019000f2
:1062e80040382000010020000089be001000200076
:1062f800010037000000eb000080fa0000000600f3
:106308004000fa00889fbe00001f9800111f9800e7
:10631800221f9800331f9800441f9800551f9800ab
:10632800661f9800771f98004e189000de1890009e
:10633800fdf80700020020000312240099f8070066
:1063480000179800111798002e189000be1890009a
:10635800f5f8070002002000a347240091f8070081
:1063680020179800311798000e1890009e1890007a
:10637800edf8070002002000832c240089f80700ac
:10638800401798005117980018c0b3000200200069
:10639800031224000e1090009e109000c3f807000e
:1063a8000000e000010035000044eb000804e000b4
:1063b800040032000000200001f42300008fbe001a
:1063c8001b00370018c0b30002002000031f240080
:1063d8000e1090009e109000b6f807000000e00034
:1063e80001003c000044eb000804e0000400320017
:1063f8000000200001e82300008fbe000c003700d9
:106408000e1190009e11900000002000011a240037
:1064180006f80700d2cc2c00c3cc230017f90700dc
:106428000200200003f0230001f80700008fbe00df
:1064380018c0b300d2cc2c00c3ec23002e1090005f
:10644800be10900099f807000000e0000100350038
:106458000044eb000804e0000500320000002000c2
:1064680001e8230020079800310798002100370031
:1064780018c0b300d2cc2c00c3f423002e10900017
:10648800be1090008bf807000000e00001003c00ff
:106498000044eb000804e000050032000000200082
:1064a80001f42300200798003107980011003700f5
:1064b8002e119000be119000a099290091f123009f
:1064c800daf7070002002000030a2400ebf80700af
:1064d800020020000308240032f807000001be0073
:1064e8000000200001f02300d0f7070020079800e3
:1064f800310798002e019000be0190001e00be00da
:10650800cbf7070002002000031f2400dbf8070078
:106518006af807006e1990000089be0018c0b30021
:1065280002002000031224000e1090009e1090001c
:106538005ef807000000e000010035000044eb00b1
:106548000804e000050032000000200001f02300ec
:1065580040079800510798001d00370018c0b30085
:1065680002002000031f24000e1090009e109000cf
:1065780050f807000000e00001003c000044eb0078
:106588000804e000050032000000200001fc2300a0
:1065980040079800510798000d00370002002000be
:1065a800031224000e1090009e1090009ff7070021
:1065b80002002000031a2400faf707000200200056
:1065c80003f023009af70700400798005107980046
:1065d80018c0b300d2cc2c00c3ec23002e109000be
:1065e800be10900031f807000000e00001003500ff
:1065f8000044eb000804e00005003200a0992900df
:1066080091f1230060079800710798001700370080
:1066180018c0b300d2cc2c00c3f423002e10900075
:10662800be10900023f807000000e00001003c00c5
:106638000044eb000804e00005003200d0cc2c0038
:10664800c1e423006007980071079800070037002d
:106658002e119000be1190000000200001f82300c8
:1066680072f70700600798007107980018c0b30018
:1066780002002000031f24000e1090009e109000be
:106688000af807000000e000010035000044eb00b4
:106698000804e000050032000000200001e82300a3
:1066a800000f9800110f98001d00370018c0b300a4
:1066b80002002000032224000e1090009e1090007b
:1066c800fcf707000000e00001003c000044eb007c
:1066d8000804e000050032000000200001f023005b
:1066e800000f9800110f98000d00370002002000dd
:1066f800031f24000e1090009e1090004bf7070017
:106708000200200003222400a6f707000200200050
:1067180003e8230046f70700000f9800110f9800c0
:1067280018c0b300d2cc2c00c3e423002e10900074
:10673800be109000ddf707000000e0000100350002
:106748000044eb000804e0000500320000002000cf
:1067580001f42300200f9800310f98001d00370026
:1067680018c0b300d2cc2c00c3ec23002e1090002c
:10677800be109000cff707000000e00001003c00c9
:106788000044eb000804e00005003200000020008f
:1067980001e82300200f9800310f98000d00370002
:1067a8002e119000be119000d0cc2c00c1ec23001b
:1067b8001ef7070002002000030224002ff807003c
:1067c8000200200003e8230019f70700200f9800b3
:1067d800310f98002e099000be0990000e08900015
:1067e8009e08900012f7070060179800711798002c
:1067f80018c0b30002002000031f24000e109000f0
:106808009e109000a9f707000000e0000100350085
:106818000044eb000804e000040032006000b80007
:10682800400f9800510f98001d00370018c0b300a2
:1068380002002000032224000e1090009e109000f9
:106848009cf707000000e00001003c000044eb005a
:106858000804e000050032006066260061ee2300af
:10686800400f9800510f98000d00370002002000db
:10687800031f24000e1090009e109000ebf60700f6
:106888000200200003092400fcf707000200200092
:10689800832c240043f70700400f9800510f9800fd
:1068a80018c0b300d2cc2c00c3e423002e109000f3
:1068b800be1090007df707000000e00001003500e1
:1068c8000044eb000804e000050032006066260082
:1068d80061ee2300600f9800710f980019003700cf
:1068e80018c0b3000200200003f023002e1090000f
:1068f800be1090006ff707000000e00001003c00a8
:106908000044eb000804e000040032006000b80016
:10691800600f9800710f98000a0037002e11900040
:10692800be1190000000200001f02300bff6070010
:106938000200200003fc2300d0f70700600f980036
:10694800710f98006e1890001000be0076f70700cf
:106958004e019000de019000c8f707006e0190001c
:10696800fe019000c5f707006e119000fe1190001f
:10697800c2f707004e119000de119000bff7070024
:106988004ef707007e1990000089be007e1890001f
:106998001001be006e1890001000be00800f51005c
:1069a800818f5900040036006e1890001000be0058
:1069b8007e1990000089be007e1890001000be006d
:1069c80059f707000004be00d2cc2c00c3dc23001a
:1069d8004e089000de08900095f607006e099000ba
:1069e800fe09900092f607000001be000800be00f4
:1069f800a2f7070031f707004eb997000089be00db
:106a08004f04be000080fa00000006000000fa00f3
:106a1800a13d800000fc2f0000806000f000b30062
:106a2800a03d8800113f800000f82f000080600022
:106a38003000b300103f880020022000001d8800ad
:106a480080002000c01c88009a23ef0099e3a8006a
:106a58009be3a9009ba3a8009b43a8008960a90009
:106a68008980a9009960a8007a06a900600321001e
:106a78000800070080072100060007004086230061
:106a8800d085880040a52300e08588000080fa00b2
:106a9800000006000200fa00000f78001e007800cf
:106aa800c20320008000eb0002f807001e007800f7
:106ab8008040eb0001c098001e0078008040eb0089
:106ac800617898001e0078008040eb0051789800ab
:106ad8001e0078008040eb00417898001e00780086
:106ae8008040eb00717898000080fa0000000600f2
:106af8000200fa00000f78001e0078008040eb00ca
:106b080001c098001e0078008040eb006178980072
:106b18001e0078008040eb00517898001e00780035
:106b28008040eb00417898001e0078008040eb0020
:106b3800717898000080fa00000006000200fa0050
:106b4800004f780060072100104078007040600016
:106b58000004e000af003a00400721001040780030
:106b68000080fb00e20f500029003200e20f5000c5
:106b780005003c000000e0000a003200e10f500070
:106b88001200320099003700e40f50006400320010
:106b9800e40f500039003500e50f50007000320056
:106ba800920037001e407800e24f500092003a00f1
:106bb8009e407800600321009800070040072100ec
:106bc80011c0b30001487800920037009e40780059
:106bd800600321009100070000ceb3001e40400072
:106be80034f0b70034d0bf00a10007000004e00073
:106bf80003003a0060032100bdff0700850037004d
:106c08004007210021c0b300014878008100370007
:106c18009e407800600321008000070080c2b30016
:106c28009e40780080cf500004003600c0c5b300f5
:106c38009e40780080cf500003003600600321009a
:106c4800abff07007300370000ceb3009e40400042
:106c58002007210001487800200721001040780013
:106c6800e540500020072100014878004007210036
:106c780031c0b30001487800660037005007210092
:106c8800104078000004e0001200320000c3b30096
:106c98009e40780080cf50000a00320020c3b30025
:106ca8009e40780080cf50000600320030c3b30009
:106cb8009e40780080cf500002003200600321001f
:106cc8008bff0700500721008040eb000148780047
:106cd800060037001e407800fb4f500003003a00c2
:106ce8005007210011c0b300014878009e40780089
:106cf8006003210049000700300721009040780018
:106d0800200721001040780080cf50003c003a0056
:106d18004007210041c0b300014878003d0037001a
:106d28009e407800600321003c00070030072100e6
:106d3800104078008080fb00200721001040780078
:106d48000080fb0064004000808f50002e003a0055
:106d58004007210051c0b300014878002d003700da
:106d68001e407800e34f500004003a006003210001
:106d7800550007000004e00003003a00600321000a
:106d88005bff0700230037009e4078006003210066
:106d9800220007002007210010407800e34050003f
:106da8002007210001487800410321009140780024
:106db80032d0bf0080cf500003003a00b08380007b
:106dc8000030a000b08388007d0007006007210024
:106dd80010407800684060000004e0000c003a00b1
:106de8006003210042ff07000a003700600321000a
:106df8003fff0700070037000000000005003700cc
:106e08000000000003003700000000000100370008
:106e1800000000000080fa00000006000400fa00ec
:106e2800000f7800214798001e00780050789000e5
:106e38008080fb001e017800ae41900003f17800cd
:106e48008040e8001e007800517898001e00780005
:106e5800d0789000b0c3b30080cf50000200360055
:106e68001e00780022ff07000080fa0000000600dc
:106e78000200fa00004f78001e4078000004e0008d
:106e88000400320010c3b3009e40780080cf500049
:106e98000800360040c6b3009e40780080cf5000fe
:106ea8000600360050c9b3009e40780080cf5000dd
:106eb80002003e0010c0b300010037000040eb00a4
:106ec8000080fa00000006000600fa00200798007b
:106ed8002e009000407890008080fb002e009000eb
:106ee8000001eb0072020700000f78002e009000ee
:106ef800507890000080fb0064005000ae009000c5
:106f0800614078000080fb000002b1004c00dd0009
:106f1800100798002e009000507890000080fb0029
:106f280063005000ae009000614078000080fb00d4
:106f38000002b1004800dd009e00900001007000d2
:106f4800100798002e009000507890000080fb00f9
:106f58000080e900ae009000614078000080fb00ee
:106f68000002b1004400dd009e00900001007000a6
:106f7800100798002e009000507890000080fb00c9
:106f88000000e900ae009000614078000080fb003e
:106f98000002b1009e0090000100700010079800e8
:106fa8001e0090009e0f500002003a0010c0b3006f
:106fb800010037000040eb000080fa0000000600e6
:106fc8000600fa0090032100100798000040eb002b
:106fd800104798009e409000014f78002b00370022
:106fe8001e80fb009e0090000080400090407800ca
:106ff800414798001e4fe8004e409000fb4f50005c
:1070080019003a001e80fb009e009000008040009e
:107018009040780000cdb30000c040004047980081
:107028001e4fe8004e4090000004e00007003a00c0
:107038001e4090000080fb009e00900000804000f1
:10704800b1c1b300014878000d0037001e40900020
:107058000080fb009e00900000804000ce40900021
:1070680001487800060037001e4090000080fb00b1
:107078009e00900000804000ce40900001487800bb
:107088001e4090000040e8001047980020072100ab
:10709800104078009e4f5000d1ff3e00200721008d
:1070a800904078001e4090001e40500080c0400074
:1070b80020072100014878000080fa00000006003f
:1070c8000800fa0020079800614798000040eb008c
:1070d800004f78001e4078008080fb002e01900051
:1070e80023c0b30003f178000040e800004f7800a7
:1070f8001e4078008080fb00ee41900042c8b3003b
:1071080082c141002e01900003f178000040e800a0
:10711800004f78001e4078000040e800004f7800db
:10712800a00c210010407800804078002e009000cc
:10713800014178008e007800a9010700000c2100a9
:1071480010407800804078002e00900001417800bf
:107158008e007800a2010700300c21001040780052
:10716800804078002e009000014178008e00780061
:107178009b0107002e0090000041eb008e00780074
:10718800970107002e00900012c0b3008e0078000f
:10719800930107002e00900032c0b3008e007800e3
:1071a8008f01070060878000718780008040780029
:1071b8002e009000014178008e00780088010700b9
:1071c800628780007387800000f02f000100200094
:1071d800020278000301780080017800010078003d
:1071e80003026200000061008000eb00c000dd00c7
:1071f800000020000001be006120b80000017100fd
:1072080081817100481add004810de00000072001c
:10721800c818de00804078002e00900001417800f8
:107228008e0078006e0107008087800091878000bb
:10723800804078002e009000014178008e00780090
:1072480067010700828780009387800000f02f0085
:107258000100200002027800030178008001780014
:107268000100780003026200000061008000eb006a
:10727800c000dd00000020000001be006120b80051
:107288000001710081817100481add004810de009c
:1072980000007200c818de00804078002e009000c0
:1072a800014178008e0078004d010700a08780001a
:1072b800b1878000804078002e009000014178005e
:1072c8008e00780046010700a2878000b3878000ff
:1072d80000f02f000100200002027800030178006e
:1072e800800178000100780003026200000061005c
:1072f8008000eb00c000dd00000020000001be009f
:107308006120b8000001710081817100481add0018
:107318004810de0000007200c818de0080407800c7
:107328002e009000014178008e0078002c010700a3
:10733800800f210010407800804078002e009000d7
:10734800014178008e00780025010700900f210088
:1073580010407800804078002e00900001417800ad
:107368008e0078001e0107001e40780052c2b3004c
:10737800824040002e009000214098001e40780076
:10738800e54040002e009000417898001e407800ab
:107398008080fb002e0090000001eb0044010700f4
:1073a800f10f2000810060001e41900060416100e3
:1073b80081407100114798004800de00ae409000ff
:1073c800e0c0600000c07000204798001e407800b0
:1073d8008080fb002e4190000281fb004411de00fa
:1073e8000241780004c2b300844141002e0190009c
:1073f80003f178000040e800004f78001e40780054
:107408008080fb002e4190006f41610004c2b300f0
:10741800844141002e01900003f178000040e8000b
:10742800004f78001e4078008080fb001e419000cd
:107438000281fb004411de000241780004c2b3005f
:10744800844141002e01900003f178000040e800db
:10745800004f78001e4078008080fb001e4190009d
:107468006f41610004c2b300844141002e019000c5
:1074780003f178000040e800004f78001e407800d3
:107488008080fb002e01900033c0b30003f1780028
:107498000040e800004f78000080fa000000060075
:1074a8000c00fa0040079800214f980030c0b30044
:1074b800004f78001e80fb00ce009000e14078006d
:1074c800a00c2100014878001e4fe8001e80fb0038
:1074d800ce009000e1407800b00c2100014878000f
:1074e8001e4fe800a00c2100104078000080fb002f
:1074f800f30f50000b003200f40f5000a7003200c9
:10750800e10f5000b3003a001e80fb00ce0090004f
:10751800e1407800000d2100014878001e4fe80086
:10752800ad0037001e80fb00ce009000e1407800df
:10753800100d2100014878001e4fe8001e80fb0056
:10754800ce009000e1407800200d2100014878002d
:107558001e4fe8001e80fb00ce00900061407800be
:10756800104798001e4fe8001e80fb00ce009000d8
:1075780061407800204798001e4fe8001e409000a8
:107588000080fb00ae4090008180fb00c808dd0051
:1075980001007000cf80de00a0868800b1868800d8
:1075a8001e80fb00ce0090006140780010479800d4
:1075b8001e4fe8001e80fb00ce009000614078005e
:1075c800204798001e4fe8001e4090000080fb00f6
:1075d800ae4090008180fb00c808dd00010070000b
:1075e800cf80de00c0868800d18688001e80fb0020
:1075f800ce00900061407800104798001e4fe800c8
:107608001e80fb00ce009000614078002047980063
:107618001e4fe8001e4090000080fb00ae40900026
:107628008180fb00c808dd0001007000cf80de000b
:10763800e0868800f18688001e80fb00ce0090005e
:1076480061407800104798001e4fe8001e80fb003c
:10765800ce00900061407800204798001e4fe80057
:107668001e4090000080fb00ae4090008180fb002f
:10767800c808dd0001007000cf80de0000878800a8
:10768800118788001e80fb00ce009000e140780042
:10769800400e2100014878001e4fe8001e80fb00c4
:1076a800ce009000e1407800500e2100014878009b
:1076b8001e4fe8001e80fb00ce009000614078005d
:1076c800104798001e4fe8001e80fb00ce00900077
:1076d80061407800204798001e4fe8001e40900047
:1076e8000080fb00ae4090008180fb00c808dd00f0
:1076f80001007000cf80de00308788004187880055
:107708001e80fb00ce009000614078001047980072
:107718001e4fe8001e80fb00ce00900061407800fc
:10772800204798001e4fe8001e4090000080fb0094
:10773800ae4090008180fb00c808dd0001007000a9
:1077480080407800a00e2100014878001e80fb00d0
:10775800ce00900061407800104798001e4fe80066
:107768001e80fb00ce009000614078002047980002
:107778001e4fe8001e4090000080fb00ae409000c5
:107788008180fb00c808dd0001007000804078009f
:10779800b00e2100014878000f0037001e80fb0062
:1077a800ce009000e1407800900c2100014878005c
:1077b8001e4fe8001e80fb00ce009000e1407800dc
:1077c800800c2100014878001e4fe80000000000ee
:1077d80001003700000000000080fa0000000600e9
:1077e8000800fa00100798002107980062479800df
:1077f8002e009000104f78006e409000e24f50002d
:10780800030032006e409000e34f50000e003a0033
:107818001e80fb009e00900000804000b1c1b300b4
:10782800014878001e4fe8001e80fb009e00900073
:1078380000804000ee4090000143b000014878000d
:107848001e4fe800160037006e409000fb4f5000b6
:107858000d003a001e80fb009e0090000080400052
:10786800b1c1b300014878001e4fe8001e80fb003c
:107878009e0090000080400001c3b30001487800da
:107888001e4fe800060037001e80fb009e00900097
:1078980000804000ee409000014878001e4fe8004c
:1078a8002e0090001e4878000080fa0000000600b4
:1078b8000c00fa003007980041079800520798001a
:1078c8006000b800008fbe00180037003e0090002e
:1078d800104078008080fb005e0090008080680087
:1078e800f00f200000806000200798005e009000e4
:1078f800c800de002e00900000014000c0562a009b
:1079080000004100100078000080680050079800cf
:107918003e0090000000e8003007980012002000a8
:10792800030020001e0f41005e9749004e009000a2
:107938008000eb00be0f5000ae8f5800e3ff3e0002
:107948005e0090000080fa00000006000000fa00c7
:1079580004000700220007004c0007000080fa001e
:10796800000006000000fa006007210010407800bf
:10797800684060000004e0001700320010c0b30047
:10798800b70207000004e00003003a0010c0b3008b
:10799800830207001000370010c0b300b0020700d0
:1079a800e14f40000c003a00e285800032d0bf0071
:1079b800804078006003210002000100600321007c
:1079c80034fc0700b08380000020a000b08388004a
:1079d80010c0b300810207000080fa000000060012
:1079e8000000fa0060072100104078006440600041
:1079f8000004e00018003200800b210010407800dd
:107a08000042b2000004e00013003a00b183800095
:107a1800b0ff2f0000806000b0838800800721003d
:107a28001cfc0700d285800032d0bf00804078005f
:107a38008007210002000100c08580000010a0001e
:107a4800c085880020c0b3005502070030c0b300cd
:107a5800620207000b003700600721001040780021
:107a6800644060000004e00006003a0020c0b30053
:107a78007b0207000004e00002003a0020c0b300c7
:107a8800470207000080fa00000006000000fa0024
:107a9800800b210010407800624060000004e00084
:107aa80025003200800b2100104078000042b2000f
:107ab8000004e0001d003a00400b210090407800cf
:107ac800c0c3b30080cf50001a003e007a06a80059
:107ad8008980a9009980a800c08580000050a00076
:107ae800c085880000000000d11c80000010200024
:107af800008060000000e000fbff3200500b210016
:107b0800104078000081fb008107210081004100be
:107b1800914078008180fb00e11c88008040e800eb
:107b2800500b2100014878000300370000000000d6
:107b380001003700000000000080fa000000060085
:107b48000000fa007e46a9007e66a9009206a900f8
:107b58009226a9009246a9007606a9007626a900d1
:107b68007646a8007666a9007686a90076e6a8007b
:107b78007706a9007726a8007746a9007766a900a6
:107b88007786a90077a6a80077c6a90077e6a80097
:107b98008a06a8008a26a8008a46a8008a66a8003d
:107ba8008a86a8008aa6a8006206a8006226a800fd
:107bb8006246a8006266a8006306a9000080fa0071
:107bc800000006000000fa000040eb002402070055
:107bd8000004e00002003a000040eb00f00107005a
:107be8000040eb001e020700e14f400006003a008b
:107bf8000040eb00ea0107002f010700f080800039
:107c080003000700e08088000080fa0000000600fa
:107c18000400fa001007980020d0bf00e34f50007e
:107c280004003e0020d0bf000040e80020f0b7006c
:107c3800010037002070ef0020d0bf000080fb005b
:107c48002e419000011321008270780020d0bf00df
:107c58000080fb003e4190005113210082707800a3
:107c68000040eb00004f7800040137001e80fb0045
:107c7800110020000008dd000040780029f0b7005e
:107c880030c0b300104798004b00370001022100b4
:107c9800914078001e40900000c0500025f0b700c9
:107ca80025d0bf000004e00003003d0025d0bf0040
:107cb8006540400025f0b70001022100914078009e
:107cc8001e40900000c050000040e90026f0b700b8
:107cd80026d0bf000004e00003003d0026d0bf000e
:107ce8006540400026f0b70025d0bf000000fb002b
:107cf80001132100e140780026d0bf000000fb00fe
:107d0800021321006240780080c0680029d0bf00bb
:107d180000c060000004e0000300320023d0bf0070
:107d28000040e80023f0b70025d0bf000000fb00aa
:107d380001132100e140780029d0bf0000c0600095
:107d48000004e0000400320022d0bf000040e80038
:107d580022f0b7000300370021d0bf000040e80040
:107d680021f0b7001e4090000004e0000f003a0028
:107d780026d0bf000000fb0001132100e14078007d
:107d880029d0bf0000c060000004e00004003200f9
:107d980022d0bf000040e80022f0b70003003700ff
:107da80021d0bf000040e80021f0b7001e4090003d
:107db8000040e900104798001e4090000004e000d1
:107dc800b2ff3d0023d0bf00e24f50000e00360046
:107dd80021d0bf00e24f5000020036002470ef00af
:107de8001200370022d0bf00e24f500003003600d7
:107df80010c0b30024f0b7000c00370020c0b30057
:107e080024f0b700090037001102210091407800e2
:107e180022d0bf0080cf5000020036002470ef004f
:107e28000200370010c0b30024f0b7002170ef0043
:107e38002270ef002370ef0024d0bf00e24f500003
:107e48000e0032001e4078000004e00003003a00f3
:107e580024d0bf0027f0b7000800370024d0bf00a7
:107e68008080fb001e80fb000008dd008040780059
:107e780027d0bf0000c0700027f0b70030c0b300a3
:107e8800104798004b00370001022100914078000c
:107e98001e40900000c0500025f0b70025d0bf005c
:107ea8000004e00003003d0025d0bf00654040000d
:107eb80025f0b70001022100914078001e40900093
:107ec80000c050000040e90026f0b70026d0bf00ef
:107ed8000004e00003003d0026d0bf0065404000dc
:107ee80026f0b70025d0bf000000fb005113210089
:107ef800e140780026d0bf000000fb0052132100ab
:107f08006240780080c0680029d0bf0000c06000cf
:107f18000004e0000300320023d0bf000040e80066
:107f280023f0b70025d0bf000000fb00511321004b
:107f3800e140780029d0bf0000c060000004e000e4
:107f48000400320022d0bf000040e80022f0b70051
:107f58000300370021d0bf000040e80021f0b7003f
:107f68001e4090000004e0000f003a0026d0bf0039
:107f78000000fb0051132100e140780029d0bf0028
:107f880000c060000004e0000400320022d0bf00fe
:107f98000040e80022f0b7000300370021d0bf00fe
:107fa8000040e80021f0b7001e4090000040e900c2
:107fb800104798001e4090000004e000b2ff3d000a
:107fc80023d0bf00e24f50000e00360021d0bf0082
:107fd800e24f5000020036002470ef001200370014
:107fe80022d0bf00e24f50000300360010c0b3009b
:107ff80024f0b7000c00370020c0b30024f0b7000d
:1080080009003700110221009140780022d0bf00fa
:1080180080cf5000020036002470ef0002003700c5
:1080280010c0b30024f0b7002170ef002270ef00f9
:108038002370ef0024d0bf00e24f50000e00320042
:108048001e4078000004e00003003a0024d0bf007e
:1080580028f0b7000800370024d0bf008080fb005c
:108068001e80fb000008dd008040780028d0bf009b
:1080780000c0700028f0b7001e4fe8001e407800ce
:10808800e74f5000f9fe360027d0bf002af0b700ae
:1080980028d0bf002bf0b700508180000080fa0084
:1080a800000006000000fa00e080800061406000e7
:1080b8000080fa00000006000000fa00c0338000cb
:1080c8004700de00614060000080fb006100600046
:1080d800f2808000e1ff2f00810061000100700044
:1080e800f0808800603480000040780061406000c3
:1080f8000080fb006100600000004000f28080000a
:10810800d1ff2f008100610001007000f08088001d
:10811800603480000000d100614060000080fb00f6
:10812800610060004200dd00f2808000b1ff2f0096
:108138008100610001007000f080880060348000d8
:108148004200de00614060000080fb0061006000ca
:108158004300dd00f280800071ff2f008100610084
:1081680001007000f0808800603480004300de0069
:10817800614060000080fb00610060004400dd0099
:10818800f2808000f1fe2f00810061000100700084
:10819800f0808800603480004400de0061406000a8
:1081a8000080fb00610060004500dd00f280800077
:1081b800f1fd2f008100610001007000f08088004f
:1081c800603480004500de00614060000080fb00f4
:1081d800610060004600dd00f2808000f1fb2f00a6
:1081e8008100610001007000f08088000080fa00c2
:1081f800000006000200fa009021ef0080382100fc
:10820800900c88009421ef00a10c8000f0fc2f0056
:10821800008060000040a000a00c8800410580009c
:10822800f0ff28008080600000002300010070003b
:10823800400588008860a9009860a80095e1a8001a
:108248000040eb00004f7800070037001e80fb005d
:10825800c200dd00a00f2100008040008040eb003c
:10826800014878001e4fe8001e407800e84f500093
:10827800f6ff36000080fa00000006000200fa004f
:1082880070818000608188000040eb00004f78001a
:10829800300037001e80fb00c200dd00a00f210067
:1082a8000080400010407800e24f500015003a006e
:1082b800618180001e80fb004200dd000081e80033
:1082c800a00f2100000041001000780080805000bd
:1082d8001e80fb0000014000e01121000000410069
:1082e80010007800808f5000060039001e80fb00c7
:1082f800c200dd00a00f21000080400080c0eb001c
:10830800014878001e80fb00c200dd00a00f21009c
:108318000080400010407800e14f50000c003a0007
:108328001e80fb00618180004201dd00c00f21003a
:1083380000004100010878001e80fb00c200dd003b
:10834800a00f21000080400021c0b3000148780040
:108358001e4fe8001e407800e84f5000cdff360061
:108368000080fa00000006000400fa002047980088
:10837800718180002e4090000080fb004200dd00eb
:108388000081e800a00f21000000410010007800e3
:10839800008f50001e0078000080fa0000000600e0
:1083a8000200fa00004f78001e407800e84f5000a5
:1083b80007003e001e80fb00c200dd00a00f210068
:1083c8000080400011c0b300014878000100370068
:1083d800000000000080fa00000006000200fa0019
:1083e800004f78001e407800e84f500007003e001c
:1083f8001e80fb00c200dd00a00f210000804000ad
:108408008040eb00014878000100370000000000c0
:108418000080fa00000006000200fa00004f780011
:108428001e407800e84f5000020036000040eb0084
:10843800090037001e80fb00c200dd00a00f2100ec
:1084480000804000104078000080fb000000e90038
:108458004f00de00004078000080fa0000000600af
:108468000200fa00004f78001e407800e84f5000e4
:10847800020036000040eb00050037001e80fb00bc
:10848800c200dd00a00f21000080400010407800ed
:108498000080fa00000006000000fa0002c1a900ee
:1084a80002e1a9003200200080072000a109200075
:1084b80013102000804978008149780082497800ab
:1084c8001200200060042000710520000310200025
:1084d80080497800814978008249780000000000ce
:1084e8000108800000002700808060000000230051
:1084f800808f5000faff3a00000000000108800059
:1085080000022000008060000000e000fbff320055
:1085180038ff07008afd070081f2070086f207008e
:108528003af9070032d0bf000004e00004003a0026
:1085380080818000100078000040780032f0b70099
:1085480010a1a8000060fe0020f307004bff070001
:0c8558009cfd0700fdfc0700faff370047
:020000040000fa
:10856400301100000a000000800000001c10000010
:108574001000000080000000301000000200000025
:1085840082000000fe0f0000c01000003a0000004e
:108594008000000032100000020000008000000093
:1085a400361000008a000000800000003410000033
:1085b4000200000080000000021000001a00000009
:1085c400800000001e110000120000008200000064
:1085d4000a00020000b80b001027100027f4010065
:1085e400c409f40001f40100fa10000024000000a2
:1085f400800000002c100000040000008000000037
:048604000000000072
:020000040000fa
:020000040001f9
:045e0000ff7f000020
:020000040000fa
:020000040001f9
:045e2000ffffff0081
:020000040000fa
:020000040001f9
:045e30000bffff0065
:020000040000fa
:020000040001f9
:045e380059ffff000f
:020000040000fa
:020000040001f9
:045e4000e4ffff007c
:020000040000fa
:020000040001f9
:045e4800fcffff005c
:020000040000fa
:020000040001f9
:045e5000deffff0072
:020000040000fa
:020000040001f9
:045e5800ffffff0049
:00000001FF
