:020000040000fa
:040008006a21000069
:020000040000fa
:04000c006a21000065
:020000040000fa
:040010006a21000061
:020000040000fa
:040014006a2100005d
:020000040000fa
:040018006a21000059
:020000040000fa
:04001c006a21000055
:020000040000fa
:040020006a21000051
:020000040000fa
:040024006a2100004d
:020000040000fa
:040028006a21000049
:020000040000fa
:04002c006a21000045
:020000040000fa
:040030006a21000041
:020000040000fa
:040034006a2100003d
:020000040000fa
:040038006a21000039
:020000040000fa
:04003c006a21000035
:020000040000fa
:040040006a21000031
:020000040000fa
:040044006a2100002d
:020000040000fa
:040048006a21000029
:020000040000fa
:04004c006a21000025
:020000040000fa
:040050006a21000021
:020000040000fa
:040054006a2100001d
:020000040000fa
:040058006a21000019
:020000040000fa
:04005c006a21000015
:020000040000fa
:040060006a21000011
:020000040000fa
:040064006a2100000d
:020000040000fa
:040068006a21000009
:020000040000fa
:04006c006a21000005
:020000040000fa
:040070006a21000001
:020000040000fa
:040074006a210000fd
:020000040000fa
:040078006a210000f9
:020000040000fa
:04007c006a210000f5
:020000040000fa
:040080006a210000f1
:020000040000fa
:040084006a210000ed
:020000040000fa
:040088006a210000e9
:020000040000fa
:04008c006a210000e5
:020000040000fa
:040090006a210000e1
:020000040000fa
:040094006a210000dd
:020000040000fa
:040098006a210000d9
:020000040000fa
:04009c006a210000d5
:020000040000fa
:0400a0006a210000d1
:020000040000fa
:0400a4006a210000cd
:020000040000fa
:0400a8006a210000c9
:020000040000fa
:0400ac006a210000c5
:020000040000fa
:0400b0006a210000c1
:020000040000fa
:0400b4006a210000bd
:020000040000fa
:0400b8006a210000b9
:020000040000fa
:0400bc006a210000b5
:020000040000fa
:0400c0006a210000b1
:020000040000fa
:0400c4006a210000ad
:020000040000fa
:0400c8006a210000a9
:020000040000fa
:0400cc006a210000a5
:020000040000fa
:0400d0006a210000a1
:020000040000fa
:0400d4006a2100009d
:020000040000fa
:0400d8006a21000099
:020000040000fa
:0400dc006a21000095
:020000040000fa
:0400e0006a21000091
:020000040000fa
:0400e4006a2100008d
:020000040000fa
:0400e8006a21000089
:020000040000fa
:0400ec006a21000085
:020000040000fa
:0400f0006a21000081
:020000040000fa
:0400f4006a2100007d
:020000040000fa
:0400f8006a21000079
:020000040000fa
:0400fc006a21000075
:020000040000fa
:040100006a21000070
:020000040000fa
:040104006a2100006c
:020000040000fa
:040108006a21000068
:020000040000fa
:04010c006a21000064
:020000040000fa
:040110006a21000060
:020000040000fa
:040114006a2100005c
:020000040000fa
:040118006a21000058
:020000040000fa
:04011c006a21000054
:020000040000fa
:040120006a21000050
:020000040000fa
:040124006a2100004c
:020000040000fa
:040128006a21000048
:020000040000fa
:04012c006a21000044
:020000040000fa
:040130006a21000040
:020000040000fa
:040134006a2100003c
:020000040000fa
:040138006a21000038
:020000040000fa
:04013c006a21000034
:020000040000fa
:040140006a21000030
:020000040000fa
:040144006a2100002c
:020000040000fa
:040148006a21000028
:020000040000fa
:04014c006a21000024
:020000040000fa
:040150006a21000020
:020000040000fa
:040154006a2100001c
:020000040000fa
:040158006a21000018
:020000040000fa
:04015c006a21000014
:020000040000fa
:040160006a21000010
:020000040000fa
:040164006a2100000c
:020000040000fa
:040168006a21000008
:020000040000fa
:04016c006a21000004
:020000040000fa
:040170006a21000000
:020000040000fa
:040174006a210000fc
:020000040000fa
:040178006a210000f8
:020000040000fa
:04017c006a210000f4
:020000040000fa
:040180006a210000f0
:020000040000fa
:040184006a210000ec
:020000040000fa
:040188006a210000e8
:020000040000fa
:04018c006a210000e4
:020000040000fa
:040190006a210000e0
:020000040000fa
:040194006a210000dc
:020000040000fa
:040198006a210000d8
:020000040000fa
:04019c006a210000d4
:020000040000fa
:0401a0006a210000d0
:020000040000fa
:0401a4006a210000cc
:020000040000fa
:0401a8006a210000c8
:020000040000fa
:0401ac006a210000c4
:020000040000fa
:0401b0006a210000c0
:020000040000fa
:0401b4006a210000bc
:020000040000fa
:0401b8006a210000b8
:020000040000fa
:0401bc006a210000b4
:020000040000fa
:0401c0006a210000b0
:020000040000fa
:0401c4006a210000ac
:020000040000fa
:0401c8006a210000a8
:020000040000fa
:0401cc006a210000a4
:020000040000fa
:0401d0006a210000a0
:020000040000fa
:0401d4006a2100009c
:020000040000fa
:0401d8006a21000098
:020000040000fa
:0401dc006a21000094
:020000040000fa
:0401e0006a21000090
:020000040000fa
:0401e4006a2100008c
:020000040000fa
:0401e8006a21000088
:020000040000fa
:0401ec006a21000084
:020000040000fa
:0401f0006a21000080
:020000040000fa
:0401f4006a2100007c
:020000040000fa
:0401f8006a21000078
:020000040000fa
:0401fc006a21000074
:020000040000fa
:084008005e200400000000002e
:020000040000fa
:104034000000fa00871507000080fa00000006005f
:020000040000fa
:104048000000fa00300e07000080fa0000000600a9
:020000040000fa
:10405c000000fa00010e07000080fa0000000600c4
:020000040000fa
:104070000000fa00e80e07000080fa0000000600c9
:020000040000fa
:104084000000fa00e81507000080fa0000000600ae
:020000040000fa
:104098000000fa00e71507000080fa00000006009b
:020000040000fa
:1040ac000000fa00e61507000080fa000000060088
:020000040000fa
:1040bc00af1a21000e7f24000e01880000000000c2
:1040cc00000020000000e00002003200000120008f
:1040dc0020028800140007007d0007000000e000ab
:1040ec0003003a00e0c22400010020000200370067
:1040fc000000200001002000810f70000100320040
:10410c0014000700000020000000e0000200320054
:10411c0000000200000000004e4b020000000000f6
:10412c000040da000000fe004440a900802220007c
:10413c000000e00003003200002020009001880005
:10414c004440a800000006008a1f78008b1f7800ee
:10415c0000000600a1028800800478000000eb003b
:10416c001f003700e284440054a0b4009905ba0043
:10417c00e284440054a0b4009906ba00e2844400de
:10418c0054a0b4000006eb00476fde00fd07b20040
:10419c00ae018800636ce10003003a00eaff0700ff
:1041ac000000eb000e003700606ce10008003a00e4
:1041bc00004deb000a05e800020039003420ec0049
:1041cc000af0a0008b05e900f9ff3e00040037005f
:1041dc006168e100010032000086eb000b00070073
:1041ec0019c7ba001905ba000e04e00003003a0022
:1041fc000a00e000dbff3a0000000600fe07b200f8
:10420c00ae0288008a047800f5ff37000cd0a300ba
:10421c00e20f4d001c00390089027800354dba00c0
:10422c000a05e800020039003420ec000af0a00076
:10423c008b05e9000f003200254dba000a05e80095
:10424c00020039003420ec000af0a0008b05e900d4
:10425c00080032000c00e0000600320015cdba0058
:10426c000a05e800020039003420ec000af0a00036
:10427c008b05e9008984e80054a0b4000b00e00031
:10428c00e2ff3a00000006009902ba00055d7800d2
:10429c008b05e900f7ff3200c82ade00055d7800c7
:1042ac008b05e900f3ff32000c00e000f1ff320057
:1042bc0019ddba00eeff370000000000000000001e
:1042cc0000000000000000000040da000000fe00ca
:1042dc000000050003f0a200889fbe008a9fbe006c
:1042ec008c1f7800f7000700fe0033006450e100db
:1042fc004f0032006420e1005200320003826c0057
:10430c0007003b000905d0000306d000820f5400c3
:10431c000c065d00020039000200320089017800b1
:10432c00030678008582550004003d000003fd0063
:10433c008103fd008502ea008b854200840f720028
:10434c0002003b0060001000e08018006011b80013
:10435c000005eb007a28e1000a003900060078001d
:10436c00c75ddd00f707b200878075002d003700b0
:10437c00828171000a017800610560008180d100a2
:10438c000080d3008502e900f9ff3b0006044000e1
:10439c008784480002003b0060041400e0841c0089
:1043ac000988a300070032008a81710082817100a4
:1043bc00610164008904d1000884d3008b05e800f6
:1043cc00170037000978a30013003a000b00e00037
:1043dc00130034008b05e9000804440089844c0068
:1043ec000a4474000978a3000d003a000b00e000a9
:1043fc00070034008b05e9000804440089844c0054
:10440c0001003a000b0020000978a300f7ff3200ee
:10441c000001eb0002003700828171000a01780074
:10442c006d0007000cf0a70001f0a000b6003700eb
:10443c006420e10002003a00838f6c00b600330068
:10444c000801be000200be00af003700889fbe000e
:10445c008a9fbe008c1f78009a000700a1003300d1
:10446c0003866c006450e1002e0032006420e100f1
:10447c00330032006150e1002f0032006120e10076
:10448c003100320085855500eb07b0000900200093
:10449c0008042000050037000804440089844c00ff
:1044ac000a0031000603430087834b0000015300d0
:1044bc0081815b00f8ff33000203be000800a000fe
:1044cc000804440089844c00f6ff3900c639dd002d
:1044dc008301730001003200130020008904d10015
:1044ec000884d3000998a300050032000800a70037
:1044fc000300a0008904d1000884d3008b05e800d8
:10450c008904d1000884d3000001eb000281d200a1
:10451c003100070001f0a1000cf0a70001f0a00091
:10452c00790037006420e1007b0032000801be00f6
:10453c000200be00f7ff37006120e1007600320078
:10454c006000b800f3ff37000000200001f82700de
:10455c00f0ff370014002000b6003700f4ff2f00e6
:10456c00b40037000001be00410007000470a70032
:10457c0003f0a10003f8a30013003a006509b10091
:10458c0010003200090035006928e10002003500f6
:10459c000100280000000500000040008180480058
:1045ac008502e900fcff3a0000000600f88f42008b
:1045bc00050035008100d1000080d3008502e800a1
:1045cc00fcff3a00000006008000eb000000050034
:1045dc006011b800b20037008100200061805500e6
:1045ec000b003d000b00200061fe2f000100e100dc
:1045fc001d00340082817100610164008904d100c6
:10460c000884d3000000e800faff3a007100200093
:10461c0061006400030070000200600009003200b9
:10462c0061044400e0844c000988a50005003200b8
:10463c008b05e8006808e10002003a008904d1000b
:10464c000884d300f20f20000258e10005003d0061
:10465c00c75ddd00f907b20089807500080078009d
:10466c00000006000bf827008b0078000000050006
:10467c00c70ade00f107b200f50fb20008003200e5
:10468c00e1cf4200020032000170a00024000500be
:10469c00810f700001003200040805004400050081
:1046ac00810f700002003a00140005008502e90039
:1046bc000000400081c04800fcff3b000170a000de
:1046cc00240005000004be00e9ff07000003be0043
:1046dc000405be000200be00e5ff0700844f750014
:1046ec00000006000200be006450e1000500360028
:1046fc006420e100020036000968a30001003a00c2
:10470c000800be000160a0004f0678004f05be00f7
:10471c004f04be0000000600f0ff2f00f1ff270041
:10472c00f9ff3700889fbe008a9fbe008c1f78005f
:10473c00e4ff0700ebff330003866c006450e100dc
:10474c00240032006420e100270032006150e100b7
:10475c00220032006120e100210032008b854200f2
:10476c00eb07b1000134b800003ab800080442006d
:10477c0089844a00013ab8000030b80088804000b3
:10478c0009014a0004003300000040008180480009
:10479c00020149008b05e900c909dd0083017000a5
:1047ac000100320013002000c814de004814dd00a4
:1047bc004709de001200b200c808de000884700051
:1047cc0085ff070001f0a1000cf0a70001f0a0008c
:1047dc00cdff37006120e100cfff32000801be00a1
:1047ec000200be00f7ff37006150e100fcff3a0009
:1047fc00c9ff37006022b800060220000000d0007c
:10480c008180d2000482d2008582d2000000a000f8
:10481c000202520083825a0003003100020242005d
:10482c0083824a000000a1000603e900f3ff3a006e
:10483c0000000600889fbe008a9fbe00841f78007f
:10484c00a0ff07004f00780011003300f0ff2f008d
:10485c00838f6c0006003b00040565000a00a7006e
:10486c000800370009f0a6001000200008003700ef
:10487c00820f5400838f5c0003003900100020006d
:10488c0001003e000000200009f0a7000000ea0033
:10489c004f05be004f04be000000e0000000060003
:1048ac00889fbe008a9fbe000082700004027100c7
:1048bc0004827100260032000004be000200be001b
:1048cc006011b8006b092000950220000182cf0016
:1048dc000a0039000541b1000082cf000700390001
:1048ec000541b1000982cf00040039000541b10037
:1048fc000882cf00010039000541b1000542520089
:10490c00120032000a003b008281710061016400d8
:10491c008100d1000080d3008984d3000884d300a7
:10492c008b05e8000442e800f7ff3a000700370067
:10493c000804440089844c00000048008180480031
:10494c008b05e9000442e900f9ff3a0022ff070059
:10495c004f05be004f04be00000006008001780029
:10496c0002003700815978000201e9000200e000e2
:08497c00fcff3a0000000600f8
:020000040000fa
:1049840000000000c1c0000081c10000400100001f
:1049940001c30000c00300008002000041c2000007
:1049a40001c60000c00600008007000041c70000e7
:1049b40000050000c1c5000081c4000040040000df
:1049c40001cc0000c00c0000800d000041cd0000af
:1049d400000f0000c1cf000081ce0000400e000097
:1049e400000a0000c1ca000081cb0000400b000097
:1049f40001c90000c00900008008000041c800008f
:104a040001d80000c01800008019000041d900003e
:104a1400001b0000c1db000081da0000401a000026
:104a2400001e0000c1de000081df0000401f000006
:104a340001dd0000c01d0000801c000041dc0000fe
:104a440000140000c1d4000081d50000401500000e
:104a540001d70000c01700008016000041d60000f6
:104a640001d20000c01200008013000041d30000f6
:104a740000110000c1d1000081d0000040100000ee
:104a840001f00000c03000008031000041f100005e
:104a940000330000c1f3000081f200004032000046
:104aa40000360000c1f6000081f700004037000026
:104ab40001f50000c03500008034000041f400001e
:104ac400003c0000c1fc000081fd0000403d0000ee
:104ad40001ff0000c03f0000803e000041fe0000d6
:104ae40001fa0000c03a0000803b000041fb0000d6
:104af40000390000c1f9000081f8000040380000ce
:104b040000280000c1e8000081e9000040290000fd
:104b140001eb0000c02b0000802a000041ea0000e5
:104b240001ee0000c02e0000802f000041ef0000c5
:104b3400002d0000c1ed000081ec0000402c0000bd
:104b440001e40000c02400008025000041e50000cd
:104b540000270000c1e7000081e6000040260000b5
:104b640000220000c1e2000081e3000040230000b5
:104b740001e10000c02100008020000041e00000ad
:104b840001a00000c06000008061000041a100009d
:104b940000630000c1a3000081a200004062000085
:104ba40000660000c1a6000081a700004067000065
:104bb40001a50000c06500008064000041a400005d
:104bc400006c0000c1ac000081ad0000406d00002d
:104bd40001af0000c06f0000806e000041ae000015
:104be40001aa0000c06a0000806b000041ab000015
:104bf40000690000c1a9000081a80000406800000d
:104c040000780000c1b8000081b9000040790000bc
:104c140001bb0000c07b0000807a000041ba0000a4
:104c240001be0000c07e0000807f000041bf000084
:104c3400007d0000c1bd000081bc0000407c00007c
:104c440001b40000c07400008075000041b500008c
:104c540000770000c1b7000081b600004076000074
:104c640000720000c1b2000081b300004073000074
:104c740001b10000c07100008070000041b000006c
:104c840000500000c19000008191000040510000dc
:104c940001930000c05300008052000041920000c4
:104ca40001960000c05600008057000041970000a4
:104cb40000550000c195000081940000405400009c
:104cc400019c0000c05c0000805d0000419d00006c
:104cd400005f0000c19f0000819e0000405e000054
:104ce400005a0000c19a0000819b0000405b000054
:104cf40001990000c059000080580000419800004c
:104d040001880000c048000080490000418900007b
:104d1400004b0000c18b0000818a0000404a000063
:104d2400004e0000c18e0000818f0000404f000043
:104d3400018d0000c04d0000804c0000418c00003b
:104d440000440000c184000081850000404500004b
:104d540001870000c0470000804600004186000033
:104d640001820000c0420000804300004183000033
:104d740000410000c181000081800000404000002b
:104d84000102000004080000102000004080000020
:104d94000100000002000000040000000800000000
:104da400100000002000000040000000800000000f
:104db40000010000000200000004000000080000e0
:104dc40000100000002000000040000000800000ef
:020000040000fa
:104dd4000000fa00e00f21008040eb000148780059
:104de4000080fa00000006000000fa00f010210024
:104df4008040eb0001487800001121008040eb0066
:104e040001487800c012200001002000908888002a
:104e1400a18888004006200001002000b088880096
:104e2400c1888800a000200001002000d0888800ec
:104e3400e1888800e001200001002000f08888005b
:104e440001898800201221008040eb00014878008d
:104e5400301221008040eb0001487800c01220008d
:104e640001002000208988003189880080122100f7
:104e7400a1c0b300014878009012210041c1b300e1
:104e840001487800a012210041c1b3000148780014
:104e9400b012210011c0b300014878008013210032
:104ea4008040eb0001487800901321008040eb0023
:104eb400014878002e70ef002f70ef000080fa0098
:104ec400000006000000fa007886a9007866a900b0
:104ed4000080fa00000006000000fa00f010210033
:104ee400104078000004e00006003200f0102100b9
:104ef40010407800e14f5000020032000000eb0047
:104f04006d00370000112100104078000004e0001b
:104f140006003200f010210010407800e14f5000ec
:104f240002003a000000eb0063003700b288800002
:104f3400c3888000803e200001002000800f5100c3
:104f4400818f590006003600f010210010407800cf
:104f5400e14f500002003a000000eb005600370019
:104f6400d2888000e38880008007200001002000b0
:104f7400800f5100818f590006003600f010210087
:104f840010407800e14f500002003a000000eb00ae
:104f940049003700d2888000e3888000f0888000d0
:104fa40001898000800f5100818f59000b00360069
:104fb400f088800001898000e00f5000e08f5800e5
:104fc40006003200f010210010407800e14f50003c
:104fd40002003a000000eb003700370020122100e5
:104fe400104078000004e000060032002012210086
:104ff40010407800e14f5000020032000000eb0046
:105004002d00370030122100104078000004e00029
:10501400060032002012210010407800e14f5000b9
:1050240002003a000000eb002300370022898000d0
:10503400338980009000200001002000800f51007f
:10504400818f590006003e00201221001040780094
:10505400e14f500002003a000000eb001600370058
:10506400d0888000e188800080007800401f200004
:105074000088b90000007800d08b880090888000f8
:10508400a1888000a200200003002000dbfd0700af
:1050940080007800401f20000088b90000007800dc
:1050a400f08b880090888000a1888000d0818800df
:1050b400e1818800100020000080fa000000060052
:1050c4000000fa007010210010407800e24f5000f8
:1050d4000e0032007010210010407800e14f5000a3
:1050e4000a0032007010210010407800e34f500095
:1050f400060032007010210010407800e44f500088
:10510400020032000000eb000b00370060102100a9
:10511400104078000004e000060032006010210016
:1051240010407800e14f5000020032000000eb0014
:1051340001003700100020000080fa000000060083
:105144000c00fa00889fbe00e00f21001040780098
:105154000080fb00e60f500023033200e60f5000ee
:105164000c003c00e10f500025003200e10f50001c
:1051740003003c000000e00011003200e0033700af
:10518400e20f5000b1003200e50f5000b3023200cc
:10519400db033700e90f500026033200e90f50000b
:1051a40003003c00e80f5000cb033200d403370067
:1051b4006b005000e10f5000d1033e00c6033700de
:1051c400e00f210011c0b3000148780040c0b300d3
:1051d400f110070050c0b300ef10070060c0b30027
:1051e400ed10070070c0b300eb10070080c0b300df
:1051f400e91007004670ef004770ef00cb0337005b
:1052040030ff0700801321008040eb000148780044
:10521400901321008040eb0001487800f010210039
:1052240010407800e14f50000c003a0010c0b30069
:1052340046f0b700001021008040eb0001487800e0
:105244004830ef004a30ef004c30ef004e30ef00b2
:10525400e00f210021c0b300014878002012210092
:1052640010407800e14f500009003a0010c0b3002c
:1052740047f0b7005030ef005230ef0080c0b30069
:10528400b6100700e00f210021c0b30001487800e8
:105294004188800000802000008060000000e00061
:1052a4000800320007ff0700e00f210011c0b3001f
:1052b40001487800901021008040eb0001487800fc
:1052c4009a0337004188800000202000008060009d
:1052d4000000e00011003200fffe0700e10f500063
:1052e40007003a002010210011c0b30001487800e3
:1052f400e00f210061c0b3000148780003003700cb
:10530400e00f210081c0b300014878009010210013
:105314008040eb0001487800840337004188800016
:1053240000402000008060000000e00078033200ac
:1053340063ff07000000e00004003a00e00f2100d2
:1053440081c0b3000148780078033700e00f2100e2
:1053540061c0b30001487800dafe07002010210084
:1053640051c0b3000148780070102100104078004b
:10537400e24f50000c003a00601021001040780009
:10538400e14f500004003a008013210011c0b30023
:105394000148780029003700801321008040eb0089
:1053a4000148780025003700701021001040780073
:1053b400e14f50000c003a006010210010407800ca
:1053c400e14f500004003a009013210011c0b300d3
:1053d4000148780019003700901321008040eb0049
:1053e4000148780015003700701021001040780043
:1053f400e34f500011003a00601021001040780083
:10540400e14f500007003a009013210011c0b3008f
:10541400014878008013210011c0b30001487800ce
:1054240006003700901321008040eb00014878000b
:10543400801321008040eb00014878009010210087
:105444008040eb00014878003803370046d0bf00a5
:10545400e14f500058013a00800f07000004e000bb
:1054640021003a0097fe070040c0b3004a1007002d
:1054740050c0b3004810070060c0b30046100700d6
:1054840070c0b3004410070080c0b300421007008e
:105494002012210010407800e14f500002003a0031
:1054a40080c0b3002d100700801321008040eb0062
:1054b40001487800901321008040eb0001487800f7
:1054c4005030ef005230ef004830ef004a30ef0028
:1054d4004c30ef004e30ef00e00f210091c0b300dc
:1054e400014878006e013700b2888000c3888000cc
:1054f400803e200001002000800f5100818f590060
:1055040009003a008013210011c0b300014878005b
:105514007886a8009013210011c0b30001487800d8
:105524007866a8005e013700b0888000c1888000da
:10553400e00f5000e08f580009003a00801321006a
:105544008040eb00014878007886a9009013210080
:105554008040eb00014878007866a90050013700cc
:10556400e0102100104078000080fb00e10f5000a3
:1055740096003200e20f5000030132000000e00008
:1055840038013a0000102100104078000004e000c7
:10559400040032000010210010407800e14f500058
:1055a40016003a0060c0b300fb0f070070c0b300e0
:1055b400f90f070060c0b300e80f070070c0b30024
:1055c400e60f07004c30ef004e30ef00801321004f
:1055d40011c0b300014878007886a8009013210018
:1055e40011c0b300014878007866a80000102100bb
:1055f40021c0b300014878002901370000102100c0
:1056040010407800e24f500018013a0060c0b30027
:1056140002100700e14f40000a003a0060c0b300e6
:10562400dd0f0700801321008040eb000148780063
:105634007886a900901321008040eb00014878008f
:105644007866a90070c0b300f40f0700e14f400072
:1056540008013a006082800071828000610040008d
:10566400e0804800608288007182880070c0b300c6
:10567400c90f070070c0b300b80f07006082800034
:1056840071828000f081880001828800d0818000ce
:10569400e18180001082880021828800608280007d
:1056a400718280000001be00d0818000e181800011
:1056b400800f5100818f5900f0003a000011210041
:1056c4001040780068014700e4004700a502070085
:1056d400e10f500037003a002e009000be00900009
:1056e40060898800718988002e009000be009000b7
:1056f400a0898800b18988004e009000de009000e7
:10570400808988009189880062898000738980007b
:105714008089800091898000b8888000c9888000d1
:1057240084052100841f780047052100a603210079
:105734000202be000001be000800be00a70207006e
:105744008f87e900a0828000b1828000f081880008
:1057540001828800d0818000e1818000108288006d
:1057640021828800a0828000b182800080007800bd
:10577400401f20000088b90000007800f08b8800ea
:1057840060c0b300750f07004c30ef004e30ef00df
:105794008013210011c0b300014878007886a80066
:1057a4009013210011c0b300014878007866a80066
:1057b400bb00370070c0b300770f0700e00f210073
:1057c400b1c0b30001487800b5003700f08880000c
:1057d40001898000e00f5000e08f580009003a0072
:1057e4008013210011c0b300014878007886a80016
:1057f4009013210011c0b300014878007866a80016
:10580400a7003700d0888000e1888000e00f5000b6
:10581400e08f580009003a00801321008040eb001b
:10582400014878007886a900901321008040eb009d
:10583400014878007866a90099003700001021001b
:10584400104078000004e000040032000010210041
:1058540010407800e24f500016003a0040c0b300f8
:105864004d0f070050c0b3004b0f070040c0b300fa
:105874003a0f070050c0b300380f07004830ef005c
:105884004a30ef008013210011c0b30001487800b2
:105894007886a8009013210011c0b3000148780055
:1058a4007866a8000010210011c0b30001487800f8
:1058b4007b0037000010210010407800e14f5000b9
:1058c40070003a0040c0b300540f0700e14f40009d
:1058d4000a003a0040c0b3002f0f070080132100d4
:1058e4008040eb00014878007886a90090132100dd
:1058f4008040eb00014878007866a90050c0b300ee
:10590400460f0700e14f400060003a0040828000eb
:105914005182800061004000e0804800408288009d
:105924005182880050c0b3001b0f070050c0b30061
:105934000a0f070040828000518280000001be00ef
:10594400f088800001898000800f5100818f590008
:1059540050003a0040c0b300000f07004830ef0089
:105964004a30ef008013210011c0b30001487800d1
:105974007886a8009013210011c0b3000148780074
:105984007866a800460037004efd07004670ef0019
:1059940047d0bf00e14f500040003a005030ef00c4
:1059a4005230ef0080c0b300fb0e070080c0b3008c
:1059b400ea0e07003a00370047d0bf00e14f50001d
:1059c40037003a0080c0b300140f0700e14f4000d5
:1059d40033003a00808280009182800061004000a0
:1059e400e0804800808288009182880080c0b300f3
:1059f400e90e070080c0b300d80e07008082800043
:105a0400918280000001be002089800031898000dd
:105a1400800f5100818f590021003a005030ef006f
:105a24005230ef0030122100104078008e007800d0
:105a3400c1010700e10f500004003a001e00be003f
:105a4400a0898800b18988001500370080c0b300a0
:105a5400d10e0700e00f2100c1c0b3000148780057
:105a64000f003700000000000d00370000000000a8
:105a74000b003700000000000900370000000000a0
:105a84000700370000000000050037000000000098
:105a94000300370000000000010037000000000090
:105aa4004188800000802000008060000000e00049
:105ab4000800320003fd0700e00f210011c0b3000d
:105ac40001487800901021008040eb0001487800e4
:105ad400960137004188800000202000008060008b
:105ae4000000e00011003200fbfc0700e10f500051
:105af40007003a002010210011c0b30001487800cb
:105b0400e00f210061c0b3000148780003003700b2
:105b1400e00f210081c0b3000148780090102100fb
:105b24008040eb0001487800800137004188800004
:105b340000402000008060000000e0007601320098
:105b44005ffd07000000e00004003a00e00f2100c0
:105b540081c0b3000148780074013700e00f2100d0
:105b640061c0b30001487800d6fc07002010210072
:105b740051c0b30001487800701021001040780033
:105b8400e24f50000c003a006010210010407800f1
:105b9400e14f500004003a008013210011c0b3000b
:105ba4000148780029003700801321008040eb0071
:105bb400014878002500370070102100104078005b
:105bc400e14f50000c003a006010210010407800b2
:105bd400e14f500004003a009013210011c0b300bb
:105be4000148780019003700901321008040eb0031
:105bf400014878001500370070102100104078002b
:105c0400e34f500011003a0060102100104078006a
:105c1400e14f500007003a009013210011c0b30077
:105c2400014878008013210011c0b30001487800b6
:105c340006003700901321008040eb0001487800f3
:105c4400801321008040eb0001487800901021006f
:105c54008040eb00014878003401370090132100a4
:105c640010407800e14f500002003a007866a80026
:105c7400010037007866a9008013210010407800e5
:105c8400e14f500002003a007886a8000100370076
:105c94007886a90041888000008020000080600090
:105ca4000000e0000500320086fc0700e00f210040
:105cb40011c0b300014878004700370041888000d4
:105cc40000402000008060000000e000420032003c
:105cd400fbfc07000000e00004003a00e00f210094
:105ce40081c0b300014878003b00370070102100e8
:105cf40010407800e24f50000c003a006010210080
:105d040010407800e14f500004003a008013210055
:105d140011c0b300014878002f0037008013210020
:105d24008040eb00014878002b0037007010210000
:105d340010407800e14f50000c003a006010210040
:105d440010407800e14f500004003a009013210005
:105d540011c0b300014878001f00370090132100e0
:105d64008040eb00014878001b00370070102100d0
:105d740010407800e34f500017003a0060102100f3
:105d840010407800e14f500007003a0090132100c2
:105d940011c0b300014878008013210011c0b30082
:105da4000148780006003700901321008040eb0082
:105db40001487800801321008040eb0001487800fe
:105dc400e00f210061c0b3000148780020102100d9
:105dd40051c0b30001487800901021008040eb00ce
:105de40001487800d100370041888000001020006d
:105df400008060000000e000050032002010210057
:105e040090407800e00f210001487800c700370077
:105e14004188800000802000008060000000e000d5
:105e2400bf003200e00f210011c0b3000148780028
:105e3400be003700090d0700e14f500007003a008b
:105e440080c0b300d40d07005030ef005230ef0093
:105e5400e00f210011c0b300014878002012210096
:105e640010407800e14f500027003a0080c0b30092
:105e7400ea0d0700e14f400023003a0080828000d1
:105e84009182800061004000e080480080828800a8
:105e94009182880080c0b300bf0d070080c0b300aa
:105ea400ae0d070080828000918280000001be0058
:105eb4002089800031898000800f5100818f590032
:105ec40011003a005030ef005230ef003012210040
:105ed400104078008e00780097000700e10f500012
:105ee40004003a001e00be00a0898800b189880021
:105ef4000500370080c0b300a70d0700e00f2100a4
:105f0400c1c0b300014878004188800000802000af
:105f1400008060000000e0000900320080c0b3008f
:105f24009d0d07005030ef005230ef00e5fb0700f5
:105f3400e00f210011c0b30001487800620037006f
:105f44004188800000202000008060000000e00004
:105f540011003200e0fb0700e10f500007003a0097
:105f64002010210011c0b30001487800e00f210087
:105f740061c0b3000148780003003700e00f21003e
:105f840081c0b30001487800901021008040eb00ec
:105f9400014878004c003700418880000040200010
:105fa400008060000000e0004700320080c0b300c1
:105fb400790d07005030ef005230ef0040fc07002d
:105fc4000000e00004003a00e00f210081c0b300ab
:105fd400014878003c003700bafb0700e00f2100bd
:105fe40061c0b300014878002010210051c0b30003
:105ff400014878007010210010407800e24f5000f2
:106004000c003a006010210010407800e14f50006d
:1060140004003a008013210011c0b3000148780045
:1060240029003700801321008040eb0001487800ec
:10603400250037007010210010407800e14f500017
:106044000c003a006010210010407800e14f50002d
:1060540004003a009013210011c0b30001487800f5
:1060640019003700901321008040eb0001487800ac
:10607400150037007010210010407800e34f5000e5
:1060840011003a006010210010407800e14f5000e8
:1060940007003a009013210011c0b30001487800b2
:1060a4008013210011c0b3000148780006003700b6
:1060b400901321008040eb000148780080132100f8
:1060c4008040eb0001487800901021008040eb00f4
:1060d40001487800150037007afb070041888000ea
:1060e40000802000008060000000e0000e0032000c
:1060f400e00f210011c0b300014878000b00370005
:10610400e00f21008040eb000148780007003700d1
:106114000000000005003700000000000300370005
:106124000000000001003700000000004f04be0022
:106134000080fa00000006000400fa00004f780016
:10614400110798001e80fb000000e00002003a00e6
:1061540010002000010037000000eb000080fa006e
:10616400000006000600fa00004f780011079800ae
:10617400220798001e80fb000000e00014003a0093
:106184002ed0bf000004e00002003a0010c0b300ab
:106194002ef0b7002fd0bf000004e0000a003a0040
:1061a40080818000918180001e0190000089be00e2
:1061b400a0818000b18180002e0190000089be0082
:1061c40010002000030037000000eb00010037003e
:1061d4000000eb000080fa00000006004000fa0016
:1061e400889fbe00001f9800111f9800221f98006e
:1061f400331f9800441f9800551f9800661f98008d
:10620400771f98004e189000de189000f2f80700ef
:1062140002002000031224008ef8070000179800e3
:10622400111798002e189000be189000eaf8070085
:1062340002002000a347240086f8070020179800d6
:10624400311798000e1890009e189000e2f807008d
:1062540002002000832c24007ef8070040179800d9
:106264005117980018c0b300020020000312240044
:106274000e1090009e109000b8f807000000e00097
:10628400010035000044eb000804e0000400320083
:106294000000200001f42300008fbe001b00370023
:1062a40018c0b30002002000031f24000e10900049
:1062b4009e109000abf807000000e00001003c00d5
:1062c4000044eb000804e000040032000000200059
:1062d40001e82300008fbe000c0037000e1190006f
:1062e4009e11900000002000011a2400fbf7070013
:1062f400d2cc2c00c3cc23000cf9070002002000f0
:1063040003f02300f6f70700008fbe0018c0b300a7
:10631400d2cc2c00c3ec23002e109000be109000b1
:106324008ef807000000e000010035000044eb0097
:106334000804e000050032000000200001e823000a
:1063440020079800310798002100370018c0b300d7
:10635400d2cc2c00c3f423002e109000be10900069
:1063640080f807000000e00001003c000044eb005e
:106374000804e000050032000000200001f42300be
:106384002007980031079800110037002e11900063
:10639400be119000a099290091f12300cff70700c6
:1063a40002002000030a2400e0f807000200200095
:1063b4000308240027f807000001be0000002000a5
:1063c40001f02300c5f70700200798003107980063
:1063d4002e019000be0190001e00be00c0f7070011
:1063e40002002000031f2400d0f807005ff8070014
:1063f4006e1990000089be0018c0b300020020008e
:10640400031224000e1090009e10900053f8070011
:106414000000e000010035000044eb000804e00047
:10642400050032000000200001f02300400798001e
:10643400510798001d00370018c0b3000200200067
:10644400031f24000e1090009e10900045f80700d2
:106454000000e00001003c000044eb000804e00000
:10646400050032000000200001fc230040079800d2
:10647400510798000d003700020020000312240089
:106484000e1090009e10900094f707000200200068
:10649400031a2400eff707000200200003f0230092
:1064a4008ff70700400798005107980018c0b30001
:1064b400d2cc2c00c3ec23002e109000be10900010
:1064c40026f807000000e000010035000044eb005e
:1064d4000804e00005003200a099290091f123008e
:1064e40060079800710798001700370018c0b300c0
:1064f400d2cc2c00c3f423002e109000be109000c8
:1065040018f807000000e00001003c000044eb0024
:106514000804e00005003200d0cc2c00c1e42300c4
:106524006007980071079800070037002e1190004b
:10653400be1190000000200001f8230067f7070057
:10654400600798007107980018c0b300020020008b
:10655400031f24000e1090009e109000fff7070008
:106564000000e000010035000044eb000804e000f6
:10657400050032000000200001e82300000f98000d
:10658400110f98001d00370018c0b300020020004e
:10659400032224000e1090009e109000f1f70700d3
:1065a4000000e00001003c000044eb000804e000af
:1065b400050032000000200001f02300000f9800c5
:1065c400110f98000d00370002002000031f240063
:1065d4000e1090009e10900040f70700020020006b
:1065e400032224009bf707000200200003e8230095
:1065f4003bf70700000f9800110f980018c0b30074
:10660400d2cc2c00c3e423002e109000be109000c6
:10661400d2f707000000e000010035000044eb0061
:106624000804e000050032000000200001f423000b
:10663400200f9800310f98001d00370018c0b300d8
:10664400d2cc2c00c3ec23002e109000be1090007e
:10665400c4f707000000e00001003c000044eb0028
:106664000804e000050032000000200001e82300d7
:10667400200f9800310f98000d0037002e11900064
:10668400be119000d0cc2c00c1ec230013f70700fe
:10669400020020000302240024f807000200200066
:1066a40003e823000ef70700200f9800310f98002d
:1066b4002e099000be0990000e0890009e089000dc
:1066c40007f70700601798007117980018c0b30007
:1066d40002002000031f24000e1090009e10900062
:1066e4009ef707000000e000010035000044eb00c5
:1066f4000804e000040032006000b800400f980075
:10670400510f98001d00370018c0b300020020008c
:10671400032224000e1090009e10900091f70700b1
:106724000000e00001003c000044eb000804e0002d
:10673400050032006066260061ee2300400f9800d9
:10674400510f98000d00370002002000031f2400a1
:106754000e1090009e109000e0f60700020020004a
:1067640003092400f1f7070002002000832c240011
:1067740038f70700400f9800510f980018c0b30075
:10678400d2cc2c00c3e423002e109000be10900045
:1067940072f707000000e000010035000044eb0040
:1067a4000804e000050032006066260061ee230064
:1067b400600f9800710f98001900370018c0b300db
:1067c4000200200003f023002e109000be10900061
:1067d40064f707000000e00001003c000044eb0007
:1067e4000804e000040032006000b800600f980064
:1067f400710f98000a0037002e119000be1190000e
:106804000000200001f02300b4f60700020020007d
:1068140003fc2300c5f70700600f9800710f980070
:106824006e1890001000be006bf707004e01900038
:10683400de019000bdf707006e019000fe0190009c
:10684400baf707006e119000fe119000b7f7070029
:106854004e119000de119000b4f7070043f70700d3
:106864007e1990000089be007e1890001001be00c1
:106874006e1890001000be00800f5100818f5900e7
:10688400040036006e1890001000be007e199000bf
:106894000089be007e1890001000be004ef707006d
:1068a4000004be00d2cc2c00c3dc23004e089000b0
:1068b400de0890008af607006e099000fe09900039
:1068c40087f607000001be000800be0097f7070026
:1068d40026f707004eb997000089be004f04be009a
:1068e4000080fa00000006000000fa00a13d8000cc
:1068f40000fc2f0000806000f000b300a03d880081
:10690400113f800000f82f00008060003000b300c9
:10691400103f880020022000001d88008000200015
:10692400c01c88009a23ef0099e3a8009be3a90008
:106934009ba3a8009b43a8008960a9008980a900a3
:106944009960a8007a06a900400721000800070002
:10695400600b210006000700007d2300c08788002b
:10696400009c2300d08788000080fa000000060005
:106974000200fa00000f78001e007800c203200015
:106984008000eb00f7f707001e0078008040eb0062
:1069940001c098001e0078008040eb0061789800e8
:1069a4001e0078008040eb00517898001e007800ab
:1069b4008040eb00417898001e0078008040eb0096
:1069c400717898000080fa00000006000200fa00c6
:1069d400000f78001e0078008040eb0001c0980092
:1069e4001e0078008040eb00617898001e0078005b
:1069f4008040eb00517898001e0078008040eb0046
:106a0400417898001e0078008040eb00717898006f
:106a14000080fa00000006000200fa00004f78002f
:106a2400400b210010407800704060000004e0003a
:106a3400af003a00200b2100104078000080fb00da
:106a4400e20f500029003200e20f500005003c0024
:106a54000000e0000a003200e10f50001200320092
:106a640099003700e40f500064003200e40f500036
:106a740039003500e50f50007000320092003700f5
:106a84001e407800e24f500092003a009e40780089
:106a94004007210098000700200b210011c0b3001b
:106aa40001487800920037009e407800400721009a
:106ab4009100070000ceb3001e40400072f0b70002
:106ac40072d0bf00a10007000004e00003003a00f8
:106ad40040072100bdff070085003700200b21007f
:106ae40021c0b30001487800810037009e4078003f
:106af400400721008000070080c2b3009e40780058
:106b040080cf500004003600c0c5b3009e4078001a
:106b140080cf50000300360040072100abff070080
:106b24007300370000ceb3009e404000000b2100ec
:106b340001487800000b210010407800e540500027
:106b4400000b210001487800200b210031c0b30064
:106b54000148780066003700300b210010407800af
:106b64000004e0001200320000c3b3009e4078002d
:106b740080cf50000a00320020c3b3009e4078004a
:106b840080cf50000600320030c3b3009e4078002e
:106b940080cf500002003200400721008bff070025
:106ba400300b21008040eb000148780006003700dc
:106bb4001e407800fb4f500003003a00300b2100c8
:106bc40011c0b300014878009e40780040072100be
:106bd40049000700100b210090407800000b2100b1
:106be4001040780080cf50003c003a00200b210078
:106bf40041c0b300014878003d0037009e40780052
:106c0400400721003c000700100b210010407800d1
:106c14008080fb00000b2100104078000080fb0006
:106c240064004000808f50002e003a00200b2100a9
:106c340051c0b300014878002d0037001e40780091
:106c4400e34f500004003a004007210055000700bc
:106c54000004e00003003a00400721005bff070046
:106c6400230037009e4078004007210022000700df
:106c7400000b210010407800e3405000000b21007d
:106c840001487800210721009140780028d0bf00f6
:106c940080cf500003003a00a08580000030a0009f
:106ca400a08588007d000700400b2100104078007b
:106cb400684060000004e0000c003a004007210036
:106cc40042ff07000a003700400721003fff07008a
:106cd4000700370000000000050037000000000036
:106ce400030037000000000001003700000000002e
:106cf4000080fa00000006000400fa00000f78008b
:106d0400214798001e007800507890008080fb0096
:106d14001e017800ae41900003f178008040e80045
:106d24001e007800517898001e007800d0789000fa
:106d3400b0c3b30080cf5000020036001e007800bc
:106d440022ff07000080fa00000006000200fa009b
:106d5400004f78001e4078000004e0000400320078
:106d640010c3b3009e40780080cf50000800360066
:106d740040c6b3009e40780080cf50000600360025
:106d840050c9b3009e40780080cf500002003e00fe
:106d940010c0b300010037000040eb000080fa008f
:106da400000006000600fa00200798002e0090005c
:106db400407890008080fb002e0090000001eb00e2
:106dc40081020700000f78002e0090005078900098
:106dd4000080fb0064005000ae0090006140780029
:106de4000080fb000002b1004c00dd001007980099
:106df4002e009000507890000080fb00630050004b
:106e0400ae009000614078000080fb000002b100f9
:106e14004800dd009e0090000100700010079800fb
:106e24002e009000507890000080fb000080e90064
:106e3400ae009000614078000080fb000002b100c9
:106e44004400dd009e0090000100700010079800cf
:106e54002e009000507890000080fb000000e900b4
:106e6400ae009000614078000080fb000002b10099
:106e74009e00900001007000100798001e00900012
:106e84009e0f500002003a0010c0b300010037000a
:106e94000040eb000080fa00000006000600fa0043
:106ea40070072100100798000040eb00104798007d
:106eb4009e409000014f78002b0037001e80fb009d
:106ec4009e00900000804000904078004147980068
:106ed4001e4fe8004e409000fb4f500019003a004e
:106ee4001e80fb009e0090000080400090407800cf
:106ef40000cdb30000c04000404798001e4fe8009a
:106f04004e4090000004e00007003a001e4090004c
:106f14000080fb009e00900000804000b1c1b300df
:106f2400014878000d0037001e4090000080fb00ef
:106f34009e00900000804000ce4090000148780000
:106f4400060037001e4090000080fb009e00900069
:106f540000804000ce409000014878001e40900020
:106f64000040e80010479800000b21001040780012
:106f74009e4f5000d1ff3e00000b2100904078004e
:106f84001e4090001e40500080c04000000b2100b5
:106f9400014878000080fa00000006000800fa00aa
:106fa40020079800614798000040eb00004f7800ec
:106fb4001e4078008080fb002e01900023c0b300a7
:106fc40003f178000040e800004f78001e4078008c
:106fd4008080fb00ee41900042c8b30082c14100b2
:106fe4002e01900003f178000040e800004f780083
:106ff4001e4078000040e800004f78008010210017
:1070040010407800804078002e0090000141780004
:107014008e007800b8010700e00f210010407800ce
:10702400804078002e009000014178008e007800a6
:10703400b101070010102100104078008040780052
:107044002e009000014178008e007800aa0107000c
:107054002e0090000041eb008e007800a60107008e
:107064002e00900012c0b3008e007800a201070029
:107074002e00900032c0b3008e0078009e010700fd
:107084006089800071898000804078002e00900023
:10709400014178008e007800970107006289800022
:1070a4007389800000f02f000100200002027800a4
:1070b4000301780080017800010078000302620077
:1070c400000061008000eb00c000dd000000200033
:1070d4000001be006120b8000001710081817100cf
:1070e400481add004810de0000007200c818de00f7
:1070f400804078002e009000014178008e007800d6
:107104007d0107008089800091898000804078009b
:107114002e009000014178008e007800760107006f
:10712400828980009389800000f02f0001002000f4
:1071340002027800030178008001780001007800e1
:1071440003026200000061008000eb00c000dd006b
:10715400000020000001be006120b80000017100a1
:1071640081817100481add004810de0000007200c1
:10717400c818de00804078002e009000014178009d
:107184008e0078005c010700a0898000b18980002e
:10719400804078002e009000014178008e00780035
:1071a40055010700a2898000b389800000f02f00f8
:1071b40001002000020278000301780080017800b9
:1071c4000100780003026200000061008000eb000f
:1071d400c000dd00000020000001be006120b800f6
:1071e4000001710081817100481add004810de0041
:1071f40000007200c818de00804078002e00900065
:10720400014178008e0078003b01070080132100c3
:1072140010407800804078002e00900001417800f2
:107224008e0078003401070090132100104078008c
:10723400804078002e009000014178008e00780094
:107244002d0107001e40780052c2b3008240400066
:107254002e009000214098001e407800e540400038
:107264002e009000417898001e4078008080fb003a
:107274002e0090000001eb0053010700f10f2000e5
:10728400810060001e4190006041610081407100f6
:10729400114798004800de00ae409000e0c0600056
:1072a40000c07000204798001e4078008080fb00da
:1072b4002e4190000281fb004411de00024178005f
:1072c40004c2b300844141002e01900003f1780010
:1072d4000040e800004f78001e4078008080fb00ea
:1072e4002e4190006f41610004c2b300844141000b
:1072f4002e01900003f178000040e800004f780070
:107304001e4078008080fb001e4190000281fb003b
:107314004411de000241780004c2b30084414100fc
:107324002e01900003f178000040e800004f78003f
:107334001e4078008080fb001e4190006f41610078
:1073440004c2b300844141002e01900003f178008f
:107354000040e800004f78001e4078008080fb0069
:107364002e01900033c0b30003f178000040e80020
:10737400004f78000080fa00000006000c00fa00bc
:1073840040079800214f980030c0b300004f7800a8
:107394001e80fb00ce009000e140780080102100a8
:1073a400014878001e4fe8001e80fb00ce009000cc
:1073b400e140780090102100014878001e4fe80059
:1073c40080102100104078000080fb00f30f500073
:1073d4000e003200f40f5000b6003200e10f5000ee
:1073e400c2003a001e80fb00ce009000e14078000d
:1073f400e0102100014878001e4fe800e010210051
:107404008040eb0001487800b90037001e80fb0083
:10741400ce009000e1407800f0102100014878008f
:107424001e4fe8001e80fb00ce009000e140780073
:1074340000112100014878001e4fe8001e80fb0067
:10744400ce00900061407800104798001e4fe8007d
:107454001e80fb00ce009000614078002047980019
:107464001e4fe8001e4090000080fb00ae409000dc
:107474008180fb00c808dd0001007000cf80de00c1
:1074840090888800a18888001e80fb00ce009000b0
:1074940061407800104798001e4fe8001e80fb00f2
:1074a400ce00900061407800204798001e4fe8000d
:1074b4001e4090000080fb00ae4090008180fb00e5
:1074c400c808dd0001007000cf80de00b0888800ad
:1074d400c18888001e80fb00ce00900061407800c7
:1074e400104798001e4fe8001e80fb00ce0090005d
:1074f40061407800204798001e4fe8001e4090002d
:107504000080fb00ae4090008180fb00c808dd00d5
:1075140001007000cf80de00d0888800e1888800f8
:107524001e80fb00ce009000614078001047980058
:107534001e4fe8001e80fb00ce00900061407800e2
:10754400204798001e4fe8001e4090000080fb007a
:10755400ae4090008180fb00c808dd00010070008f
:10756400cf80de00f0888800018988001e80fb003f
:10757400ce009000e14078002012210001487800fc
:107584001e4fe8001e80fb00ce009000e140780012
:1075940030122100014878001e4fe8001e80fb00d5
:1075a400ce00900061407800104798001e4fe8001c
:1075b4001e80fb00ce0090006140780020479800b8
:1075c4001e4fe8001e4090000080fb00ae4090007b
:1075d4008180fb00c808dd0001007000cf80de0060
:1075e40020898800318988001e80fb00ce0090002d
:1075f40061407800104798001e4fe8001e80fb0091
:10760400ce00900061407800204798001e4fe800ab
:107614001e4090000080fb00ae4090008180fb0083
:10762400c808dd000100700080407800801221004d
:10763400014878001e80fb00ce0090006140780075
:10764400104798001e4fe8001e80fb00ce009000fb
:1076540061407800204798001e4fe8001e409000cb
:107664000080fb00ae4090008180fb00c808dd0074
:1076740001007000804078009012210001487800d9
:107684001e80fb00ce009000e1407800a012210093
:10769400014878001e4fe8001e80fb00ce009000d9
:1076a400e1407800b0122100014878001e4fe80044
:1076b4000f0037001e80fb00ce009000e1407800f0
:1076c40070102100014878001e4fe8001e80fb0066
:1076d400ce009000e140780060102100014878005d
:1076e4001e4fe80000000000010037000000000009
:1076f4000080fa00000006000800fa001007980055
:1077040021079800624798002e009000104f7800df
:107714006e409000e24f5000030032006e40900033
:10772400e34f50000e003a001e80fb009e009000c4
:1077340000804000b1c1b300014878001e4fe8004a
:107744001e80fb009e00900000804000ee409000f0
:107754000143b000014878001e4fe80016003700ce
:107764006e409000fb4f50000d003a001e80fb005d
:107774009e00900000804000b1c1b3000148780031
:107784001e4fe8001e80fb009e0090000080400019
:1077940001c3b300014878001e4fe800060037001b
:1077a4001e80fb009e00900000804000ee40900090
:1077b400014878001e4fe8002e0090001e48780013
:1077c4000080fa00000006000c00fa003007980060
:1077d40041079800520798006000b800008fbe006f
:1077e400180037003e009000104078008080fb00b5
:1077f4005e00900080806800f00f20000080600030
:10780400200798005e009000c800de002e00900063
:1078140000014000204c2a000000410010007800c4
:1078240000806800500798003e0090000000e800c7
:107834003007980012002000030020001e0f4100b2
:107844005e9749004e0090008000eb00be0f500090
:10785400ae8f5800e3ff3e005e0090000080fa0007
:10786400000006000000fa00c104800000002100ae
:10787400008060000000e00022003200410480002b
:1078840000002100008060000000e0001d003200c4
:107894008980a900300f210090407800200f21003a
:1078a4001040780080cf50000b0039007a06a90000
:1078b4009980a900b1878000f0fd2f00008060004e
:1078c400b0878800b1878000d0ff2f00008060005f
:1078d400b08788000b003700300f2100104078007b
:1078e4000081fb00610b2100810041009140780080
:1078f4008180fb00e11c88008040e800300f2100fb
:10790400014878000080fa00000006000000fa0038
:10791400c104800000802000008060000000e000be
:1079240017003200410480000080200000806000c5
:107934000000e000120032008960a900d01c800021
:10794400620060000000e000030032009a23a900f6
:10795400400721001dfc0700d01c8000640060006b
:107964000000e00003003200f01c8000400721000a
:1079740016fc0700f01c80000040780026fc07007d
:107984000080fa00000006000000fa00040007006e
:10799400220007004c0007000080fa0000000600e7
:1079a4000000fa00400b210010407800684060009d
:1079b4000004e0001700320010c0b30017070700ee
:1079c4000004e00003003a0010c0b300e30607001f
:1079d4001000370010c0b30010070700e14f40004b
:1079e4000c003a00d287800028d0bf008040780085
:1079f400400721000200010040072100dcfb0700d2
:107a0400a08580000020a000a085880010c0b300dd
:107a1400e10607000080fa00000006000000fa00fa
:107a2400400b210010407800644060000004e00036
:107a340018003200600f2100104078000042b200ac
:107a44000004e00013003a00a1858000b0ff2f007d
:107a540000806000a0858800600b2100c4fb070043
:107a6400c287800028d0bf0080407800600b2100ce
:107a740002000100b08780000010a000b0878800d9
:107a840020c0b300b506070030c0b300c20607002b
:107a94000b003700400b2100104078006440600068
:107aa4000004e00006003a0020c0b300db06070033
:107ab4000004e00002003a0020c0b300a70607005b
:107ac4000080fa00000006000000fa00600f2100a8
:107ad40010407800624060000004e000250032009d
:107ae400600f2100104078000042b2000004e00062
:107af4001d003a00200f210090407800c0c3b3005d
:107b040080cf50001a003e007a06a8008980a900a0
:107b14009980a800b08780000050a000b08788003a
:107b240000000000d11c80000010200000806000d4
:107b34000000e000fbff3200300f2100104078000d
:107b44000081fb00610b210081004100914078001d
:107b54008180fb00e11c88008040e800300f210098
:107b640001487800030037000000000001003700de
:107b7400000000000080fa00000006000000fa0087
:107b840020002100e11821001100980020002100ac
:107b9400e11821000108780020002100a0009000d5
:107ba4000110a00021009800200021002001900075
:107bb400e1ff2f00810061002100980020002100d6
:107bc4008040eb006140980020012000c024880020
:107bd40000002800d02488009e24ef008a20a900f9
:107be4009a20a8007826a80040042000c0818800bc
:107bf4000080fa00000006000200fa0020002100c4
:107c0400e0409000014f78001e4078000080fa00a8
:107c1400000006000000fa008a20a900f124800078
:107c240000082000008060000000e000080032002e
:107c34009ee4a9000a30ef008080800020009000bc
:107c44008000eb00010878001030ef00d800370006
:107c540050808000e40f5000c8003200e40f500050
:107c640009003e00e10f500040003200e10f5000d7
:107c74000e003900e20f500040003200e30f5000c4
:107c840066003200c0003700e60f5000a300320047
:107c9400e60f50008f003900e70f5000b7003200a4
:107ca400e80f5000a1003200b70037002000210087
:107cb40020009000620060000000e000bb003a0079
:107cc4002000210010009000808088002000210006
:107cd40010009000104078000cf0b7002000210044
:107ce4001000900010009000708088002000210097
:107cf40010009000e60040002000210011009800d0
:107d0400200021009000900040192100808f500035
:107d140003003a0020002100e1182100110098001e
:107d24002000210020019000e1ff2f00810061006c
:107d340021009800200021009000900020002100e4
:107d440010007800808f500004003a0020002100c9
:107d5400a00090000110a000210098009a04a8003f
:107d64002000200050808800910037009a24a80049
:107d740020002000508088008d00370020d0bf00f4
:107d8400e14f50000a00320070808000100078003b
:107d9400108188007080800020009000208188007d
:107da400708080002040900026f0b700010037006a
:107db4002070ef0011818000f00f2000808f5000b0
:107dc40009003600108180004800de00e6006000f3
:107dd400000f200001007000b0248800a0002000e3
:107de400508088007200370010818000b024880021
:107df4001081800061006000004078000004e00011
:107e040003003200500020005080880068003700d2
:107e1400300020005080880065003700f124800085
:107e240000002800008060000000e000090032002b
:107e340020002100604090008040e80020002100e4
:107e4400614098009fe4a900500020006b000700e7
:107e54005700370026d0bf008080fb008100e90076
:107e6400cf08de00814078000040e90026f0b7002a
:107e74000104e000100032007080800066004000c1
:107e8400708088000cd0bf000040e9000cf0b700ff
:107e94000cd0bf000004e00003003a0020002000e2
:107ea40056000700420037009a24a8002000200052
:107eb400508088003e003700208180009040780088
:107ec4008180fb00b12488000000e8002081880044
:107ed40037003700f1248000000028000080600093
:107ee4000000e00009003200200021006040900002
:107ef4008040e800200021006140980040002000fc
:107f04003e0007009fe4a900290037009a64a800f6
:107f14008000200050808800250037008000200069
:107f2400508088009a64a8002100370020818000d6
:107f3400a124800081407800014878000000e80016
:107f44002081880026d0bf000040e90026f0b70059
:107f540026d0bf000004e000040032009aa4a90067
:107f64006000200050808800020037009aa4a80016
:107f7400110007009a84a8000d003700200020009b
:107f84001e0007000a003700200021006040900016
:107f94008040e8002000210061409800600020003b
:107fa4001600070000000000010037000000000078
:107fb4000080fa00000006000000fa0070808000d3
:107fc40066004000708088000cd0bf000040e900cb
:107fd4000cf0b7000cd0bf000004e00003003a002e
:107fe400400020005080880002003700100020006c
:107ff400508088000080fa00000006000200fa00a9
:10800400000f78009a44a80080808000200090002f
:108014000000e00003003200808080002000900017
:108024001e0878000a30ef000080fa000000060005
:108034000800fa00000f78002147980022079800f2
:1080440033079800200021002000900061006000a8
:108054000000e0000d003a00ae0190002e419000b7
:108064009e007800a0192100950007003e019000b1
:10807400a119210010c0b3003c0007003e0090008d
:108084002100200001087800030037003e00900022
:108094008000eb00010878000080fa000000060070
:1080a4000800fa00000f7800214798002207980082
:1080b4003307980020002100200090006100600038
:1080c4000000e00024003a00ae0190002e41900030
:1080d4009e00780040192100610007003e019000d5
:1080e4004119210010c0b300200007003e00900099
:1080f40021002000010878001e00780001c6b300aa
:10810400014878001e00e80041c6b3000148780029
:108114001e80e800f1c0b300014878009e0078009a
:108124006380400041c1b300014878009e0078009c
:108134006480400091c1b300014878009e0078003b
:1081440065804000e1c1b3000148780060c0b3001d
:1081540020479800030037003e0090008000eb00a9
:10816400010878000080fa00000006000600fa000a
:10817400004f780011079800220798002000210082
:1081840020009000610060000000e0002f003a0031
:108194002e0090001100200001087800200021002a
:1081a400100078009e00900011009800200021002b
:1081b400100078001e48780020002100100078008c
:1081c400ae009000210098002000210010007800eb
:1081d400e600400020002100010878002000210072
:1081e4009000780040192100808f500003003a006d
:1081f40020002100e118210001087800200021005e
:1082040020019000d1ff2f0081006100210098001f
:108214002000210090009000200021001000780030
:10822400808f500004003a0020002100a00090003c
:108234000100a00021009800508080000000e000b0
:1082440005003a008a20a800030037002e009000a1
:108254008000eb00010878000080fa0000000600ae
:108264000800fa00000f78001107980042479800b0
:10827400330798003e009000000040008000780022
:108284001e007800010878001e00780010007800b5
:10829400800078000100a0001e007800010878002a
:1082a4001e007800ce409000214098001e00780007
:1082b4009e009000210098000080fa000000060053
:1082c4000800fa00000f7800110798004247980050
:1082d400330798003e0090000000400080007800c2
:1082e4001e007800010878001e007800ce4090003f
:1082f400214098001e0078009e0090002100980004
:108304000080fa00000006000000fa0020002100ae
:10831400200090000000d100614060000080fb005c
:1083240000f0a7000000ea000000ea004f00de00b1
:10833400004078000080fa00000006000000fa0007
:108344002000210020009000614060000080fb00bc
:1083540000f0a7000000ea000000ea004f00de0081
:10836400004078000080fa00000006000800fa00cf
:10837400300798000000eb00000f78000000eb00cd
:1083840010079800b0c0b30083040700b0c0b30066
:108394007204070010002000200798001e00370018
:1083a400c0818000e400470081017800000178006a
:1083b40021c0b3003e0090001dff070009003700f4
:1083c400b0c0b30095040700e14f400005003a0037
:1083d4001000200010079800b0c0b3006e0407001e
:1083e400030037002e009000e10f5000f4ff32002c
:1083f4001e009000e10f50000c0032002e0090008f
:10840400e20f5000090032001e007800e50f500012
:10841400050032001e0fe8002e0090000000e0006e
:10842400dfff3a000100370000000000b0c0b300d5
:10843400590407002e009000e20f500002003200a1
:1084440010c0b300010037000040eb000080fa00c8
:10845400000006000a00fa0030079800014f980057
:108464000000eb00000f78000000eb0010079800fc
:10847400b0c0b30048040700b0c0b300370407001d
:1084840010002000200798001e003700c0818000e3
:10849400e400470081017800000178008e489000d4
:1084a4003e009000fefe070009003700b0c0b30094
:1084b4005a040700e14f400005003a001000200074
:1084c40010079800b0c0b30033040700030037005e
:1084d4002e009000e10f5000f4ff32001e009000c7
:1084e400e10f50000c0032002e009000e20f50000b
:1084f400090032001e007800e50f5000050032002c
:108504001e0fe8002e0090000000e000dfff3a009c
:108514000100370000000000b0c0b3001e040700d3
:108524002e009000e20f50000200320010c0b30091
:10853400010037000040eb000080fa000000060054
:108544000c00fa0014d0bf000080fb00cf80de00d6
:108554002201200003002000820f5000838f580066
:1085640092013e0000600100120037002500370030
:1085740038003700400037006000370080003700c3
:10858400930037009b003700c4003700ca0037004f
:108594002a013700dc003700e4003700000137000f
:1085a4003a01370042013700550137005d013700b9
:1085b400f20037000040eb00604798000040eb00f9
:1085c400704798000040eb00004f98000040eb001b
:1085d400104f98000040eb00204f98000040eb0043
:1085e400304f98000040eb00830107002ed0bf00fd
:1085f400e14f50006f013a0010c0b30014f0b7000f
:108604007b01370040c2b30040479800b0c0b300bc
:10861400504798006400470054ff0700004f78005b
:108624001e4078000004e00005003a00a0c0b3003a
:10863400ca03070020c0b30014f0b7006c01370070
:1086440010c0b3002ff0b70080c0b30014f0b7001f
:1086540067013700a0c0b300f0030700e14f4000fa
:1086640056013a00a0c0b300cb03070030c0b300ea
:1086740014f0b7005e0137006600470061c0b30024
:1086840074ff0700004f78001e4078000004e000eb
:108694000500320010c0b3002ff0b70080c0b30053
:1086a40014f0b700520137006e4090000080fb00c8
:1086b400c800dd007e4090000080fb000080400088
:1086c400b08088008e489000114798001e489000a2
:1086d4000080fb00c800dd002e4890000080fb00f5
:1086e40000804000c0808800be4890002147980068
:1086f40040c0b30014f0b7003d013700c0808000d3
:108704008000eb00b4ef070002f02f00f3772400a1
:1087140050ef070002002000a347240003f00700e5
:1087240092ef070000007800d0808800b0808000bd
:108734008000eb00a8ef070002f02f00f37724007d
:1087440044ef070002002000f3322400f7ef070093
:108754000200200043232400e0ee07000200200072
:1087640003122400f1ef070080ef070000007800f7
:10877400e080880050c0b30014f0b7001c0137003b
:1087840030cfb30040479800d0c2b30050479800a0
:1087940064004700f5fe0700004f78001e40780093
:1087a4000004e00005003a00a0c0b3006b0307001a
:1087b40060c0b30014f0b7000d01370010c0b3005f
:1087c4002ff0b70080c0b30014f0b70008013700e1
:1087d400a0c0b30091030700e14f4000f9003a0044
:1087e400a0c0b3006c03070070c0b30014f0b7005e
:1087f400ff0037006600470031c0b30015ff0700d3
:10880400004f78001e4078000004e00005003200ac
:1088140010c0b3002ff0b70080c0b30014f0b7004d
:10882400f30037006e4090000080fb00c800dd00bc
:108834007e4090000080fb0000804000f0808800b3
:108844008e48900031479800f080800063006000fb
:108854000000e0000500320010c0b3002ff0b700a4
:1088640080c0b30014f0b700e1003700d08080006e
:108874008000eb00a0818800b1818800e080800046
:108884008000eb0080818800918188002f70ef00c8
:108894002e70ef001470ef00d500370010c0b30045
:1088a400d5000700e10f5000c8003a002e70ef0019
:1088b4001470ef00ce00370000c3b30040479800a7
:1088c400d0c6b3005047980064004700a7fe0700d5
:1088d400004f78001e4078000004e00005003a00d4
:1088e400c0c0b3001d030700b0c0b30014f0b7004c
:1088f400bf00370010c0b3002ff0b70080c0b30032
:1089040014f0b700ba003700c0c0b3004303070037
:10891400e14f4000af003a00c0c0b3001e0307009f
:10892400c0c0b30014f0b700b100370030cfb300bb
:1089340040479800d0c2b3005047980064004700f5
:108944008afe0700004f78001e4078000004e00013
:1089540005003a00a0c0b3000003070020c1b30023
:1089640014f0b700a200370010c0b3002ff0b70016
:1089740080c0b30014f0b7009d003700a0c0b3005e
:1089840026030700e14f400094003a00a0c0b30062
:1089940001030700d0c0b30014f0b70094003700ff
:1089a4006600470031c0b300aafe0700004f7800fc
:1089b4001e4078000004e0000500320010c0b3003f
:1089c4002ff0b70080c0b30014f0b7008800370060
:1089d4006e4090000080fb00c800dd007e409000e7
:1089e4000080fb0000804000f08088008e489000ea
:1089f40031479800f0808000630060000000e000d0
:108a040005003a00f1808000000022000080600030
:108a14000000e00005003a0010c0b3002ff0b700da
:108a240080c0b30014f0b700710037002f70ef005e
:108a3400a0c0b30014f0b7006d00370000c3b3004a
:108a44004047980060c6b300504798006400470050
:108a540046fe0700004f78001e4078000004e00046
:108a640005003a00a0c0b300bc020700e0c0b30098
:108a740014f0b7005e00370010c0b3002ff0b70049
:108a840080c0b30014f0b70059003700a0c0b30091
:108a9400e2020700e14f400052003a00a0c0b300d8
:108aa400bd020700f0c0b30014f0b7005000370057
:108ab40030cfb30040479800d0c2b300504798006d
:108ac4006400470029fe0700004f78001e4078002c
:108ad4000004e00005003a00a0c0b3009f020700b4
:108ae40000c1b30014f0b7004100370010c0b30058
:108af4002ff0b70080c0b30014f0b7003c0037007b
:108b0400a0c0b300c5020700e14f400037003a009f
:108b1400a0c0b300a002070010c1b30014f0b70056
:108b2400330037006600470031c0b30049fe070038
:108b3400004f78001e4078000004e0000500320079
:108b440010c0b3002ff0b70080c0b30014f0b7001a
:108b5400270037006e4090000080fb00c800dd0055
:108b64007e4090000080fb0000804000f080880080
:108b74008e48900031479800f18080003000220038
:108b8400008060000000e0000500320010c0b30067
:108b94002ff0b70080c0b30014f0b7001400370002
:108ba4002f70ef001470ef00110037000000000078
:108bb4000f003700000000000d0037000000000027
:108bc4000b0037000000000009003700000000001f
:108bd4000700370000000000050037000000000017
:108be400030037000000000001003700000000000f
:108bf4000080fa00000006000200fa00004f78002e
:108c04001e4078000004e00006003a0090c0b30063
:108c1400610207007826a8001230ef00100020003f
:108c24001a003700908080000000e000030032004a
:108c3400e10f50000a0032001300370090c0b30067
:108c44005502070090c0b300440207007826a9002b
:108c540010002000908088000000eb000b0037001b
:108c640090c0b3006d020700e14f400004003a00d9
:108c74007826a8001230ef0010002000030037000f
:108c84000000eb00010037000000eb000080fa0058
:108c9400000006000000fa006626ef007a26ef00c6
:108ca4008e26ef007426ef008826ef009c26ef0046
:108cb4007226ef008626ef009a26ef006826ef0062
:108cc4007c26ef009026ef0030002000503388000f
:108cd4007e26ef009226ef007e46a9007e66a9005c
:108ce4009206a9009226a9009246a9007606a90038
:108cf4007626a9007646a8007666a9007686a9009d
:108d040076e6a8007706a9007726a8007746a9008a
:108d14007766a9007786a90077a6a80077c6a90078
:108d240077e6a8008a06a8008a26a8008a46a80032
:108d34008a66a8008a86a8008aa6a8006206a800f7
:108d44006226a8006246a8006266a8006306a9001d
:108d54000080fa00000006000000fa0081e0a9008b
:108d640081058000f0f82f00008060000040a00022
:108d7400800588000080fa00000006000000fa0068
:108d84000040eb00250207000004e00002003a0066
:108d94000040eb00f10107000040eb001f02070058
:108da400e14f400006003a000040eb00eb010700f1
:108db40030010700f082800003000700e082880091
:108dc4000080fa00000006000400fa001007980072
:108dd40060d0bf00e34f500004003e0060d0bf00ed
:108de4000040e80060f0b700010037006070ef0059
:108df40060d0bf000080fb002e419000011a2100ca
:108e04008270780060d0bf000080fb003e4190007b
:108e1400511a2100827078000040eb00004f780066
:108e2400040137001e80fb00110020000008dd0053
:108e34000040780069f0b70030c0b30010479800d4
:108e44004b00370001062100914078001e4090003d
:108e540000c0500065f0b70065d0bf000004e0001a
:108e640003003d0065d0bf006540400065f0b700d9
:108e740001062100914078001e40900000c050007f
:108e84000040e90066f0b70066d0bf000004e000cf
:108e940003003d0066d0bf006540400066f0b700a7
:108ea40065d0bf000000fb00011a2100e1407800fa
:108eb40066d0bf000000fb00021a21006240780067
:108ec40080c0680069d0bf0000c060000004e000fa
:108ed4000300320063d0bf000040e80063f0b70035
:108ee40065d0bf000000fb00011a2100e1407800ba
:108ef40069d0bf0000c060000004e000040032003c
:108f040062d0bf000040e80062f0b7000300370001
:108f140061d0bf000040e80061f0b7001e4090003f
:108f24000004e0000f003a0066d0bf000000fb0020
:108f3400011a2100e140780069d0bf0000c0600040
:108f44000004e0000400320062d0bf000040e800ea
:108f540062f0b7000300370061d0bf000040e800b2
:108f640061f0b7001e4090000040e90010479800ef
:108f74001e4090000004e000b2ff3d0063d0bf003b
:108f8400e24f50000e00360061d0bf00e24f5000a7
:108f9400020036006470ef001200370062d0bf0098
:108fa400e24f50000300360010c0b30064f0b70075
:108fb4000c00370020c0b30064f0b700090037008c
:108fc400110621009140780062d0bf0080cf50008c
:108fd400020036006470ef000200370010c0b300d6
:108fe40064f0b7006170ef006270ef006370ef002f
:108ff40064d0bf00e24f50000e0032001e407800e3
:109004000004e00003003a0064d0bf0067f0b7003a
:109014000800370064d0bf008080fb001e80fb0086
:109024000008dd008040780067d0bf0000c07000f9
:1090340067f0b70030c0b300104798004b0037000a
:1090440001062100914078001e40900000c05000ad
:1090540065f0b70065d0bf000004e00003003d00e8
:1090640065d0bf006540400065f0b70001062100ef
:10907400914078001e40900000c050000040e9007c
:1090840066f0b70066d0bf000004e00003003d00b6
:1090940066d0bf006540400066f0b70065d0bf00f1
:1090a4000000fb00511a2100e140780066d0bf00a7
:1090b4000000fb00521a21006240780080c0680062
:1090c40069d0bf0000c060000004e000030032006b
:1090d40063d0bf000040e80063f0b70065d0bf0074
:1090e4000000fb00511a2100e140780069d0bf0064
:1090f40000c060000004e0000400320062d0bf0041
:109104000040e80062f0b7000300370061d0bf0000
:109114000040e80061f0b7001e4090000004e00049
:109124000f003a0066d0bf000000fb00511a210076
:10913400e140780069d0bf0000c060000004e00096
:109144000400320062d0bf000040e80062f0b700c3
:109154000300370061d0bf000040e80061f0b700b1
:109164001e4090000040e900104798001e40900007
:109174000004e000b2ff3d0063d0bf00e24f5000a6
:109184000e00360061d0bf00e24f500002003600ee
:109194006470ef001200370062d0bf00e24f50004d
:1091a4000300360010c0b30064f0b7000c003700b1
:1091b40020c0b30064f0b700090037001106210095
:1091c4009140780062d0bf0080cf5000020036008a
:1091d4006470ef000200370010c0b30064f0b70001
:1091e4006170ef006270ef006370ef0064d0bf0045
:1091f400e24f50000e0032001e4078000004e000f0
:1092040003003a0064d0bf0068f0b70008003700dc
:1092140064d0bf008080fb001e80fb000008dd00de
:109224008040780068d0bf0000c0700068f0b700cc
:109234001e4fe8001e407800e74f5000f9fe36004c
:1092440067d0bf006af0b70068d0bf006bf0b7000a
:10925400508380000080fa00000006000000fa003d
:10926400e08280004600de00614060000080fa0079
:10927400000006000000fa00603480004200de00b6
:10928400614060000080fb0061006000f2828000a9
:10929400e1ff2f008100610001007000f08288006e
:1092a400603480000000d100614060000080fb0059
:1092b4006100600000004000f2828000d1ff2f00b6
:1092c4008100610001007000f08288006034800039
:1092d40000407800614060000080fb006100600095
:1092e4004200dd00f2828000b1ff2f0081006100a6
:1092f40001007000f0828800603480004300de00ca
:10930400614060000080fb00610060004300dd00fc
:10931400f282800071ff2f00810061000100700063
:10932400f0828800603480004400de006140600008
:109334000080fb00610060004400dd00f2828000d8
:10934400f1fe2f008100610001007000f0828800ae
:10935400603480004500de00614060000080fb0056
:10936400610060004500dd00f2828000f1fd2f0005
:109374008100610001007000f0828800c033800029
:109384004700de00614060000080fb006100600077
:109394004600dd00f2828000f1fb2f0081006100b5
:1093a40001007000f08288000080fa0000000600ce
:1093b4000200fa009021ef0000fa2000900c8800cf
:1093c4009421ef00a10c8000f0fc2f0000806000cd
:1093d4000040a000a00c880041058000f0ff280098
:1093e40080806000000023000100700040058800b8
:1093f4008860a9009860a80095e1a8000040eb00ef
:10940400004f7800070037001e80fb00c200dd001b
:10941400a0132100008040008040eb000148780048
:109424001e4fe8001e407800ed4f5000f6ff360056
:109434000080fa00000006000200fa007083800039
:10944400608388000040eb00004f78003000370054
:109454001e80fb00c200dd00a0132100008040003c
:1094640010407800e24f500015003a0061838000fc
