:020000040000fa
:080000000402040000000000ee
:020000040000fa
:04000800ec03000005
:020000040000fa
:04000c0006040000e6
:020000040000fa
:04001000bc0400002c
:020000040000fa
:0400140020040000c4
:020000040000fa
:040018003a040000a6
:020000040000fa
:04001c00bc04000020
:020000040000fa
:04002000bc0400001c
:020000040000fa
:04002400bc04000018
:020000040000fa
:04002800bc04000014
:020000040000fa
:04002c00bc04000010
:020000040000fa
:04003000bc0400000c
:020000040000fa
:04003400bc04000008
:020000040000fa
:04003800bc04000004
:020000040000fa
:04003c00bc04000000
:020000040000fa
:04004000bc040000fc
:020000040000fa
:04004400bc040000f8
:020000040000fa
:04004800bc040000f4
:020000040000fa
:04004c00bc040000f0
:020000040000fa
:04005000bc040000ec
:020000040000fa
:04005400bc040000e8
:020000040000fa
:04005800bc040000e4
:020000040000fa
:04005c00bc040000e0
:020000040000fa
:04006000bc040000dc
:020000040000fa
:04006400bc040000d8
:020000040000fa
:04006800bc040000d4
:020000040000fa
:04006c00bc040000d0
:020000040000fa
:04007000bc040000cc
:020000040000fa
:04007400bc040000c8
:020000040000fa
:04007800bc040000c4
:020000040000fa
:04007c00bc040000c0
:020000040000fa
:04008000bc040000bc
:020000040000fa
:04008400bc040000b8
:020000040000fa
:04008800bc040000b4
:020000040000fa
:04008c00bc040000b0
:020000040000fa
:04009000bc040000ac
:020000040000fa
:04009400bc040000a8
:020000040000fa
:04009800bc040000a4
:020000040000fa
:04009c00bc040000a0
:020000040000fa
:0400a000bc0400009c
:020000040000fa
:0400a400bc04000098
:020000040000fa
:0400a800bc04000094
:020000040000fa
:0400ac00bc04000090
:020000040000fa
:0400b000bc0400008c
:020000040000fa
:0400b400bc04000088
:020000040000fa
:0400b800bc04000084
:020000040000fa
:0400bc00bc04000080
:020000040000fa
:0400c000bc0400007c
:020000040000fa
:0400c400bc04000078
:020000040000fa
:0400c800bc04000074
:020000040000fa
:0400cc00bc04000070
:020000040000fa
:0400d000bc0400006c
:020000040000fa
:0400d400bc04000068
:020000040000fa
:0400d800bc04000064
:020000040000fa
:0400dc00bc04000060
:020000040000fa
:0400e000bc0400005c
:020000040000fa
:0400e400bc04000058
:020000040000fa
:0400e800bc04000054
:020000040000fa
:0400ec00bc04000050
:020000040000fa
:0400f000bc0400004c
:020000040000fa
:0400f400bc04000048
:020000040000fa
:0400f800bc04000044
:020000040000fa
:0400fc00bc04000040
:020000040000fa
:04010000bc0400003b
:020000040000fa
:04010400bc04000037
:020000040000fa
:04010800bc04000033
:020000040000fa
:04010c00bc0400002f
:020000040000fa
:04011000bc0400002b
:020000040000fa
:04011400bc04000027
:020000040000fa
:04011800bc04000023
:020000040000fa
:04011c00bc0400001f
:020000040000fa
:04012000bc0400001b
:020000040000fa
:04012400bc04000017
:020000040000fa
:04012800bc04000013
:020000040000fa
:04012c00bc0400000f
:020000040000fa
:04013000bc0400000b
:020000040000fa
:04013400bc04000007
:020000040000fa
:04013800bc04000003
:020000040000fa
:04013c00bc040000ff
:020000040000fa
:04014000bc040000fb
:020000040000fa
:04014400bc040000f7
:020000040000fa
:04014800bc040000f3
:020000040000fa
:04014c00bc040000ef
:020000040000fa
:04015000bc040000eb
:020000040000fa
:04015400bc040000e7
:020000040000fa
:04015800bc040000e3
:020000040000fa
:04015c00bc040000df
:020000040000fa
:04016000bc040000db
:020000040000fa
:04016400bc040000d7
:020000040000fa
:04016800bc040000d3
:020000040000fa
:04016c00bc040000cf
:020000040000fa
:04017000bc040000cb
:020000040000fa
:04017400bc040000c7
:020000040000fa
:04017800bc040000c3
:020000040000fa
:04017c00bc040000bf
:020000040000fa
:04018000bc040000bb
:020000040000fa
:04018400bc040000b7
:020000040000fa
:04018800bc040000b3
:020000040000fa
:04018c00bc040000af
:020000040000fa
:04019000bc040000ab
:020000040000fa
:04019400bc040000a7
:020000040000fa
:04019800bc040000a3
:020000040000fa
:04019c00bc0400009f
:020000040000fa
:0401a000bc0400009b
:020000040000fa
:0401a400bc04000097
:020000040000fa
:0401a800bc04000093
:020000040000fa
:0401ac00bc0400008f
:020000040000fa
:0401b000bc0400008b
:020000040000fa
:0401b400bc04000087
:020000040000fa
:0401b800bc04000083
:020000040000fa
:0401bc00bc0400007f
:020000040000fa
:0401c000bc0400007b
:020000040000fa
:0401c400bc04000077
:020000040000fa
:0401c800bc04000073
:020000040000fa
:0401cc00bc0400006f
:020000040000fa
:0401d000bc0400006b
:020000040000fa
:0401d400bc04000067
:020000040000fa
:0401d800bc04000063
:020000040000fa
:0401dc00bc0400005f
:020000040000fa
:0401e000bc0400005b
:020000040000fa
:0401e400bc04000057
:020000040000fa
:0401e800bc04000053
:020000040000fa
:0401ec00bc0400004f
:020000040000fa
:0401f000bc0400004b
:020000040000fa
:0401f400bc04000047
:020000040000fa
:0401f800bc04000043
:020000040000fa
:0401fc00bc0400003f
:020000040000fa
:0804000084140000d414000074
:020000040000fa
:10040800af9820000e7f24000e0188000000000035
:10041800000020000000e00002003200000120007f
:100428002002880014000700530107000000e000c4
:1004380003003a000092210001002000020037006a
:100448000000200001002000810f70000100320030
:1004580014000700000020000000e0000200320045
:100468000000020000000000001702000000000069
:100478000040da000000fe004440a90000202000ef
:100488000000e000030032000020200090018800f6
:100498004440a800000006008a1f78008b1f7800df
:1004a80000000600a1028800800478000000eb002c
:1004b8001f003700e284440054a0b4009905ba0034
:1004c800e284440054a0b4009906ba00e2844400cf
:1004d80054a0b4000006eb00476fde00fd07b20031
:1004e800ae018800636ce10003003a00eaff0700f0
:1004f8000000eb000e003700606ce10008003a00d5
:10050800004deb000a05e800020039003420ec0039
:100518000af0a0008b05e900f9ff3e00040037004f
:100528006168e100010032000086eb000b00070063
:1005380019c7ba001905ba000e04e00003003a0012
:100548000a00e000dbff3a0000000600fe07b200e8
:10055800ae0288008a047800f5ff37000cd0a300ab
:10056800e20f4d001c00390089027800354dba00b1
:100578000a05e800020039003420ec000af0a00067
:100588008b05e9000f003200254dba000a05e80086
:10059800020039003420ec000af0a0008b05e900c5
:1005a800080032000c00e0000600320015cdba0049
:1005b8000a05e800020039003420ec000af0a00027
:1005c8008b05e9008984e80054a0b4000b00e00022
:1005d800e2ff3a00000006009902ba00055d7800c3
:1005e8008b05e900f7ff3200c82ade00055d7800b8
:1005f8008b05e900f3ff32000c00e000f1ff320048
:1006080019ddba00eeff370000000000000000000e
:1006180000000000000000000000000000000000d2
:100628000000000000000000801f78003200f80081
:100638003400f80010002000a001880000202000ed
:10064800900188000000fa008860a90040408000fe
:100658000000e800404088000080fa003400f900fb
:100668003200f9004f007800004006003600f8001c
:10067800809fbe00829fbe00849fbe00869fbe00f2
:100688000000fa00c10480000080200000806000a3
:100698000000e000190032004104800000802000c2
:1006a800008060000000e000140032008960a900aa
:1006b800d01c8000620060000000e00004003200ee
:1006c8009a23a900e04480000040a000e04488008c
:1006d800d01c8000640060000000e00004003200cc
:1006e800f01c8000e04480000040a000e044880046
:1006f800f01c8000004078000a0607000080fa001d
:100708004f03be004f02be004f01be004f00be00a7
:100718003600f90000400600809fbe00821f780066
:100728000000fa00c1048000000021000080600081
:100738000000e00022003200410480000000210097
:10074800008060000000e0001d0032008980a900e0
:10075800109220009040780000922000104078000d
:1007680080cf50000b003a007a06a9009980a900b2
:1007780021498000f0fd2f0000806000204988009a
:1007880021498000d0ff2f000080600020498800a8
:100798000b00370010922000104078000081fb0009
:1007a800e189200081004100914078008180fb00b0
:1007b800e11c88008040e800109220000148780081
:1007c8000080fa004f0178004f00be00004006008c
:1007d8000000fa008020a9000000000000000000ce
:1007e8000000000000000000000000000000000001
:1007f80000000000000000000000fe000080fa0079
:10080800004006000000fa008060a9000000000017
:1008180000000000000000000000000000000000d0
:100828000000000000000000000000000000fe00c2
:100838000080fa00004006000000fa008040a9008d
:1008480000000000000000000000000000000000a0
:100858000000000000000000000000000000000090
:100868000000fe000080fa00004006000000fa00c8
:100878008080a900000000000000000000000000c7
:100888000000000000000000000000000000000060
:10089800000000000000fe000080fa000040060092
:1008a8000000fa008020a9000000000000000000fd
:1008b8000000000000000000000000000000000030
:1008c80000000000000000000000fe000080fa00a8
:1008d800004006000000fa008060a9000000000047
:1008e8000000000000000000000000000000000000
:1008f8000000000000000000000000000000fe00f2
:100908000080fa00004006000000fa008040a900bc
:1009180000000000000000000000000000000000cf
:1009280000000000000000000000000000000000bf
:100938000000fe000080fa00004006000000fa00f7
:100948008080a900000000000000000000000000f6
:10095800000000000000000000000000000000008f
:10096800000000000000fe000080fa0000400600c1
:100978000040da000000fe00000005008001780059
:1009880002003700815978000201e9000200e00006
:08099800fcff3a00000006001c
:020000040000fa
:1009a00000000000c1c0000081c100004001000043
:1009b00001c30000c00300008002000041c200002b
:1009c00001c60000c00600008007000041c700000b
:1009d00000050000c1c5000081c400004004000003
:1009e00001cc0000c00c0000800d000041cd0000d3
:1009f000000f0000c1cf000081ce0000400e0000bb
:100a0000000a0000c1ca000081cb0000400b0000ba
:100a100001c90000c00900008008000041c80000b2
:100a200001d80000c01800008019000041d9000062
:100a3000001b0000c1db000081da0000401a00004a
:100a4000001e0000c1de000081df0000401f00002a
:100a500001dd0000c01d0000801c000041dc000022
:100a600000140000c1d4000081d500004015000032
:100a700001d70000c01700008016000041d600001a
:100a800001d20000c01200008013000041d300001a
:100a900000110000c1d1000081d000004010000012
:100aa00001f00000c03000008031000041f1000082
:100ab00000330000c1f3000081f20000403200006a
:100ac00000360000c1f6000081f70000403700004a
:100ad00001f50000c03500008034000041f4000042
:100ae000003c0000c1fc000081fd0000403d000012
:100af00001ff0000c03f0000803e000041fe0000fa
:100b000001fa0000c03a0000803b000041fb0000f9
:100b100000390000c1f9000081f8000040380000f1
:100b200000280000c1e8000081e900004029000021
:100b300001eb0000c02b0000802a000041ea000009
:100b400001ee0000c02e0000802f000041ef0000e9
:100b5000002d0000c1ed000081ec0000402c0000e1
:100b600001e40000c02400008025000041e50000f1
:100b700000270000c1e7000081e6000040260000d9
:100b800000220000c1e2000081e3000040230000d9
:100b900001e10000c02100008020000041e00000d1
:100ba00001a00000c06000008061000041a10000c1
:100bb00000630000c1a3000081a2000040620000a9
:100bc00000660000c1a6000081a700004067000089
:100bd00001a50000c06500008064000041a4000081
:100be000006c0000c1ac000081ad0000406d000051
:100bf00001af0000c06f0000806e000041ae000039
:100c000001aa0000c06a0000806b000041ab000038
:100c100000690000c1a9000081a800004068000030
:100c200000780000c1b8000081b9000040790000e0
:100c300001bb0000c07b0000807a000041ba0000c8
:100c400001be0000c07e0000807f000041bf0000a8
:100c5000007d0000c1bd000081bc0000407c0000a0
:100c600001b40000c07400008075000041b50000b0
:100c700000770000c1b7000081b600004076000098
:100c800000720000c1b2000081b300004073000098
:100c900001b10000c07100008070000041b0000090
:100ca00000500000c1900000819100004051000000
:100cb00001930000c05300008052000041920000e8
:100cc00001960000c05600008057000041970000c8
:100cd00000550000c19500008194000040540000c0
:100ce000019c0000c05c0000805d0000419d000090
:100cf000005f0000c19f0000819e0000405e000078
:100d0000005a0000c19a0000819b0000405b000077
:100d100001990000c059000080580000419800006f
:100d200001880000c048000080490000418900009f
:100d3000004b0000c18b0000818a0000404a000087
:100d4000004e0000c18e0000818f0000404f000067
:100d5000018d0000c04d0000804c0000418c00005f
:100d600000440000c184000081850000404500006f
:100d700001870000c0470000804600004186000057
:100d800001820000c0420000804300004183000057
:100d900000410000c181000081800000404000004f
:020000040000fa
:100da0000800fa0020079800614798000040eb0017
:100db00010479800ae0090001e4090000080fb009d
:100dc0000080400021c0b300014878001e40900020
:100dd0000040e80010479800ae0090001e409000d0
:100de0000080fb00008040006e41900041c8b300cd
:100df00081404100014878001e4090000040e8001a
:100e0000104798001e4090000040e80010479800ee
:100e1000c092200010407800004178002e00900021
:100e20008e00e80044060700c092200010407800c1
:100e30000080fb00f20f500027003200f20f50003c
:100e400003003c00f10f500006003200670037003d
:100e5000f30f50003e003200f40f500059003200f2
:100e600062003700904980004800de00a2498000ff
:100e7000f10f200081006100c808dd000100700052
:100e8000004178002e0090008e00e8002a0607003e
:100e9000904980004800de00a2498000f10f200048
:100ea00081006100c808dd00010070004800de001c
:100eb000004178002e0090008e00e8001e0607001a
:100ec00070408000e10f500047003a0020002000f1
:100ed0007040880045003700904980004800de00df
:100ee000a2498000f10f200081006100c808dd00e8
:100ef00001007000004178002e0090008e00e80094
:100f00000d060700904980004800de00a2498000dd
:100f1000f10f200081006100c808dd0001007000b1
:100f20004800de00004178002e0090008e00e800ae
:100f3000010607000097200010407800004178006b
:100f40002e0090008e00e800fb0507002700370008
:100f50000040eb00004f7800160037001e80fb00b9
:100f60006600400080004000c092200000804000e9
:100f700010007800004178002e0090008e00e800fc
:100f8000ed0507001e80fb00660040008000400069
:100f9000c092200000804000100078004800de0071
:100fa000004178002e0090008e00e800e205070066
:100fb0001e4fe8001e407800fb4f5000e7ff360050
:100fc0000a0037002e0090008e00e8000041eb0080
:100fd000d90507002e0090008e00e80072c0b30013
:100fe000d505070001003700000000001e409000fa
:100ff00052c2b300824040002e0090002140980071
:101000001e409000e54040002e00900021409900d5
:101010001e4090008080fb002e0090000001eb003d
:101020003906070010079800ae0090001e4090009f
:101030000080fb0000804000be4090008180fb00eb
:10104000c408de00814078000142b0000148780009
:101050001e4090000040e80010479800ae0090004d
:101060001e4090000080fb0000804000be409000c9
:10107000efc060000142b000014878001e409000bf
:101080000040e80010479800ae0090001e4090001d
:101090000080fb0000804000ae4090008180fb009b
:1010a000c408de00814078000142b00001487800a9
:1010b0001e4090000040e80010479800ae009000ed
:1010c0001e4090000080fb0000804000ae40900079
:1010d000efc060000142b000014878001e4090005f
:1010e0000040e80010479800ae0090001e409000bd
:1010f0000080fb000080400031c0b3000148780050
:101100001e4090000040e800104798000080fa0060
:10111000000006000800fa002007980061479800c8
:1011200030c0b300004f78001e80fb00ae0090007e
:10113000e1407800c0922000014878001e4fe8008e
:10114000c0922000104078000080fb00ed0f50009e
:10115000f8003200ed0f500003003c00ea0f500091
:101160009700320016013700ef0f500005003200e3
:10117000ef0f500011013500f00f50003800320021
:101180000f0137001e80fb00ae0090006140780028
:10119000204798001e4fe8001e80fb00ae00900024
:1011a00061407800304798001e4fe8001e00900014
:1011b000f10f200081006000c808dd006349800055
:1011c000f20f200002816100828070006149880076
:1011d000c800de00f00f200000806000724980002f
:1011e00001f02f008100610001007000704988004b
:1011f0001e80fb00ae009000614078002047980000
:101200001e4fe8001e80fb00ae0090006140780099
:10121000304798001e4fe8001e009000f10f20009c
:1012200081006000c808dd0083498000f20f2000c3
:10123000028161008280700081498800c800de0060
:10124000f00f2000008060009249800001f02f0024
:10125000810061000100700090498800d8003700cb
:101260001e80fb00ae00900061407800204798008f
:101270001e4fe8001e80fb00ae0090006140780029
:10128000304798001e4fe8001e009000f10f20002c
:1012900081006000c808dd0093498000f20f200043
:1012a000028161008280700091498800c800de00e0
:1012b000f00f200000806000a249800001f02f00a4
:1012c0008100610001007000a04988001e80fb00c1
:1012d000ae00900061407800204798001e4fe80063
:1012e0001e80fb00ae0090006140780030479800ff
:1012f0001e4fe8001e009000f10f200081006000ea
:10130000c808dd0073498000f20f200002816100ef
:101310008280700071498800c800de00f00f200054
:10132000008060008249800001f02f008100610090
:1013300001007000804988001e80fb00ae00900014
:10134000e140780070932000014878001e4fe800cb
:101350000040eb0010479800150037001e80fb008e
:10136000ae00900061407800204798001e4fe800d2
:101370001e80fb00ae00900061407800304798006e
:101380001e4fe8001e4090000080fb009e00900071
:101390006600400000014000c092200000004100b3
:1013a000010878001e4090000040e80010479800b7
:1013b0001e409000fb4f5000e8ff360080003700d1
:1013c0001e80fb00ae00900061407800204798002e
:1013d0001e4fe8001e80fb00ae00900061407800c8
:1013e000304798001e4fe8001e009000f10f2000cb
:1013f00081006000c808dd0093498000f20f2000e2
:10140000028161008280700091498800c800de007e
:10141000f00f200000806000a249800001f02f0042
:101420008100610001007000a04988001e80fb005f
:10143000ae00900061407800204798001e4fe80001
:101440001e80fb00ae00900061407800304798009d
:101450001e4fe8001e009000f10f20008100600088
:10146000c808dd0073498000f20f2000028161008e
:101470008280700071498800c800de00f00f2000f3
:10148000008060008249800001f02f00810061002f
:1014900001007000804988001e80fb00ae009000b3
:1014a000e140780070932000014878001e4fe8006a
:1014b0000040eb0010479800150037001e80fb002d
:1014c000ae00900061407800204798001e4fe80071
:1014d0001e80fb00ae00900061407800304798000d
:1014e0001e4fe8001e4090000080fb009e00900010
:1014f0006600400000014000c09220000000410052
:10150000010878001e4090000040e8001047980055
:1015100070932000104078000080fb000000d10094
:10152000804078001e40900080cf5000e3ff3e00d6
:10153000230037001e80fb00ae009000e1407800e1
:1015400070932000014878001e4fe8001e80fb00c9
:10155000ae00900061407800204798001e4fe800e0
:101560001e80fb00ae00900061407800304798007c
:101570001e4fe8001e009000f10f20008100600067
:10158000c808dd0073498000f20f2000028161006d
:101590008280700071498800c800de00f00f2000d2
:1015a000008060008249800001f02f00810061000e
:1015b0000100700080498800010037000000000031
:1015c000b092200011c0b300014878000080fa00fa
:1015d000000006000200fa00609820001040780029
:1015e0000080fb00e30f50000d013200e30f5000bc
:1015f00007003c00e10f50003c003200e10f5000ba
:10160000c8003c000000e00008003200a2013700e2
:10161000e50f50007f013200e50f50003f0135001b
:10162000e60f5000830132009b01370080c0b300f9
:10163000004f7800030037001e407800880607003e
:101640001e4fe800b0c2b3009e40780080cf50002b
:10165000f9ff36006098200011c0b30001487800ff
:1016600010c1b3008e010700604980004800de0011
:1016700072498000f10f200081006100c808dd0080
:1016800001007000f10f200081006000c808dd003b
:1016900073498000f20f2000028161008280700097
:1016a00071498800c800de00f00f20000080600053
:1016b0008249800001f02f0081006100010070006c
:1016c00080498800a1498000f00f20000080600060
:1016d0000080a000a0498800b149800000f02f00e0
:1016e00000806000b04988006b013700c092200084
:1016f00010407800f04f500025003a00b0922000d2
:10170000104078000004e000210032009049800081
:101710004800de00a2498000f10f20008100610036
:10172000c808dd000100700080007800a04980003a
:101730004800de00b3498000f20f20000281610002
:101740004811dd0002007000808f500004003a0054
:101750006098200021c0b3000148780008003700dd
:101760000097200021c0b3000148780020c1b300d9
:101770004b0107004098200041c0b30001487800a9
:10178000b09220008040eb000148780064003700f0
:10179000c092200010407800ea4f500025003a0027
:1017a000b0922000104078000004e00021003200d8
:1017b000904980004800de00a2498000f10f20001f
:1017c00081006100c808dd00010070008000780021
:1017d000a04980004800de00b3498000f20f2000dd
:1017e000028161004811dd0002007000808f50000e
:1017f00004003a006098200031c0b300014878002e
:10180000080037000097200021c0b300014878008d
:1018100020c1b300220107004098200041c0b3005e
:1018200001487800b09220008040eb000148780029
:101830003b003700c092200010407800ed4f500070
:101840000b003a00b0922000104078000004e00045
:10185000070032006098200041c0b30001487800c2
:10186000b09220008040eb00014878002c00370047
:10187000c092200010407800ee4f50000b003a005c
:10188000b0922000104078000004e0000700320011
:101890006098200051c0b30001487800b092200049
:1018a0008040eb00014878001d003700c092200006
:1018b00010407800ef4f50000b003a00b09220002b
:1018c000104078000004e00007003200609820001b
:1018d0008040eb0001487800b09220008040eb008f
:1018e000014878000e003700c092200010407800b8
:1018f000e94f5000df003a00b0922000104078001d
:101900000004e000dd003200b09220008040eb00d7
:101910000148780040c1b300e1000700de00370055
:10192000dd00370070932000104078000080fb003d
:101930000000d100004078000081fb007049800069
:101940004800de0083498000f10f200081806100a3
:10195000c808dd00010070008000eb0083932000c8
:101960008405070010c1b300cd0007009049800036
:101970004800de00a2498000f10f200081006100d4
:10198000c808dd00010070008000780080498000f8
:101990004800de0093498000f20f200002816100c0
:1019a0004811dd0002007000808f5000b50031004a
:1019b000a04980004800de00b2498000f10f2000fd
:1019c00081006100c808dd00010070000000e8002f
:1019d000f10f200081006000c808dd00a3498000ed
:1019e000f20f20000281610082807000a14988000e
:1019f000c800de00f00f200000806000b2498000c7
:101a000001f02f008100610001007000b0498800e2
:101a10006098200011c0b300014878009e00370094
:101a200070932000104078000080fb000000d1007f
:101a3000004078000081fb00704980004800de0013
:101a400083498000f10f200081806100c808dd001b
:101a5000010070008000eb00839320004505070023
:101a600010c1b3008e000700904980004800de00de
:101a7000a2498000f10f200081006100c808dd004c
:101a80000100700080007800804980004800de007e
:101a900093498000f20f2000028161004811dd00af
:101aa00002007000808f500078003100a049800053
:101ab0004800de00b2498000f10f20008100610083
:101ac000c808dd00010070000000e800f10f2000f0
:101ad00081006000c808dd00a3498000f20f2000eb
:101ae0000281610082807000a1498800c800de0088
:101af000f00f200000806000b249800001f02f004c
:101b00008100610001007000b049880060982000e9
:101b100011c0b300014878005f0037000040eb00bf
:101b2000004f78002e003700704980004800de002a
:101b300082498000f10f200081006100c808dd00ab
:101b400001007000800078001e80fb0000804000d3
:101b50008000eb00ef04070000408800114088007f
:101b60001e80fb00fc0040007093200010407800b5
:101b70000080fb000000d100004078000080fb00e6
:101b800000805000014080006600400000014000dd
:101b9000c092200000004100010878000368ef00b7
:101ba0001e80fb00fd004000709320001040780074
:101bb0000080fb000000d100004078000080fb00a6
:101bc000008050001140800066004000000140008d
:101bd000c092200000004100010878001ecfe800fc
:101be00070932000104078000080fb000000d100be
:101bf000004078009e4f5000cbff3e0030c1b30044
:101c0000270007006098200011c0b3000148780049
:101c10002100370010c1b300210007001000200090
:101c2000704088006098200061c0b30001487800cf
:101c30001900370070408000e20f500015003a0094
:101c40004000220001002000e203070014e8b70072
:101c500014c8bf00e14f500004003a00000000002b
:101c6000000000005d0407000b0037000e28ef00a5
:101c700009003700000000000700370000000000e6
:101c800005003700000000000300370000000000de
:101c900001003700000000000080fa00000006008c
:101ca0000200fa00004f7800c09220001e48780021
:101cb00040922000904078000104a0000148780084
:101cc0000080fa00000006000000fa0040982000a2
:101cd000104078000080fb00e30f50004900320004
:101ce000e40f50004a003200e10f50004d003a006e
:101cf000c092200010407800ef4f50000e003a00d4
:101d0000b0922000104078000004e0000a00320089
:101d10004098200031c0b30001487800609820004e
:101d20008040eb0001487800b09220008040eb003a
:101d30000148780032003700c0922000104078003f
:101d4000ed4f50000e003a00b09220001040780095
:101d50000004e0000a0032004098200031c0b300c7
:101d6000014878006098200041c0b3000148780025
:101d7000b09220008040eb0001487800200037003e
:101d8000c092200010407800ee4f50000e003a0044
:101d9000b0922000104078000004e0000a003200f9
:101da0004098200031c0b3000148780060982000be
:101db00051c0b30001487800b09220008040eb0091
:101dc000014878000e003700c092200010407800d3
:101dd000e94f500010003a00b09220001040780007
:101de0000004e0000e003200b09220008040eb00c2
:101df0000148780040c1b300a9ff0700090037007f
:101e000008003700f3fd0700000000000500370060
:101e10000040fe00feff3700000000000100370018
:101e2000000000000080fa00000006000600fa0032
:101e300090812000100798000040eb0010479800a8
:101e40009e409000014f78002b0037001e80fb0061
:101e50009e0090000080400090407800414798002c
:101e60001e4fe8004e409000fb4f500019003a0012
:101e70001e80fb009e009000008040009040780093
:101e800000cdb30000c04000404798001e4fe8005e
:101e90004e4090000004e00007003a001e40900011
:101ea0000080fb009e00900000804000b1c1b300a4
:101eb000014878000d0037001e4090000080fb00b4
:101ec0009e00900000804000ce40900001487800c5
:101ed000060037001e4090000080fb009e0090002e
:101ee00000804000ce409000014878001e409000e5
:101ef0000040e800104798008089200010407800da
:101f00009e4f5000d1ff3e00808920009040780015
:101f10001e4090001e40500080c04000808920007c
:101f2000014878000080fa00000006000200fa0074
:101f3000881f7800004f7800c0892000104078008a
:101f4000704060000004e0004c013a00a0892000cd
:101f5000104078000080fb00e20f50005700320074
:101f6000e20f500005003c000000e0000a003200d3
:101f7000e10f50002000320035013700e40f50001f
:101f8000b0003200e40f500076003500e50f50003d
:101f9000ca0032002e0137001e407800e24f500088
:101fa0002f013a0090892000104078000081fb004a
:101fb00061812000810041009e4878008040e80057
:101fc0009089200001487800908920009040780096
:101fd00010c8b30080cf500003003600e0448000fa
:101fe0000040a000e0448800a089200011c0b30098
:101ff00001487800210137009089200010407800c6
:102000000081fb0061812000810041009e48780032
:102010008040e800908920000148780090892000e5
:102020009040780010c8b30080cf50000300360005
:10203000e04480000040a000e044880000ceb300ef
:102040001e40400012e8b70012c8bf000004e000c4
:10205000050032002181200091407800f0c3b300d8
:1020600080cf50001100360021812000914078007f
:1020700040c6b30080cf500005003600218120000b
:102080009140780030cab30080cf5000070036007e
:1020900012c8bf000004e00004003200e0448000e9
:1020a0000040a000e0448800f4003700a089200030
:1020b00021c0b30001487800f0003700908920006b
:1020c000104078000081fb00618120008100410008
:1020d0009e4878008040e800908920000148780000
:1020e000908920009040780010c8b30080cf500045
:1020f00003003600e04480000040a000e044880077
:1021000080c2b3009e40780080cf500004003600ab
:1021100020cab3009e40780080cf500004003600f3
:10212000e04480000040a000e0448800d300370075
:1021300000ceb3009e404000808920000148780016
:102140008089200010407800e54050008089200000
:1021500001487800a089200031c0b3000148780010
:10216000c6003700b0892000104078000004e0006d
:102170001300320000c3b3009e40780080cf5000af
:102180000b00320020c3b3009e40780080cf500087
:102190000700320030c3b3009e40780080cf50006b
:1021a00003003200e04480000040a000e0448800ca
:1021b000b08920008040eb0001487800060037001d
:1021c0001e407800fb4f500003003a00b089200009
:1021d00011c0b300014878009089200010407800b9
:1021e0000081fb0061812000810041009e48780051
:1021f0008040e80090892000014878009089200004
:102200009040780010c8b30080cf50000300360023
:10221000e04480000040a000e04488009089200055
:1022200090407800808920001040780080cf5000d6
:102230008d003a00a089200041c0b3000148780019
:102240008e00370090892000104078000081fb004c
:1022500061812000810041009e4878008040e800b4
:1022600090892000014878009089200090407800f3
:1022700010c8b30080cf500003003600e044800057
:102280000040a000e04488009089200010407800c1
:102290008080fb0080892000104078000080fb00d7
:1022a00064004000808f500071003a00a089200037
:1022b00051c0b30001487800700037001e4078001c
:1022c000e34f500033003a0090892000104078001e
:1022d0000080fb00e400500060812000008040008e
:1022e000104078000080fb000002b100cc00dd004f
:1022f00090892000104078000080fb0063015000ae
:102300006081200000004100104078000080fb0048
:102310000002b1004800dd008100700090892000bb
:10232000104078000080fb000081e90060812000ff
:1023300000004100104078000080fb000002b10066
:102340004400dd008100700090892000104078007a
:102350000080fb000001e9006081200000004100d6
:10236000104078000080fb000002b1000104700002
:1023700080892000104078000080fb000001eb0005
:1023800080007800608120005f010700800f54000a
:1023900004003200e04480000040a000e0448800d7
:1023a0003600370090892000104078000081fb0043
:1023b00061812000810041009e4878008040e80053
:1023c0009089200001487800908920009040780092
:1023d00010c8b30080cf500003003600e0448000f6
:1023e0000040a000e0448800808920001040780070
:1023f000e340500080892000014878008bfe0700f0
:1024000021812000914078000cc8bf0080cf50008f
:102410000300320012c8bf000004e00003003a00cd
:10242000e04480000030a000e0448800c089200023
:1024300010407800684060000004e0000e003a00a0
:10244000e04480000040a000e04488000b0037001a
:10245000e04480000040a000e0448800070037000e
:1024600000000000050037000000000003003700f6
:10247000000000000100370000000000c0892000bb
:1024800010407800704060000004e000020032005c
:1024900060812000690007004f0478000080fa0086
:1024a000000006000000fa00409220001040780072
:1024b000614060000004e000130032004092200000
:1024c000104078000042b2000004e0000e003a0024
:1024d00021498000e0ff2f00008060002049880033
:1024e000e089200055000700324980000cc8bf0079
:1024f00080407800e089200002000100204980002f
:102500000010a000204988000080fa0000000600aa
:102510000000fa00c0892000104078006840600088
:102520000004e000160032006097200010407800a0
:102530000004e00004003a006097200011c0b300de
:10254000014878000e0037006097200010407800a6
:10255000e14f40000a003a00424980000cc8bf0029
:10256000804078006081200002000100608120002e
:1025700032000700609720008040eb00014878009f
:102580000080fa00000006000000fa0040922000df
:1025900010407800624060000004e0002500320036
:1025a00040922000104078000042b2000004e00099
:1025b0001d003a00009220009040780020c8b3002f
:1025c00080cf50001a003e007a06a8008980a9003a
:1025d0009980a800204980000050a0002049880070
:1025e00000000000d11c800000102000008060006e
:1025f0000000e000fbff3200109220001040780045
:102600000081fb00e18920008100410091407800b9
:102610008180fb00e11c88008040e80010922000cf
:102620000148780003003700000000000100370077
:10263000000000000080fa00000006000200fa001e
:10264000000f78001e007800220820008000eb00b8
:10265000ccf807001e0078008040eb006140990034
:102660001e0078008040eb00414099001e00780079
:102670008040eb00314099001e0078008040eb0064
:10268000214099001e0078008040eb0051409900e5
:102690000080fa00000006000000fa00a13d800062
:1026a00000fc2f0000806000f000b300a03d880017
:1026b000113f800000f82f00008060003000b30060
:1026c000103f880020022000001d880080002000ac
:1026d000c01c88009a23ef0099e3a8009be3a9009f
:1026e0009ba3a8009b43a8008960a9008980a9003a
:1026f0009960a8007a06a90060812000cfff07003a
:10270000e0892000cdff0700006d200030498800df
:10271000a0882000404988000080fa0000000600e0
:102720000000fa007aff07005eff070096ff07002f
:102730000080fa00000006000600fa00000f780092
:1027400011079800424798004e409000e24f500019
:10275000030032004e409000e34f500018003a0052
:102760001e009000104078000080fb001e0040001a
:10277000b1c1b300014878001e00900010407800fd
:102780008040e8001e009000014878001e00900084
:10279000104078000080fb001e004000ce409000fa
:1027a0000143b000014878001e00900010407800fe
:1027b0008040e8001e0090000148780025003700a6
:1027c0004e409000fb4f500017003a001e00900052
:1027d000104078000080fb001e004000b1c1b30033
:1027e000014878001e009000104078008040e8000a
:1027f0001e009000014878001e00900010407800f4
:102800000080fb001e00400001c3b30001487800b7
:102810001e009000104078008040e8001e009000ec
:10282000014878000b0037001e009000104078002f
:102830000080fb001e004000ce4090000148780060
:102840001e009000104078008040e8001e009000bc
:10285000014878000080fa00000006000000fa003d
:102860004098200010407800e14f500024003a00ca
:102870002097200010407800e24f50000e003a00f0
:10288000c092200010407800eb4f50000a003a0040
:10289000b0922000104078000004e00006003200f2
:1028a00030c0b30014e8b700b09220008040eb00c5
:1028b000014878000b003700209720001040780076
:1028c000e14f400007003a0014c8bf000004e000d8
:1028d00004003a004000220001002000bd00070073
:1028e00014e8b7002097200010407800e14f400026
:1028f00003003a00209720008040eb000148780058
:102900000080fa00000006000c00fa003007980072
:1029100041079800520798006000b800008fbe0081
:10292000190037003e009000104078008080fb00c6
:102930005e00900080806800f00f20000080600042
:10294000200798005e009000c800de002e00900076
:1029500000014000004d28000000410010007800f8
:1029600000806800500798003e0090000000e800da
:10297000300798000060fe001200200003002000d5
:102980001e0f41005e9749004e0090008000eb0052
:10299000be0f5000ae8f5800e2ff3e005e00900078
:1029a0000080fa00000006001800fa007007980086
:1029b000010f9800120f9800230f9800340f980011
:1029c0006000b800008fbe00390037000060fe00d4
:1029d000a1028000310798006e00470010009000af
:1029e000a00288007e0090008e0890000000780011
:1029f0001080ba00600798007e0090008e0890005a
:102a0000000078001000ba00500798003e019000c6
:102a1000a20288000040eb004047980017003700f2
:102a20004e4090000080fb00ea004700008040001c
:102a3000104078008080fb003e0890008080680095
:102a4000f00f200000806000400798003e089000d2
:102a5000c800de004e00900000014000004d28003c
:102a6000000041001000780000806800300f9800de
:102a70004e4090000040e800404798004e409000d3
:102a8000e34f5000e6ff36007e0090008e08900075
:102a900062004000e080480070079800010f980035
:102aa00012002000030020001e0f41005e97490025
:102ab0001e089000ae0890001e01be00800f51005d
:102ac000818f5900c1ff39003e0890000080fa0054
:102ad000000006000000fa008300a80012000700b2
:102ae000c2010700ecfe0700020007000080fa00a8
:102af000000006000000fa004098200011c0b3005a
:102b0000014878001468ef00a097200011c0b300be
:102b1000014878002097200011c0b30001487800d8
:102b20000080fa00000006000000fa007e46a900be
:102b30007e66a9009206a9009226a9009246a900e5
:102b40007606a9007626a9007646a8007666a90032
:102b50007686a90076e6a8007706a9007726a80061
:102b60007746a9007766a9007786a90077a6a8000e
:102b700077c6a90077e6a8008a06a8008a26a800da
:102b80008a46a8008a66a8008a86a8008aa6a800a5
:102b90006206a8006226a8006246a8006266a80035
:102ba0006306a900a13d800000fc2f0000806000aa
:102bb000f000b300a03d8800113f800000f82f0016
:102bc000008060003000b300103f88000080fa00f1
:102bd000000006000400fa00008fbe001e00be00c8
:102be000cc0007000001be00f0ff2f00f10f200015
:102bf000800f5100818f590002003a0020c0b300bd
:102c00000100370010c0b3000080fa000000060089
:102c10000000fa00603480000040780061406000ed
:102c2000614060001281200012417800e1cfb300c2
:102c30008140610000c0700011e8b700603480007e
:102c40000000d10061406000614060000040400031
:102c50001281200012417800d1cfb3008140610081
:102c600000c0700011e8b700603480004200de0050
:102c700061406000e1406000200020000008dd00ad
:102c80001281200012417800b1cfb3008140610071
:102c900000c0700011e8b700603480004300de001f
:102ca00061406000e1406000300020000008dd006d
:102cb000128120001241780071cfb3008140610081
:102cc00000c0700011e8b700603480004400de00ee
:102cd00061406000e1406000400020000008dd002d
:102ce0001281200012417800f1ceb30081406100d2
:102cf00000c0700011e8b700603480004500de00bd
:102d000061406000e1406000500020000008dd00ec
:102d10001281200012417800f1cdb30081406100a2
:102d200000c0700011e8b70011c8a90011e8a9009f
:102d30000080fa00000006000000fa00b4ff07005f
:102d400011c8bf0010e8b7000080fa0000000600bc
:102d50000000fa0002c1a90002e1a900320020002f
:102d600080072000a109200013102000804978006e
:102d70008149780082497800120020006004200018
:102d800071052000031020008049780081497800f7
:102d90008249780000000000010880000000270040
:102da0008080600000002300808f5000faff3a000e
:102db0000000000001088000000220000080600088
:102dc0000000e000fbff32000080fa000000060077
:102dd0000000fa000080fa00000006000000fa007f
:102de0000cc8bf000080fb00f03f88008300a900f2
:102df00004200400000000000080fa00000006002b
:102e00000000fa00d2ff0700f1ff070031ff0700c2
:102e1000c9ff070010c8bf000ce8b7000060fe0043
:102e2000a097200010407800e14f400003003a00d6
:102e30008afe07003afe0700a3fb0700ae0007006a
:102e400014c8bf00e14f5000f4ff3a00000000003a
:102e500000000000e1ff07000000eb000080fa0026
:102e6000000006001000fa00400798005107980083
:102e700062079800730798004e009000de009000f3
:102e80006011b800028fbe00008fbe006e0090007f
:102e9000fe0090006011b8002207980033079800e8
:102ea000200798003107980030002400003b88007c
:102eb0001e009000a0028800ae0090001e00780066
:102ec0000108bb00be0090001e0078000188bb0016
:102ed0001000fc0050052000303b8800a00a2000b4
:102ee000303b880061e7a8000000000000000000ff
:102ef00000000000013b800000002800008060000e
:102f00000000e000fbff3a0061c7a9000080fa0062
:102f1000000006000a00fa003007980041079800f8
:102f2000a1028000010f78006600470010009000a9
:102f3000a00288003e009000ce00900000007800c3
:102f40001080ba00200798003e009000ce0090004c
:102f5000000078001000ba00100798009e0078006a
:102f6000a10288001e009000ae0090000080fa00d0
:102f7000000006000e00fa00300798004107980094
:102f800052079800630798000000eb00000f7800dc
:102f900030002400003b88002a0037001e00780023
:102fa0006101b8003e009000ce0090000200400099
:102fb000838048006011b80012079800230798002a
:102fc00010079800210798002e009000a0028800aa
:102fd0001e00780000004000ee00900000804000dd
:102fe000900078001e0090000108bb001e00e80061
:102ff00000004000ee00900000804000900078004b
:103000001e0090000188bb001e8fe8001000fc002d
:1030100050052000303b8800a00a2000303b88008b
:1030200061e7a800000000000000000000000000b0
:10303000013b800000002800008060000000e000ec
:10304000fbff3a005e0090009e007800808f5000e9
:10305000d2ff390061c7a9000080fa000000060015
:103060000600fa00404798006000b800008fbe00dc
:103070004e4090000081fb008001eb004a18dd000b
:10308000c610de00810070004a10dd006011b8003b
:10309000028fbe00008fbe0020042400003b880089
:1030a0002e4090000080fb00a00288001e007800e7
:1030b0008080eb000108bb001000fc0050052000e0
:1030c000303b8800a00a2000303b880061e7a80060
:1030d000000000000000000000000000013b800034
:1030e00000002800008060000000e000fbff3a00c4
:1030f0000080fa00000006000200fa009860a900b3
:1031000040408000504088009860a8000040eb00dc
:10311000004f7800300037001e80fb00c200dd0049
:10312000209720000080400010407800e24f5000bf
:1031300015003a00514080001e80fb004200dd0077
:103140000081e80020972000000041001000780076
:10315000808050001e80fb0000014000e0972000ae
:103160000000410010007800808f500006003900f8
:103170001e80fb00c200dd00209720000080400080
:1031800080c0eb00014878001e80fb00c200dd001b
:10319000209720000080400010407800e14f500050
:1031a0000c003a001e80fb00514080004201dd000f
:1031b0004097200000004100010878001e80fb00bd
:1031c000c200dd00209720000080400021c0b30035
:1031d000014878001e4fe8001e407800e24f500082
:1031e000cdff36000080fa00000006000000fa0063
:1031f0009021ef0000712200900c88009421ef00d4
:10320000a10c8000f0fc2f00008060000040a000b6
:10321000a00c880041058000f0ff2800808060003d
:103220000000230001007000400588008860a900ac
:103230009860a80095e1a8000080fa000000060050
:020000040000fa
:103240002c0900004600000080000000000800007b
:1032500004000000800000000408000004000000da
:1032600082000000fe1f00000000000010080000a7
:1032700002000000800000007e090000060000003f
:103280008200000094110200003200007209000068
:103290000c0000008000000008080000040000008e
:1032a00080000000160800001601000080000000e9
:1032b00012080000020000008000000084090000e5
:1032c000060000008000000014080000020000005a
:1032d0008200000001000000fe0700000200000064
:1032e00082000000000000000c0800000400000044
:0832f000800000000000000056
:020000040000fa
:083ff4000007000001000000bd
:020000040000fa
:043ffc0000000000c1
:020000040000fa
:020000040001f9
:045e0000ff7f000020
:020000040000fa
:020000040001f9
:045e2000ffffff0081
:020000040000fa
:020000040001f9
:045e30000bffff0065
:020000040000fa
:020000040001f9
:045e380059ffff000f
:020000040000fa
:020000040001f9
:045e4000e4ffff007c
:020000040000fa
:020000040001f9
:045e4800fcffff005c
:020000040000fa
:020000040001f9
:045e5000deffff0072
:020000040000fa
:020000040001f9
:045e5800ffffff0049
:020000040000fa
:04f008007f454c46ae
:020000040000fa
:04f00c007f454c46aa
:020000040000fa
:04f014007f454c46a2
:020000040000fa
:04f018007f454c469e
:020000040000fa
:04f034007f454c4682
:020000040000fa
:04f054007f454c4662
:020000040000fa
:04f058007f454c465e
:00000001FF
